:020000040800F2
:10000000B8180020D901000861310008C52A00088D
:100010001131000859050008693700080000000088
:100020000000000000000000000000003501000892
:10003000050600080000000079010008AB31000847
:10004000F3010008F3010008F3010008F3010008C0
:10005000F3010008F3010008F3010008F3010008B0
:10006000F3010008F3010008F30100085D05000832
:10007000F3010008F3010008F3010008F301000890
:10008000F3010008F3010008F3010008000000007C
:10009000000000000000000000000000F301000864
:1000A000F3010008F3010008F3010008F301000860
:1000B000F3010008F301000895320008F30100087D
:1000C000F3010008F3010008F3010008F301000840
:1000D000F301000849370008F3010008F3010008A4
:1000E000F3010008F3010008F3010008000000001C
:1000F0000000000000000000000000000000000000
:1001000000000000000000000000000000000000EF
:100110000000000000000000F3010008F3010008E7
:10012000DFF80CD000F0CAF800480047F54200089C
:10013000B8180020204B19680868B0E8F00F80F369
:100140000988BFF36F8F4FF0000080F311884EF0E5
:100150000D0E70470000000006480068006880F33C
:10016000088862B661B6BFF34F8FBFF36F8F00DFB1
:1001700000BF00BF08ED00E0EFF30980BFF36F8F11
:100180000D4B1A6820E9F00F106008B54FF05000D1
:1001900080F3118804F02CFD4FF0000080F31188EB
:1001A000BDE8084019680868B0E8F00F80F30988D6
:1001B000BFF36F8F704700BFEC000020EFF311809A
:1001C0004FF0500181F31188704780F31188704718
:1001D000EFF3058070470000064880470648004757
:1001E000FEE7FEE7FEE7FEE7FEE7FEE7FEE7FEE7E7
:1001F000FEE7FEE7393200082101000840EA01036A
:100200009B0703D009E008C9121F08C0042AFAD2CC
:1002100003E011F8013B00F8013B521EF9D2704790
:10022000D2B201E000F8012B491EFBD27047002238
:10023000F6E710B513460A4604461946FFF7F0FFE5
:10024000204610BD96230022114600F009B800296F
:10025000A8BF7047401C490008BF20F0010070474C
:1002600010B4B0FA80FC00FA0CF050EA010404BFAC
:1002700010BC704749B1CCF1200421FA04F411FA02
:100280000CF118BF012121430843A3EB0C01CB1D46
:100290004FEA00614FEA102042BF002010BC7047B7
:1002A00000EBC35010440029A4BF10BC7047401C91
:1002B000490008BF20F0010010BC7047064C074DF4
:1002C00006E0E06840F0010394E807009847103426
:1002D000AC42F6D3FFF728FFF05800081059000889
:1002E00070B58C1810F8015B15F0070301D110F8F8
:1002F000013B2A1106D110F8012B03E010F8016B25
:1003000001F8016B5B1EF9D12B0705D40023521EA7
:100310000DD401F8013BFAE710F8013BCB1A921C0F
:1003200003E013F8015B01F8015B521EF9D5A1420D
:10033000D8D3002070BD000010B50020034908602C
:100340000348006804F030FF10BD000008000020E2
:100350000400002070B5044600252068806800F085
:100360000100F0B12068806820F0010021688860F9
:1003700000F0D2FF05460EE000F0CEFF401B022841
:1003800009D9A06A40F01000A062E06A40F00100C4
:10039000E062012070BD2068806800F00100002844
:1003A000EAD10020F6E770B505466C6AA06A00F055
:1003B0005000E0B9A06A40F40070A0622068806834
:1003C00000F46020B0F5602F0DD1E06858B9A06A44
:1003D00020F48070A062A06A00F4805018B9A06A6E
:1003E00040F00100A062204600F030FA03E0206AED
:1003F000016B2846884770BD70B505466C6AA06AD7
:1004000040F04000A062E06A40F00400E062204654
:1004100000F01EFA70BD70B50446656A284600F00B
:1004200016FA70BD38B504460025002000902068FB
:10043000806800F0010080BB2068806840F0010007
:1004400021688860164800681649B0FBF1F00090FA
:1004500002E00098401E009000980028F9D100F0BA
:100460005BFF054613E000F057FF401B02280ED942
:10047000A06A40F01000A062E06A40F00100E06273
:1004800000BF002084F8240000BF012038BD206890
:10049000806800F001000028E5D00020F6E70000A9
:1004A000E000002040420F001FB503220021012080
:1004B00004F05CFD0749086000200223CDE900300C
:1004C000029003464FF4807203A10390054804F0A4
:1004D000EFFE1FBD04000020414443207461736B94
:1004E00000000000E9040008134800F0A9FA002405
:1004F00000BF08221149104800F0FCFA0028F8D18A
:100500000023642219460E48006804F064FD0128A7
:100510000DD1002409E0094931F8140000F014F865
:10052000084941F82400601CC4B2082CF3DB0A20FF
:1005300004F046FADDE700002C0100206C020020E8
:10054000040000204C02002070B504462046FFF74E
:1005500079FE0546284670BD00BFFEE710B51F486E
:1005600000681F4909681D4A0832914201D10221E1
:100570002CE01B490968194A1C32914201D1202103
:1005800024E017490968154A3032914201D14915D2
:100590001CE013490968114A4432914202D14FF4D8
:1005A000005113E00E4909680C4A5832914202D1B9
:1005B0004FF400310AE00A490968084A6C32914256
:1005C00002D14FF4001101E04FF00071084008B172
:1005D000FFF7B2FE024800F009FB10BD0000024028
:1005E0005C01002010B5046863604468102C04D1DD
:1005F0000468A2600468E16003E00468A160046824
:10060000E26010BD7047000010B500224FF4805129
:10061000074800F07BFE00224FF40051044800F030
:1006200075FE00224FF48041014800F06FFE10BDBE
:10063000000C014033B583B0044601259DF810003D
:100640000C49085504F00300001D02900A20012304
:1006500002AAE0210090084800F0BEFE05463DB920
:100660000A20012304AA5C210090034800F0B4FE94
:1006700005B030BD0C0000209401002072B6704718
:1006800062B6704700BFFEE778B50246002300203F
:10069000009000BF92F82400012801D1022078BD0B
:1006A000012082F8240000BF486807281DD2106886
:1006B000446B0879401E4FF4787595FAA5F5B5FAA4
:1006C00085F568431F25854024EA05000C79641EE2
:1006D0004FF4787696FAA6F6B6FA86F674430D6865
:1006E000A5402843146860633DE048680D281DD28A
:1006F0001068046B0879C01F4FF4787595FAA5F55A
:10070000B5FA85F568431F25854024EA05000C7974
:10071000E41F4FF4787696FAA6F6B6FA86F6744396
:100720000D68A5402843146820631CE01068C46A63
:1007300008790D384FF4787595FAA5F5B5FA85F571
:1007400068431F25854024EA05000C790D3C4FF4D1
:10075000787696FAA6F6B6FA86F674430D68A54042
:1007600028431468E06208680A281BD31068C4682C
:1007700008780A38382595FAA5F5B5FA85F568435D
:100780000725854024EA05000C780A3C382696FAAD
:10079000A6F6B6FA86F674438D68A5402843146819
:1007A000E06017E0106800690C78382595FAA5F527
:1007B000B5FA85F56C430725A540A8430D78382682
:1007C00096FAA6F6B6FA86F675438C68AC402043D6
:1007D000146820610868102802D00868112827D101
:1007E000174C1068A0421ED11068806800F4000009
:1007F000F0B91068806840F400001468A0600868D0
:10080000102815D10F4800680F4CB0FBF4F000EB36
:1008100080004000009002E00098401E0090009888
:100820000028F9D104E0906A40F020009062012392
:1008300000BF002082F8240000BF18462FE7000008
:1008400000240140E000002040420F007047704744
:10085000704700002DE9F0410446002700250026DE
:10086000A84614B90120BDE8F081A06810B1606904
:1008700000B100BFA06A30B90020E06284F8240013
:10088000204600F099F82046FFF764FD0746A06A6D
:1008900000F01000002876D1002FFCD1A06A20F4CF
:1008A000885040F00200A062E169606808430222BB
:1008B00092FAA2F2B2FA82F2E1689140084306434A
:1008C000A068B0F5807F02D0A068012802D14FF463
:1008D000807000E0002005436069012816D1E068BF
:1008E00060B9A069401E4FF4604191FAA1F1B1FADC
:1008F00081F1884040F40060054307E0A06A40F0C1
:100900002000A062E06A40F00100E06220684068D8
:1009100020F46940284321684860206880682449A1
:100920000840304321688860A068B0F5807F02D01D
:10093000A068012802D14FF4807000E00020B0F5DB
:10094000807F09D12069401E4FF4700191FAA1F116
:10095000B1FA81F100FA01F82068C06A20F4700051
:1009600040EA08002168C862206880681149084090
:10097000B04209D10020E062A06A20F0020040F0FD
:100980000100A06211E00BE0A06A20F0020040F03C
:100990001000A062E06A40F00100E062012704E07C
:1009A000A06A40F01000A062012738465BE7000013
:1009B000FDF7E1FFFE0E1FFF10B586B004461B4990
:1009C0002068884230D100BF1948806940F4007027
:1009D000174988610846806900F40070019000BFE3
:1009E00000BFFF2002900320039002A9114800F0ED
:1009F000F7FA1148114908600020486000210F48AB
:100A000081608021C160490001618900416100214C
:100A10008161C16100F072FA08B1FFF733FE00BFD7
:100A200006482062446200BF06B010BD00240140A9
:100A30000010024000080140080002405C01002054
:100A400070B50446002500BF94F82400012801D1A8
:100A5000022070BD012084F8240000BF2046FFF76B
:100A6000E1FC0546BDBBA06A40F20121884340F489
:100A70008070A062A06A20F48010A06220684068A4
:100A800000F4806028B1A06A20F4005040F4805047
:100A9000A062A06A00F4805020B1E06A20F0060055
:100AA000E06201E00020E06200BF002084F8240042
:100AB00000BFC01E216808602068806800F46020C4
:100AC000B0F5602F08D100BF2068806840F4A00016
:100AD000216888600CE006E02068806840F480109F
:100AE0002168886004E000BF002084F8240000BF73
:100AF0002846AEE72DE9F04104460D46164600278C
:100B000000BF94F82400012802D10220BDE8F08142
:100B1000012084F8240000BF2046FFF783FC07462D
:100B2000002F55D1A06A40F60161884340F48070DF
:100B3000A062A06A20F48010A0622068406800F4DF
:100B4000806028B1A06A20F4005040F48050A06278
:100B5000A06A00F4805020B1E06A20F00600E06254
:100B600001E00020E06200BF002084F8240000BF04
:100B70001B48216A88621B48216AC8621A48216A98
:100B800008636FF00200216808602068806840F404
:100B9000807021688860226802F14C0133462A4641
:100BA000206A00F0D5F92068806800F46020B0F574
:100BB000602F06D12068806840F4A000216888601A
:100BC0000BE02068806840F480102168886004E0B1
:100BD00000BF002084F8240000BF384696E70000DC
:100BE000A703000817040008F903000810B504461D
:100BF000C1480068C04A08322168914201D10821E9
:100C000027E0BD4A1C322168914201D1802120E0B9
:100C1000B94A30322168914201D1C91419E0B64A6B
:100C200044322168914202D14FF4004111E0B24AAE
:100C300058322168914202D14FF4002109E0AE4AB6
:100C40006C322168914202D14FF4000101E04FF073
:100C50000061084000284DD020680068C0F3C00043
:100C600090B32068006820F0080021680860A2495D
:100C700008312068884201D1082028E09E491C31B3
:100C80002068884201D1802021E09B4930312068D2
:100C9000884201D1C0141AE0974944312068884243
:100CA00002D14FF4004012E0934958312068884245
:100CB00002D14FF400200AE08F496C31206888424D
:100CC00003D14FF4000002E014E04FF000608A49C5
:100CD0004860606B40F001006063042084F82100EC
:100CE00000BF002084F8200000BF206B10B1204618
:100CF000216B8847804800687F4A0832216891420A
:100D000001D1042127E07C4A1C322168914201D1A3
:100D1000402120E0784A30322168914201D1091502
:100D200019E0754A44322168914202D14FF4804162
:100D300011E0714A58322168914202D14FF480216A
:100D400009E06D4A6C322168914202D14FF4800172
:100D500001E04FF080610840A0B320680068C0F354
:100D6000800078B32068006800F0200028B920686F
:100D7000006820F00400216808605F49083120689D
:100D8000884201D1042028E05B491C312068884258
:100D900001D1402021E0584930312068884201D1FA
:100DA00000151AE0544944312068884202D14FF4BA
:100DB000804012E0504958312068884203D14FF4F6
:100DC00080200AE013E04C496C312068884202D14F
:100DD0004FF4800001E04FF08060474948601120E7
:100DE00084F82100E06A10B12046E16A8847424851
:100DF0000068414A08322168914201D1022127E06E
:100E00003D4A1C322168914201D1202120E03A4A1A
:100E100030322168914201D1491519E0364A4432F5
:100E20002168914202D14FF4005111E0324A583208
:100E30002168914202D14FF4003109E02E4A6C3210
:100E40002168914202D14FF4001101E04FF000718E
:100E50000840A0B320680068C0F3400078B3206861
:100E6000006800F0200028B92068006820F0020027
:100E700021680860204908312068884201D1022099
:100E800028E01D491C312068884201D1202021E042
:100E9000194930312068884201D140151AE01649BD
:100EA00044312068884202D14FF4005012E01249C8
:100EB00058312068884203D14FF400300AE01AE02C
:100EC0000D496C312068884202D14FF4001001E0D6
:100ED0004FF0007008494860606B6063012084F83F
:100EE000210000BF002084F8200000BFA06A10B1DC
:100EF0002046A16A884710BD00000240014600223A
:100F000009B90120704791F8210010B9002081F83B
:100F10002000022081F821000868026843F6F07082
:100F20008243D1E901031843CB6818430B69184386
:100F30004B6918438B691843CB691843024308680F
:100F4000026000204863012081F821000020D9E7D9
:100F50002DE9F04104460D4616461F4600BF94F8A1
:100F60002000012802D10220BDE8F081012084F890
:100F7000200000BF022084F821002068006820F0D3
:100F80000100216808603B46324629462046FFF7AB
:100F900029FB2068006840F0020021680860206892
:100FA000006840F00400216808602068006840F094
:100FB0000800216808602068006840F0010021688E
:100FC00008600020D0E731B5002400F0A5F9044600
:100FD00000BF00F0A1F9001B00998842F9D338BD89
:100FE0002DE9F84703460024002000258446002709
:100FF00000226EE14FF0010808FA02F4D1F80080F7
:1010000008EA0400A0427DD1DFF8D0A2D1F8048024
:10101000A8EB0A09D0453AD014DCB8F1030F50D040
:1010200009DCB8F1000F31D0B8F1010F1CD0B8F1D4
:10103000020F49D120E0B8F1110F18D0B8F1120F0A
:1010400042D11EE0B9F5881F25D006DCB9F5803FF6
:1010500020D0B9F5801F37D11AE0B9F5001F18D09C
:10106000B9F5041F30D117E0D1F80CC02DE0D1F84C
:101070000C8008F1040C28E0D1F80C8008F1080C71
:1010800023E0D1F80C8008F10C0C1EE000BF00BF7B
:1010900000BF00BF00BF00BFD1F80880B8F1000F4B
:1010A00002D14FF0040C0BE0D1F80880B8F1010F29
:1010B00003D14FF0080C1C6102E04FF0080C5C619A
:1010C00003E04FF0000C00E000BF00BFFF2801D894
:1010D000984601E003F104084646FF2802D84FEA8B
:1010E000820803E0A2F108084FEA88084746D6F8CC
:1010F00000804FF00F0909FA07F928EA09080CFAED
:1011000007F900E088E048EA0908C6F80080D1F84D
:10111000048008F08058B8F1805F7DD100BFDFF80F
:10112000C081D8F8188048F00108DFF8B491C9F8F8
:101130001880C846D8F8188008F00108CDF800805B
:1011400000BF00BF4FEAB9384FEA920958F829505A
:101150004FEA82784FEA18794FF00F0808FA09F839
:1011600025EA0805DFF87C81434502D14FF00008ED
:1011700016E0DFF87481434502D14FF001080FE01B
:10118000DFF86881434502D14FF0020808E0DFF83C
:101190006081434502D14FF0030801E04FF004089D
:1011A0004FEA82794FEA197908FA09F848EA050501
:1011B000DFF840814FEA920948F82950D1F80480BD
:1011C00008F48038B8F5803F0AD1DFF82C81D8F8D0
:1011D000008048EA0008DFF82091C9F8008009E0A3
:1011E000DFF81481D8F8008028EA0008DFF80891B9
:1011F000C9F80080D1F8048008F40038B8F5003F41
:1012000010D1DFF8F48008F10408D8F8008048EA2B
:101210000008DFF8E49000E05AE009F10409C9F899
:1012200000800DE0DFF8D08008F10408D8F80080D5
:1012300028EA0008DFF8C09009F10409C9F8008025
:10124000D1F8048008F48018B8F5801F0ED1DFF8BB
:10125000A88008F10808D8F8008048EA0008DFF8FC
:10126000989009F10809C9F800800DE0DFF888803E
:1012700008F10808D8F8008028EA0008DFF878901C
:1012800009F10809C9F80080D1F8048008F40018B1
:10129000B8F5001F0ED1DFF8608008F10C08D8F80F
:1012A000008048EA0008DFF8509009F10C09C9F8FD
:1012B00000800DE0DFF8408008F10C08D8F80080CD
:1012C00028EA0008DFF8309009F10C09C9F800801D
:1012D000521C102AFFF48EAEBDE8F88700001110F2
:1012E0000010024000080140000C014000100140C5
:1012F00000140140080001400004014002469368C8
:101300000B400BB1012000E0002070470AB10161E1
:1013100001E00B040361704701480068704700005A
:10132000DC00002070B50446002500260CB9012021
:1013300070BD94F8350028B9002084F834002046A8
:1013400000F0EAF8242084F835002068006820F0D6
:1013500001002168086000F0A9FB06461C48B6FBA6
:10136000F0F5206845601B496068884201D8681C18
:1013700007E04FF4967068434FF47A71B0FBF1F0D8
:10138000401C216808623146204601F09DFB21681F
:10139000C861D4E90701084321680860D4E9031053
:1013A000084321688860D4E9050108432168C860C2
:1013B0002068006840F00100216808600020A063F8
:1013C000202084F83500002084F8360000BFAFE705
:1013D00040420F00A08601002DE9F84304468846EC
:1013E00015461E46089F94F8350020287ED105B189
:1013F00016B90120BDE8F88342F210730122454975
:10140000204601F01EFC08B10220F3E700BF94F86B
:101410003400012801D10220ECE7012084F83400D7
:1014200000BF2068006820F4006021680860212067
:1014300084F83500102084F836000020A0633A4676
:101440004146204601F08CFB80B1A06B042806D1F8
:1014500000BF002084F8340000BF0120CAE700BFAD
:10146000002084F8340000BF0320C3E700BF2068D9
:101470004069009020688069009000BF00BF23E0B1
:101480003946204601F0A3FC60B1A06B042807D1C7
:101490002068006840F40070216808600120A9E716
:1014A0000320A7E715F8010B21680861701E86B2BA
:1014B00020684069C0F3800030B12EB115F8010BEF
:1014C00021680861701E86B2002ED9DC394620469C
:1014D00001F08CFB68B1A06B042808D1206800687B
:1014E00040F4007021680860012083E710E00320C9
:1014F00080E72068006840F40070216808602020C0
:1015000084F8350000BF002084F8340000BF71E784
:1015100002206FE70200100010B586B004460F49A4
:101520002068884218D14FF4406002901220039046
:101530000320059002A90A48FFF752FD00BF0948A1
:10154000C06940F480000749C8610846C06900F4DA
:101550008000019000BF00BF06B010BD00580040E1
:10156000000C01400010024002480068401C014984
:1015700008607047DC00002010B5032000F0ACF8D4
:101580000F2000F004F800F015F8002010BD70B531
:10159000044600F085FA4FF47A71B0FBF1F5284665
:1015A00000F068FF00222146501E00F056F800208F
:1015B00070BD000008B500BF1F48806940F0010001
:1015C0001D4988610846806900F00100009000BF55
:1015D00000BF032000F080F8002211466FF00B00DE
:1015E00000F03BF8002211466FF00A0000F035F8D9
:1015F000002211466FF0090000F02FF8002211467A
:10160000501F00F02AF800221146101F00F025F8A4
:1016100000220F21901E00F020F800220F21501E02
:1016200000F01BF80548406820F0E06040F00070D2
:101630000249486008BD000000100240000001405F
:1016400000BF00F01F02012191404209920002F107
:10165000E022C2F8001100BF70472DE9F05F80461C
:101660000D461646002701F07DFD074639462A46FD
:10167000334601F00700C0F1070ABAF1040F02D99E
:101680004FF0040A01E0C0F1070AD14600F1040A54
:10169000BAF1070F02D24FF0000A01E0A0F1030AED
:1016A000D4464FF0010A0AFA09FAAAF1010A0AEA35
:1016B000020A0AFA0CFA4FF0010B0BFA0CFBABF121
:1016C000010B0BEA030B4AEA0B042146404601F0EA
:1016D00051FDBDE8F09F000000BF00F00702064B7F
:1016E00019684FF6FF031940044B0B4343EA0221EC
:1016F000014B196000BF70470CED00E00000FA05D7
:10170000F8B5044600260025207800F001000028E6
:1017100076D000BF4F48C06940F080504D49C86145
:101720000846C06900F08050009000BF00BF4A48E2
:10173000006840F4807048490860FFF7EDFD0646F8
:1017400006E0FFF7E9FD801B642801D90320F8BDFE
:101750004148006800F480700028F2D03D48006ADB
:1017600000F44075002D5DD0A08800F44070A842C0
:1017700058D03848006A20F440750121080490FAD6
:10178000A0F0B0FA80F0354A02EB8000C0F80014F7
:101790000020090491FAA1F1B1FA81F102EB810173
:1017A000C1F800042B48056205F0010048B3FFF7BB
:1017B000B3FD064608E0FFF7AFFD801B41F288311C
:1017C000884201D90320C2E74020022191FAA1F109
:1017D000B1FA81F108430121B1EB601F02D11D482C
:1017E000006811E04020022191FAA1F1B1FA81F1E3
:1017F00008430221B1EB601F04D11648006A03E0E0
:1018000018E00FE01348406A4021022292FAA2F247
:10181000B2FA82F2114301F01F0201219140084007
:101820000028C8D00B48006A20F440706168084363
:1018300008490862207800F00200022807D1054814
:10184000406820F44040A1680843024948600020F5
:101850007DE700000010024000700040000042429E
:1018600070B504460E460025207800F002000228DC
:1018700007D18848406820F0F000A16808438549F6
:101880004860207800F0010000286ED060680128D0
:101890002DD12020010391FAA1F1B1FA81F1084381
:1018A0000121B1EB601F02D17A4800680FE02020CF
:1018B000010391FAA1F1B1FA81F108430221B1EBE0
:1018C000601F02D17348006A01E07248406A20211B
:1018D0000A0392FAA2F2B2FA82F2114301F01F0255
:1018E000012191400840002860D1012070BD60684E
:1018F00002282CD12020010591FAA1F1B1FA81F141
:1019000008430121B1EB601F02D1624800680FE07B
:101910002020010591FAA1F1B1FA81F108430221D9
:10192000B1EB601F02D15B48006A01E05948406A90
:1019300020210A0592FAA2F2B2FA82F2114301F0D2
:101940001F0201219140084078BB0120CEE72020F2
:10195000022191FAA1F1B1FA81F108430121B1EB21
:10196000601F03D14B48006810E062E02020022194
:1019700091FAA1F1B1FA81F108430221B1EB601FA4
:1019800002D14448006A01E04248406A2021022214
:1019900092FAA2F2B2FA82F2114301F01F0201217F
:1019A0009140084008B90120A0E7FFE739484068A6
:1019B00020F003006168084336494860FFF7ACFC3B
:1019C00005466068012810D108E0FFF7A5FC401B20
:1019D00041F28831884201D9032087E72D484068C9
:1019E00000F00C000428F0D123E06068022810D138
:1019F00008E0FFF791FC401B41F28831884201D991
:101A0000032073E72348406800F00C000828F0D159
:101A10000FE008E0FFF780FC401B41F2883188426C
:101A200001D9032062E71B48406800F00C00002841
:101A3000F0D1207800F00400042807D11548406850
:101A400020F4E060E168084312494860207800F023
:101A50000800082808D10F48406820F46050216928
:101A600040EAC1000B49486000F04CF80949496858
:101A700001F0F001F02292FAA2F2B2FA82F2D14021
:101A8000054A515CC840054908600F20FFF77FFDFB
:101A900000202BE700100240CC580008E000002096
:101AA0000148006870470000E000002000B5FFF723
:101AB000F7FF0749496801F4E0614FF4E06292FAE8
:101AC000A2F2B2FA82F2D140024A515CC84000BD93
:101AD00000100240DC58000800B5FFF7E1FF07499D
:101AE000496801F460514FF4605292FAA2F2B2FADE
:101AF00082F2D140024A515CC84000BD0010024051
:101B0000DC580008F0B588B027A7D7E901C63D68C2
:101B1000FF68CDE905C6079704950FF29C0CDCE938
:101B20000075DCE9026CCDE9026CCDE9007500219D
:101B30000024002200230020234D696801F00C05D9
:101B400065B3042D02D0082D27D101E01F4827E0FE
:101B500001F470154FF4701696FAA6F6B6FA86F6EA
:101B6000F54004AE735D01F480358DB1164DED6A1C
:101B700005F00F050F2696FAA6F6B6FA86F6F5409A
:101B80001DF80540114DB5FBF4F505FB03F202E02D
:101B90000F4D03FB05F2104602E000BF0B4800BFEB
:101BA00000BF08B0F0BD00000203040506070809E5
:101BB0000A0B0C0D0E0F1010010203040506070896
:101BC000090A0B0C0D0E0F100010024000127A00D3
:101BD00000093D0038B504460025207800F00100DA
:101BE00000287CD0F848406800F00C0004280CD095
:101BF000F548406800F00C00082837D1F2484068EA
:101C000000F48030B0F5803F30D12020010391FAFC
:101C1000A1F1B1FA81F108430121B1EB601F02D1BA
:101C2000E94800680FE02020010391FAA1F1B1FA20
:101C300081F108430221B1EB601F02D1E248006A42
:101C400001E0E148406A20210A0392FAA2F2B2FAC6
:101C500082F2114301F01F02012191400840002847
:101C6000BFD0606800283AD1012038BD00BF60684D
:101C7000B0F5803F06D1D448006840F48030D249A6
:101C8000086028E0606858B9CF48006820F48030C8
:101C9000CD4908600846006820F4802008601AE0FA
:101CA0006068B0F5A02F0BD1C748006840F48020D1
:101CB000C54908600846006840F4803008600AE0C2
:101CC000C148006820F48030BF49086008460068B9
:101CD00020F48020086000BF6068C8B300E06FE0B7
:101CE000FFF71AFB054606E0FFF716FB401B6428CA
:101CF00001D90320B9E72020010391FAA1F1B1FA3B
:101D000081F108430121B1EB601F02D1AE480068A8
:101D10000FE02020010391FAA1F1B1FA81F108430B
:101D20000221B1EB601F02D1A748006A01E0A6487A
:101D3000406A20210A0392FAA2F2B2FA82F2114317
:101D400001F01F020121914008400028CCD037E06B
:101D5000FFE7FFF7E1FA054606E0FFF7DDFA401B73
:101D6000642801D9032080E72020010391FAA1F122
:101D7000B1FA81F108430121B1EB601F02D1924811
:101D800000680FE02020010391FAA1F1B1FA81F17E
:101D900008430221B1EB601F02D18B48006A01E0C9
:101DA0008948406A20210A0392FAA2F2B2FA82F22A
:101DB000114301F01F020121914008400028CCD1BD
:101DC000207800F0020002284ED17F48406800F0E1
:101DD0000C0050B17C48406800F00C00082844D149
:101DE0007948406800F4803078BB2020022191FAC5
:101DF000A1F1B1FA81F108430121B1EB601F02D1D9
:101E0000714800680FE02020022191FAA1F1B1FA97
:101E100081F108430221B1EB601F02D16A48006AD8
:101E200001E06948406A2021022292FAA2F2B2FA45
:101E300082F2114301F01F0201219140084028B1B4
:101E40002069012802D001200FE70EE05E480068FB
:101E500020F0F800F82292FAA2F2B2FA82F2616956
:101E6000914008435849086091E02069F0B301208F
:101E700090FAA0F1B1FA81F1544A42F82100FFF73B
:101E80004BFA054606E0FFF747FA401B022801D946
:101E90000320EAE62020022191FAA1F1B1FA81F1B2
:101EA00008430121B1EB601F02D1474800680FE0F1
:101EB0002020022191FAA1F1B1FA81F10843022117
:101EC000B1EB601F02D14048006A01E03E48406A21
:101ED0002021022292FAA2F2B2FA82F2114301F018
:101EE0001F02012191400840002800E00FE0CAD005
:101EF0003548006820F0F800F82292FAA2F2B2FA0F
:101F000082F26169914008432F4908603FE0002058
:101F1000012191FAA1F1B1FA81F12C4A42F8210094
:101F2000FFF7FAF9054606E0FFF7F6F9401B02282D
:101F300001D9032099E62020022191FAA1F1B1FAFA
:101F400081F108430121B1EB601F02D11E480068F6
:101F50000FE02020022191FAA1F1B1FA81F10843AA
:101F60000221B1EB601F02D11748006A01E0164858
:101F7000406A2021022292FAA2F2B2FA82F21143BE
:101F800001F01F020121914008400028CCD12078A7
:101F900000F0080008284BD1A069A8B3012191FAEC
:101FA000A1F0B0FA80F0094A02EB8000C0F880147A
:101FB000FFF7B2F905460BE0FFF7AEF9401B022828
:101FC00006D9032051E60000001002400000424202
:101FD0006020022191FAA1F1B1FA81F108430121B7
:101FE000B1EB601F02D1F948006810E060200221C7
:101FF00091FAA1F1B1FA81F108430221B1EB601F1E
:1020000003D1F248006A02E013E0F048406A602120
:10201000022292FAA2F2B2FA82F2114301F01F02F6
:102020000121914008400028C6D00120FEF7CBFFD7
:1020300041E00020012191FAA1F1B1FA81F1E44AD5
:1020400002EB8101C1F88004FFF766F9054606E05E
:10205000FFF762F9401B022801D9032005E6602042
:10206000022191FAA1F1B1FA81F108430121B1EB0A
:10207000601F02D1D54800680FE06020022191FA6C
:10208000A1F1B1FA81F108430221B1EB601F02D145
:10209000CE48006A01E0CD48406A6021022292FAEF
:1020A000A2F2B2FA82F2114301F01F020121914023
:1020B00008400028CCD1207800F00400042875D115
:1020C00000BFC248C06940F08050C049C86108469E
:1020D000C06900F08050009000BF00BFBD4800689C
:1020E00040F48070BB490860FFF716F9054606E02A
:1020F000FFF712F9401B642801D90320B5E5B54864
:10210000006800F480700028F2D000BFE068012869
:1021100006D1AE48006A40F00100AC49086227E0F1
:10212000E06858B9A948006A20F00100A749086290
:102130000846006A20F00400086219E0E0680528FB
:102140000BD1A248006A40F00400A049086208468A
:10215000006A40F0010008620AE09C48006A20F032
:1021600001009A4908620846006A20F004000862EB
:1021700000BFE068D0B3FFF7CFF8054608E0FFF7EF
:10218000CBF8401B41F28831884201D903206CE52D
:102190004020022191FAA1F1B1FA81F10843012115
:1021A000B1EB601F03D18948006810E058E040207F
:1021B000022191FAA1F1B1FA81F108430221B1EBB8
:1021C000601F02D18148006A01E08048406A4021D6
:1021D000022292FAA2F2B2FA82F2114301F01F0235
:1021E0000121914008400028C9D039E0FFE7FFF7FE
:1021F00093F8054608E0FFF78FF8401B41F288315D
:10220000884201D9032030E54020022191FAA1F152
:10221000B1FA81F108430121B1EB601F02D16B4893
:1022200000680FE04020022191FAA1F1B1FA81F19A
:1022300008430221B1EB601F02D16448006A01E04B
:102240006248406A4021022292FAA2F2B2FA82F275
:10225000114301F01F020121914008400028CAD11A
:10226000E069002873D05948406800F00C00082845
:102270006ED0E06902286CD100204FF0807191FA95
:10228000A1F1B1FA81F1524A42F82100FFF744F876
:10229000054606E0FFF740F8401B022801D903205D
:1022A000E3E42020010591FAA1F1B1FA81F108439C
:1022B0000121B1EB601F02D1444800680FE02020EB
:1022C000010591FAA1F1B1FA81F108430221B1EBC4
:1022D000601F02D13D48006A01E03C48406A20216D
:1022E0000A0592FAA2F2B2FA82F2114301F01F0239
:1022F0000121914008400028CCD1206AB0F5803FF0
:1023000007D13248C06A20F00F00A16808432F4966
:10231000C862D4E9080108432C49496821F47411C2
:1023200008432A4948600121080690FAA0F0B0FA53
:1023300080F0274A42F82010FEF7EEFF054609E03C
:10234000FEF7EAFF401B022804D903208DE479E060
:1023500076E02CE02020010591FAA1F1B1FA81F19B
:1023600008430121B1EB601F02D1184800680FE05B
:102370002020010591FAA1F1B1FA81F1084302216F
:10238000B1EB601F02D11148006A01E00F48406ABA
:1023900020210A0592FAA2F2B2FA82F2114301F068
:1023A0001F020121914008400028C9D04AE00020C6
:1023B0004FF0807191FAA1F1B1FA81F1044A42F82B
:1023C0002100FEF7A9FF05460DE0000000100240C5
:1023D0000000424200700040FEF79EFF401B0228B2
:1023E00001D9032041E42020010591FAA1F1B1FABD
:1023F00081F108430121B1EB601F02D1124800684E
:102400000FE02020010591FAA1F1B1FA81F1084312
:102410000221B1EB601F02D10B48006A01E00A48BB
:10242000406A20210A0592FAA2F2B2FA82F211431E
:1024300001F01F020121914008400028CCD101E0A9
:10244000012012E4002010E400100240042808D10A
:102450004FF0E021096941F004014FF0E0221161E1
:1024600007E04FF0E021096921F004014FF0E0227C
:102470001161704770B504462546681EB0F1807F33
:1024800001D301200FE0681E4FF0E02148610F21C9
:102490004FF0FF3000F06EFE00204FF0E021886129
:1024A00007200861002070BD70477047024600BFDA
:1024B00092F83800012801D102207047012082F8EB
:1024C000380000BF022082F839001068406820F010
:1024D000700013685860106840680B6818431368F0
:1024E00058601068806820F0800013689860106859
:1024F00080684B68184313689860012082F839009F
:1025000000BF002082F8380000BF00BFD5E710B53B
:1025100004460CB9012010BD94F8390028B90020F8
:1025200084F83800204600F00DF8022084F83900C5
:10253000211D206800F0B6FE012084F8390000203B
:10254000E9E7000038B504460D492068884215D1F6
:1025500000BF0C48C06940F004000A49C861084641
:10256000C06900F00400009000BF00BF00220521F8
:102570001E20FFF772F81E20FFF762F838BD00003A
:10258000000800400010024001460868C06840F0A2
:1025900001000A68D0600868006840F001000A681D
:1025A0001060002070470146022081F8390000BF0A
:1025B0000868006A41F21112104050B90868006AB8
:1025C0009210104028B90868006820F001000A68DD
:1025D000106000BF012081F83900002070470146DB
:1025E0000868C06820F001000A68D06000BF086871
:1025F000006A41F21112104050B90868006A921046
:10260000104028B90868006820F001000A681060CE
:1026100000BF002070472DE9F04104460D4600261A
:1026200000BF94F83800012802D10220BDE8F081F3
:10263000012084F8380000BF022084F839002068A7
:10264000866826F0770626F47F462068866028682C
:1026500050283BD00CDC202860D004DC002853D06C
:10266000102865D155E030285DD0402860D141E088
:10267000602835D070280DD0B0F5805F03D0B0F55C
:10268000005F55D115E02068806820F007002168C0
:1026900088604EE0D5E902136A68206800F050FEB9
:1026A0002068866826F0770646F077062068866000
:1026B0003FE0D5E902136A68206800F041FE206817
:1026C000806840F480402168886032E0EA68696888
:1026D000206800F04BFE5021206800F03DFE28E00D
:1026E000EA686968206800F056FE6021206800F002
:1026F00033FE1EE0EA686968206800F037FE40217A
:10270000206800F029FE14E00021206800F024FE7B
:102710000FE01021206800F01FFE0AE02021206851
:1027200000F01AFE05E03021206800F015FE00E000
:1027300000BF00BF012084F8390000BF002084F8EA
:10274000380000BF00BF71E7704710B5044620682D
:102750000069C0F34000D8B12068C068C0F34000F1
:10276000B0B16FF002002168086101202076206876
:10277000806900F0030018B12046FFF7E5FF05E08F
:10278000204600F0ADF8204600F0ABF8002020769F
:1027900020680069C0F38000D8B12068C068C0F329
:1027A0008000B0B16FF0040021680861022020763B
:1027B0002068806900F4407018B12046FFF7C4FF1C
:1027C00005E0204600F08CF8204600F08AF8002052
:1027D000207620680069C0F3C000D8B12068C068C6
:1027E000C0F3C000B0B16FF0080021680861042098
:1027F00020762068C06900F0030018B12046FFF77A
:10280000A3FF05E0204600F06BF8204600F069F8D1
:102810000020207620680069C0F30010D8B120683D
:10282000C068C0F30010B0B16FF0100021680861FB
:10283000082020762068C06900F4407018B1204656
:10284000FFF782FF05E0204600F04AF8204600F03E
:1028500048F8002020762068006900F0010058B197
:102860002068C06800F0010030B16FF001002168FD
:102870000861204600F036F820680069C0F3C010F7
:1028800058B12068C068C0F3C01030B16FF080004C
:10289000216808612046FFF707FE20680069C0F341
:1028A000801058B12068C068C0F3801030B16FF05C
:1028B000400021680861204600F022F82068006985
:1028C000C0F3401058B12068C068C0F3401030B168
:1028D0006FF02000216808612046FFF7E6FD10BD7B
:1028E0007047704710B5044604492068084410B981
:1028F00001F0C0FE00BF00BF10BD000000F8FFBF28
:1029000070477047F8B50446002500262068006827
:1029100000F001052068C06800F4807625B11EB182
:10292000E06B40F00100E06320680068C0F3400500
:102930002068406900F0010625B11EB1E06B40F04F
:102940000400E06320680068C0F3800525B11EB173
:10295000E06B40F00200E06320680068C0F3C0054F
:1029600025B11EB1E06B40F00800E063206800680C
:10297000C0F340152068C06800F020061DB116B1F4
:10298000204600F067FD20680068C0F3C01520688D
:10299000C06800F080061DB116B1204600F09CFE14
:1029A00020680068C0F380152068C06800F0400609
:1029B0001DB116B1204600F004FDE06B70B100BF00
:1029C00020680068009020684068009000BF00BF49
:1029D000012084F839002046FFF793FFF8BD10B5B9
:1029E00004460CB9012010BDA06900B100E000BF91
:1029F00094F8390028B9002084F83800204600F007
:102A000025F8022084F839002068C06820F40050BE
:102A10002168C860204600F07BFD2068006920F432
:102A20009040216808612068406920F02A002168F0
:102A300048612068C06840F400502168C8600020E8
:102A4000E063012084F839000020CCE710B586B09F
:102A5000044618492068884229D100BF1648806979
:102A600040F48040144988610846806900F4804041
:102A7000019000BF00BF4815029002200390032080
:102A8000059002A90D48FEF7ABFA4FF48060029062
:102A900000200390049002A90848FEF7A1FA002242
:102AA00006212520FEF7D9FD2520FEF7C9FD06B039
:102AB00010BD000000380140001002400008014035
:102AC0007047704700BFFEE710B502460B46002175
:102AD000154C5068A0420BD850684000B3FBF0F191
:102AE000C1F30B00042801D2042010BD0846FCE706
:102AF0004FF40041906830B9506800EB4000B3FBE0
:102B0000F0F0014309E0506800EBC00404EB001052
:102B1000B3FBF0F040F480400143C1F30B0008B96F
:102B20000120E2E70846E0E7A086010001460868C8
:102B30004069C0F3802088B10868406920F4806053
:102B40000A68506104208863202081F8350000BFA6
:102B5000002081F8340000BF012070470020FCE70E
:102B600070B504460D4616462068006840F4807033
:102B700021680860334600224FF00111204600F022
:102B800060F808B1032070BD2069B0F5804F04D112
:102B900005F0FE002168086116E005F44070F021A0
:102BA00041EAE0102168086132460F49204600F0F2
:102BB000B7F830B1A06B042801D10120E3E703206E
:102BC000E1E7E8B22168086132460749891F2046DB
:102BD00000F0A6F830B1A06B042801D10120D2E7A3
:102BE0000320D0E70020CEE70800010070B50446BE
:102BF0000D46FEF791FB06461BE02046FFF796FFC9
:102C000008B1012070BD681C98B125B1FEF784FBA6
:102C1000801BA8420DD9A06B40F02000A0632020AB
:102C200084F8350000BF002084F8340000BF032082
:102C3000E8E720684069C0F380000028DDD000206C
:102C4000E0E72DE9F04105460C4617461E464FF0D9
:102C50000008FEF761FB804687BB13E0701C88B15B
:102C60002EB1FEF759FBA0EB0800B0420AD9202094
:102C700085F8350000BF002085F8340000BF032030
:102C8000BDE8F081C4F3074001280AD128684069F3
:102C9000A1B20840A1B2884201D101200BE000207E
:102CA00009E028688069A1B20840A1B2884201D138
:102CB000012000E000200028D0D02FE0FFE712E044
:102CC000701C80B12EB1FEF727FBA0EB0800B042CC
:102CD00009D9202085F8350000BF002085F8340090
:102CE00000BF0320CCE7C4F3074001280AD12868BD
:102CF0004069A1B20840A1B2884201D101200BE095
:102D0000002009E028688069A1B20840A1B2884289
:102D100001D1012000E000200028D1D10020AFE740
:102D20002DE9F04104460D4616460027FEF7F4FA59
:102D300007462FE020684069C0F38020C0B12068BA
:102D4000006840F40070216808602068406920F441
:102D50008060216848610420A063202084F8350049
:102D600000BF002084F8340000BF0120BDE8F081DE
:102D7000701C78B126B1FEF7CFFAC01BB04209D95A
:102D8000202084F8350000BF002084F8340000BF04
:102D90000320EBE7C5F3074001280AD1206840690A
:102DA000A9B20840A9B2884201D101200BE000205D
:102DB00009E020688069A9B20840A9B2884201D11F
:102DC000012000E000200028B4D00020CEE770B53C
:102DD00004460D46FEF7A0FA06461BE02046FFF724
:102DE000A5FE08B1012070BD681C98B125B1FEF7A1
:102DF00093FA801BA8420DD9A06B40F02000A0637D
:102E0000202084F8350000BF002084F8340000BF83
:102E10000320E8E720684069C0F3C0100028DDD037
:102E20000020E0E70EB53948394908608115384877
:102E300081600021C16041614FF46021C1610020C7
:102E400033494860082132480161FDF703FD08B1AC
:102E5000FDF718FC00200090012001900520029051
:102E600069462B48FDF710FC08B1FDF70BFC01206B
:102E700000900220019069462548FDF705FC08B145
:102E8000FDF700FC022000900320019069462048D5
:102E9000FDF7FAFB08B1FDF7F5FB032000900420D5
:102EA000019069461A48FDF7EFFB08B1FDF7EAFB10
:102EB000042000900520019069461548FDF7E4FBC9
:102EC00008B1FDF7DFFB0520009006200190694660
:102ED0000F48FDF7D9FB08B1FDF7D4FB06200090A1
:102EE0000720019069460A48FDF7CEFB08B1FDF7BF
:102EF000C9FB072000900820019069460448FDF7AF
:102F0000C3FB08B1FDF7BEFB0EBD0000002401406D
:102F10002C01002008B500BF0A48406940F00100BC
:102F2000084948610846406900F00100009000BF70
:102F300000BF002207210B20FEF78FFB0B20FEF7BE
:102F40007FFB08BD0010024000B585B000BF3848C7
:102F5000806940F01000364988610846806900F0B9
:102F60001000009000BF00BF00BF0846806940F01D
:102F7000040088610846806900F00400009000BFEA
:102F800000BF00BF0846806940F00800886108461D
:102F9000806900F00800009000BF00BF00BF084635
:102FA000806940F0200088610846806900F02000B8
:102FB000009000BF00BF002247F2F8011D48FEF755
:102FC000A5F900224FF4DE511B48FEF79FF90022BD
:102FD00004211A48FEF79AF947F2F80001900120FF
:102FE00002900220049001A91248FDF7F9FF4FF466
:102FF0000040019000200290039001A90D48FDF7C8
:10300000EFFF4FF4DE500190012002900220049067
:1030100001A90948FDF7E4FF042001900120029076
:103020000220049001A90548FDF7DAFF05B000BDB4
:1030300000100240000C014000100140001401404B
:1030400010B50B480B4908600B484860002109483F
:103050008160C1604FF48041016100214161816163
:10306000C1610162FEF75EF908B1FDF70BFB10BD0F
:103070000058004094010020A086010000B587B0F0
:1030800013481449086000204860002111488160FD
:103090004FF49661C16000210161FFF738FA08B171
:1030A000FDF7F0FA4FF48050039003A90948FFF7A9
:1030B000B2FA08B1FDF7E6FA00200190029001A9EA
:1030C0000448FFF7F3F908B1FDF7DCFA07B000BDDB
:1030D00000080040D001002010B50B480B490860E3
:1030E0004FF4E1304860002108488160C16001610F
:1030F0000C21416100218161C161FFF770FC08B1C1
:10310000FDF7C0FA10BD0000003801400C0200209D
:1031100000BFFEE71FB500204FF4165302460A21F8
:10312000009000F0D7FD044600200123CDE90030D7
:10313000029003464FF4807202A10390044802F00B
:10314000B7F81FBD4D6F64627573207461736B00B7
:103150005531000800F01AFB00BF00F02BFEFCE721
:103160007047000002480068C0F30220704700006A
:103170000CED00E010B5002807DA0A07140E054A26
:1031800000F00F031B1FD45403E00A07130E024A7A
:10319000135410BD18ED00E000E400E000BF00BFD4
:1031A0004FF4FA7001F0D7F8FAE710B5FEF7DCF942
:1031B00001F0E2F810BD10B592B002200890012095
:1031C0000C9010200D9002200F9000211091C1044E
:1031D000119108A8FEF7FEFC08B1FDF753FA0F2085
:1031E0000390022004900020059006900790002193
:1031F00003A8FEF735FB08B1FDF744FA0220009062
:10320000002002906846FEF77BFA08B1FDF73AFA13
:10321000FEF746FC4FF47A71B0FBF1F42046FFF75D
:1032200029F90420FFF712F900220F21501EFEF7A2
:1032300014FA12B010BD00001248006840F00100FE
:1032400010490860084640680F4908400D49486029
:10325000084600680D4908400A49086008460068A9
:1032600020F4802008600846406820F4FE00486092
:103270004FF41F0088600020C862C803044908603A
:1032800070470000001002400000FFF8FFFFF6FE4C
:1032900008ED00E010B50248FFF757FA10BD000036
:1032A000D0010020002202681F4B984208D0B0F1E4
:1032B000804F05D01D4B984202D01D4B984203D140
:1032C00022F070024B681A43174B984211D0B0F1AC
:1032D000804F0ED0154B98420BD0154B984208D01A
:1032E000144B984205D0144B984202D0134B98428D
:1032F00003D122F44072CB681A4302608B68C36228
:103300000B688362084B984208D00A4B984205D05C
:10331000094B984202D0094B984201D10B690363D3
:103320000123436170470000002C0140000400406D
:1033300000080040004001400044014000480140B6
:1033400030B50C460021816821F47F4142EA032513
:1033500025432943816030BD0A460021816821F060
:10336000700142F0070319438160704730B50B4686
:10337000144600210022026A056A25F00105056253
:10338000816921F0F00141EA041122F00A021A4396
:103390008161026230BD30B50B4614460021002227
:1033A000056A25F0100505628169026A21F4704101
:1033B00041EA043122F0A00242EA03128161026272
:1033C00030BD10B504462068C06820F04000216878
:1033D000C86094F83900322803D1222084F83900DB
:1033E00002E0012084F839002046FFF76AFB002044
:1033F00010BD000010B5044613480068A04221D15A
:10340000114800680068C0F3401050B10E480068D1
:10341000C06800F0200020B10C48006880470120FF
:1034200010BD094800680068C0F3C01050B10648DC
:103430000068C06800F0800020B10548006880473F
:103440000120EDE70020EBE70C0200203C0000200B
:103450004000002070B50446002694F83960222E02
:1034600001D0322E52D1A068B0F5805F13D1A56A89
:10347000206940B920684068C0F308002880A06A2D
:10348000801CA06219E020684068C0B22880A06A51
:10349000401CA06211E0206938B920684068C1B2C0
:1034A000A26A501CA062117007E02068406800F01A
:1034B0007F01A26A501CA0621170E08D401E80B294
:1034C000E08508BB2068C06820F020002168C86043
:1034D00094F83900322803D1122084F839000EE024
:1034E0002068C06820F480702168C8602068406946
:1034F00020F0010021684861012084F8390020464D
:10350000FFF7DEFA002070BD0020FCE70220FAE79A
:103510002DE9F041044600252068006920F4405060
:10352000E1680843216808612169A068084361696E
:1035300040EA01052068C06841F20C6188432843D5
:103540002168C8602068406920F44070A169084380
:10355000216848615F49206888425CD1FEF7BCFA67
:1035600000EBC00101EB001061688900B0FBF1F6CF
:10357000FEF7B2FA00EBC00101EB001061688900B0
:10358000B0FBF1F06421B0FBF1F000EBC00101EB06
:103590000010A6EB8000322101EB00106421B0FB8B
:1035A000F1F000F0F006FEF797FA00EBC00101EB36
:1035B000001061688900B0FBF1F06421B0FBF1F00C
:1035C00006EB0016FEF788FA00EBC00101EB0010D5
:1035D00061688900B0FBF1F7FEF77EFA00EBC001ED
:1035E00001EB001061688900B0FBF1F06421B0FBD1
:1035F000F1F000EBC00101EB0010A7EB80003221DD
:1036000001EB00106421B0FBF1F000F00F0030443A
:10361000216888605BE0FEF749FA00EBC00101EB2E
:10362000001061688900B0FBF1F6FEF73FFA00EB8D
:10363000C00101EB001061688900B0FBF1F064216A
:10364000B0FBF1F000EBC00101EB0010A6EB800035
:10365000322101EB00106421B0FBF1F000F0F00624
:10366000FEF724FA00EBC00101EB0010616889004D
:10367000B0FBF1F06421B0FBF1F006EB0016FEF7B1
:1036800015FA00EBC00101EB001061688900B0FB86
:10369000F1F7FEF70BFA00EBC00101EB00106168D7
:1036A0008900B0FBF1F06421B0FBF1F000EBC00148
:1036B00001EB0010A7EB8000322101EB0010642128
:1036C000B0FBF1F000F00F00304421688860BDE8E5
:1036D000F08100000038014010B50146002391F848
:1036E0003930122B01D0322B2CD18868B0F5805F95
:1036F0000FD10A6A1088C0F308000C68606008697E
:1037000018B9086A801C086209E0086A401C08624F
:1037100005E00C6A601C086220780C686060C88C48
:10372000401E80B2C88458B90868C06820F0800084
:103730000C68E0600868C06840F040000C68E06019
:10374000002010BD0220FCE710B50548FFF752FE2F
:1037500000B110BD0348FFF7D5F800BFF9E700003E
:10376000003801400C02002000BFFEE702E008C85C
:10377000121F08C1002AFAD170477047002001E0EB
:1037800001C1121F002AFBD17047000010B50024B0
:1037900006480078012806D10548006880470020C7
:1037A0000249087000E00624204610BD26000020D3
:1037B0002C0000202DE9F05F06460D464FF0000B6F
:1037C0002888052848D170784FEA0029B07840EA67
:1037D000090909F101001FFA80F9F0780402307933
:1037E0000443012C35DBB4F5FA6F32DA374600209A
:1037F0002880012007F8010B2888401C288004F04D
:10380000070040B12046E11704EB5171C910491C73
:1038100001F0FF0805E02046E11704EB5171C1F308
:10382000C70807F8018B2888401C288000232246FF
:103830004946384600F018FC8246BAF1000F04D021
:10384000504600F006FF834608E028884044288060
:1038500004E04FF0030B01E04FF0030B5846BDE8C6
:10386000F09F2DE9F05F06460D464FF0000B2888CB
:10387000052847D170784FEA0029B07840EA090955
:1038800009F101001FFA80F9F0780402307904434D
:10389000012C34DBB4F5FA6F31DA3746002028808A
:1038A000022007F8010B2888401C288004F007003C
:1038B00040B12046E11704EB5171C910491C01F0D9
:1038C000FF0805E02046E11704EB5171C1F3C7087A
:1038D00007F8018B2888401C288022464946384634
:1038E00000F0C6FB8246BAF1000F04D0504600F04B
:1038F000B0FE834608E028884044288004E04FF06A
:10390000030B01E04FF0030B5846BDE8F09F2DE993
:10391000F04705460C464FF0000A2088052837D1AD
:1039200068784FEA0028A87840EA080808F1010002
:103930001FFA80F8E87806022E79012E25DB7D2E0D
:1039400023DC2F4600202080032007F8010B20886D
:10395000401C20807006000E07F8010B2088401CD8
:103960002080002332464146384600F085FB8146E0
:10397000B9F1000F04D0484600F06BFE824609E022
:10398000208800EB4600208004E04FF0030A01E0AD
:103990004FF0030A5046BDE8F0872DE9F047054691
:1039A0000C464FF0000A2088052837D168784FEA86
:1039B0000028A87840EA080808F101001FFA80F8FA
:1039C000E878060228790643012E24DB7D2E22DAD0
:1039D0002F4600202080042007F8010B2088401C7F
:1039E00020807006000E07F8010B2088401C208004
:1039F00032464146384600F049FC8146B9F1000F95
:103A000004D0484600F025FE824609E0208800EBFD
:103A10004600208004E04FF0030A01E04FF0030A63
:103A20005046BDE8F0872DE9FC5F04460D460020B6
:103A3000009028880A285DDB60784FEA002AA07889
:103A400040EA0A0A0AF101001FFA80FAE078060249
:103A50002079064360794FEA002BA07940EA0B0BEE
:103A60000BF101001FFA80FBE0790702207A07437F
:103A7000607A0190012E3BDB7D2E39DC012F37DB94
:103A8000792F35DC79000198814231D101233A4602
:103A9000594604F10A0000F0EFFA8146B9F1000F2F
:103AA0001ED1A04600202880172008F8010B288886
:103AB000401C28807006000E08F8010B2888401C66
:103AC0002880002332465146404600F0D5FA814610
:103AD000B9F1000F04D12888022101FB06002880DB
:103AE000B9F1000F06D0484600F0B3FD009001E0A8
:103AF000032000900098BDE8FC9F000070B50546CB
:103B00000C46064802880649681CFCF777FB034808
:103B10000088401C2080002070BD00001C00002098
:103B20007C0300202DE9F84304460F464FF00008BF
:103B30003888052829D160780502A0780543681CDB
:103B400085B22079F0B9E078FF2801D0E078C8B9D3
:103B500000208DF80100E078FF2803D101208DF8C6
:103B6000000002E000208DF8000001231A462946DB
:103B7000684600F079FA06464EB1304600F069FD1D
:103B8000804604E04FF0030801E04FF00308404690
:103B9000BDE8F8832DE9F04104460F464FF00008D8
:103BA0003888052812D160780502A0780543681C82
:103BB00085B201231A462946E01C00F05DFA06464C
:103BC00036B1304600F045FD804601E04FF0030875
:103BD0004046BDE8F0812DE9F05F05460E464FF006
:103BE000000B3088052839DD68780702A87807437C
:103BF000781C87B2E87804022879044395F805A078
:103C000004F0070040B12046E11704EB5171C910E0
:103C1000491C01F0FF0805E02046E11704EB517153
:103C2000C1F3C708012C16DBB4F5F66F13DCD045E1
:103C300011D1012322463946A81D00F015FA81460C
:103C4000B9F1000F04D0484600F003FD834607E0B9
:103C50000520308004E04FF0030B01E04FF0030B30
:103C60005846BDE8F09F2DE9F04704460E464FF058
:103C7000000A3088062828DB60780702A07807430E
:103C8000781C87B2E07805022079054394F8059006
:103C9000012D17DB782D15DC6806000E484511D183
:103CA00001232A463946A01D00F0E6F98046B8F106
:103CB000000F04D0404600F0CCFC824607E005200F
:103CC000308004E04FF0030A01E04FF0030A504651
:103CD000BDE8F0872DE9F04705460C4616461F461D
:103CE000DDF820904FF000081CB1012C01DBF72C0F
:103CF00002DD4FF0020835E01C48047005BB1C488B
:103D00001C4908601C481D4908601D481D49086081
:103D10001D481E49086000201D4908601D481E49B5
:103D200008601E481E4908601E481F4908604B462F
:103D30003A4631460D48007800F0D8F8804602E057
:103D40004FF0020800BF00BFB8F1000F0AD100F029
:103D5000A1FF10B94FF0030804E0144805700120DA
:103D6000134908704046BDE8F08700002400002099
:103D70002D4000082C000020514000083000002099
:103D80009D3F000828000020453F00083400002027
:103D900038000020794D00083C000020414E00080A
:103DA00040000020014E00084400002025000020B3
:103DB0002600002038B500254148007808B10620CB
:103DC00038BD684600F054FF012877D19DF8000007
:103DD00030B1012805D0022818D003286DD16BE03E
:103DE0006BE0384A38493948394B1B6898470546D3
:103DF0005DB93648007837490978884202D033489F
:103E0000007810B9022000F04DFF56E02E480068FF
:103E1000007831490870012030490870002417E00B
:103E20002F4810F8340000B914E02D4810F8340081
:103E30002949097888420AD1294800EBC400214960
:103E400042682148006890472449087002E0641CD9
:103E5000102CE5DB00BF1D48007858B31F480078E0
:103E6000C8B10020174908801B48007840F0800145
:103E7000144802880088401C124B188012480068C1
:103E8000815416480278184601880088401C188022
:103E90000D480068425413480078012800D100BF43
:103EA00008480288084801680A4800780E4B1B68D9
:103EB0009847054601E001E000BF00BF00207FE712
:103EC00026000020D6000020D0000020D4000020D2
:103ED0003400002024000020D5000020D80000205D
:103EE0005000002025000020280000202DE9F04788
:103EF00081460E4614461F464FF00008FCF7BEFBF5
:103F00003B4608222146304600F0E2FE012802D05E
:103F10004FF003080FE0B4F5964F01D9232503E0D5
:103F200060000749B1FBF0F5A8B200F0F7FE0128E8
:103F300001D04FF00308FCF7A3FB4046BDE8F08733
:103F4000A07F17002DE9F04104460D4616464FF0BC
:103F500000080027FCF792FB0E480088042812DBBB
:103F60000C4801880C4800F0F1FB60B90A48007861
:103F7000207008480088C01E30800748401C286018
:103F80004FF0010800E00527FCF77AFB3846BDE852
:103F9000F08100001A0000207C0200202DE9F04191
:103FA00005460E4617464FF00008FCF767FB1A4817
:103FB0000078012829D1701E18490860012018498D
:103FC0000880164800680570084600883844088054
:103FD000084601881148006800F0B8FB0446104903
:103FE0000888411C0E4B19800E490C5422121946A8
:103FF0000888411C19800B490A5401200A4908709D
:104000000121002000F008FC01E04FF00508FCF75A
:1040100037FB4046BDE8F08111000020140000206D
:10402000180000207C0200201000002010B5FCF7D2
:1040300025FB0020054908700021012000F0ECFB61
:1040400000F024FCFCF71CFB10BD00001100002058
:1040500010B5FCF713FB0021084600F0DDFB00F073
:1040600005FCFCF70DFB10BD10B50446012010BD8A
:1040700003460120704700002DE9F04705460F4632
:10408000164698464FF00009B7F5FA6F70DDB8197B
:1040900040F2E17188426BDC764800883C1AB8F146
:1040A000000F03D0B8F1010F4FD14FE080217248CB
:1040B000FDF724F97149088040216F48FDF71EF98A
:1040C0006E49488020216C48FDF718F96B498880BB
:1040D00010216948FDF712F96849C880082166482F
:1040E000FDF70CF96549088104216548FDF706F9DB
:1040F000624948814FF480516248FDF7FFF85F49FB
:1041000088814FF400615F48FDF7F8F85B49C8818A
:104110005D48007808825C48407848825A48807838
:1041200088825948C078C8820DE0544830F814009D
:10413000001205F8010B514810F8140005F8010BA6
:10414000641C701E86B2002EEFDC8DE088E015F84E
:10415000011B0802494921F8140015F8010B31F838
:1041600014100843454921F814000C2C74D200E0C7
:104170007BE0DFE804F006101A242E3842714D5619
:104180005F683E4810F8140000F0010280213A48B0
:10419000FDF7BCF860E0394810F8140000F00102A7
:1041A00040213548FDF7B2F856E0344810F81400C5
:1041B00000F0010220213048FDF7A8F84CE02F481C
:1041C00010F8140000F0010210212B48FDF79EF8B2
:1041D00042E02A4810F8140000F0010208212648A5
:1041E000FDF794F838E0254810F8140000F00102BB
:1041F00004212348FDF78AF82EE0204810F8140027
:1042000000F001024FF480511E48FDF77FF823E0D3
:104210001A4810F8140000F07F010020FCF70AFA99
:104220001AE0164810F8140000F07F010120FCF796
:1042300001FA11E0114810F8140000F07F0102208B
:10424000FCF7F8F908E00D4810F8140000F07F01C1
:104250000320FCF7EFF900BF00BF641C701E86B29C
:10426000002E3FF774AF00BF01E04FF00109484650
:10427000BDE8F08720000020000C0140BC030020B6
:1042800000140140001001400C0000202DE9F04115
:1042900004460D4616464FF00008B5F57A7F1EDD40
:1042A000A81940F2F931884219DC0F4800882F1A0A
:1042B00020220E490E48FBF7A1FF0DE00C4830F814
:1042C0001700001204F8010B094810F8170004F851
:1042D000010B7F1C701E86B2002EEFDC01E04FF058
:1042E00001084046BDE8F0811E0000204C0200207D
:1042F0009C03002086B0FDF73FF9FEF75CFFFEF758
:1043000023FEFEF707FEFEF78DFDFEF7E5FEFEF746
:10431000B5FEFEF795FEFCF777F9FCF7C5F8FEF75A
:10432000F9FE1422064901A8FBF768FF002101A845
:1043300000F02AF80349086000F019F800BFFEE712
:10434000B85600080000002001460020842901D052
:10435000CA1C1044704770B5044625460DB1294665
:1043600000E00121084600F02BFB002070BD10B5D5
:1043700000F006FC002010BD10B501F035F8012852
:1043800001D000F0E3FD10BD70B586B004460D46C7
:10439000B4F90800FFF7D8FF0646002005AACDE9CA
:1043A000012000960390238A9AB22B46D4E900108C
:1043B00000F07EFF012802D0002006B070BD0598F5
:1043C000FBE7000010B504460E48006844600E4844
:1043D0000068844207D20B480168091D0B48006839
:1043E00000F0F4F90CE007480168091D084800686E
:1043F00000F0ECF907480068844201D205480460E7
:1044000010BD0000EC000020FC000020F4000020A3
:10441000F0000020180100202DE9F04105460F466C
:104420001FB9A80000F03AF900E03846064656B138
:104430005C2000F033F904460CB1266304E03046FA
:1044400000F068FA00E0002424B1A900A522206B46
:10445000FBF7E6FE2046BDE8F081704770B50446E4
:104460000D46206C70B1216CE0680844E060616822
:10447000E068884201D32068E0602846226CE16849
:10448000FBF7BCFE70BD000000BFFFF7E6FF03486E
:1044900000680128F9D900F087FAF6E7DC1300205C
:1044A0002DE9F04704460F4615469946DDF8208071
:1044B000002607E0B95D04F134008155B85D00B90C
:1044C00002E0761C102EF5D300BF002143200155D9
:1044D000072D00D30625E562E56400202065201D38
:1044E00000F071F904F1180000F06DF92461C5F1D4
:1044F0000700A06164620020606584F85800BDE890
:10450000F087000010B5002407E004EB84010D4A99
:1045100002EB810000F04AF9641C072CF5D30A482D
:1045200000F044F9094800F041F9094800F03EF96B
:10453000084800F03BF90448074908600348074968
:10454000086010BDDC130020681400207C140020DB
:1045500090140020A4140020F0000020F40000209B
:1045600070B5054600F09EF9A86B08B9012400E07B
:10457000002400F0B9F9204670BD00000A4909681E
:10458000096809B9012100E0002121B14FF0FF3194
:10459000064A116006E004490968C968C868034A08
:1045A0004168116070470000F000002018010020F1
:1045B00007480068401C08B9012000E0002018B935
:1045C000FBF7FCFD00BFFEE7FBF7F8FD00BFFEE7D1
:1045D0002001002010B5044600F064F911E0606A83
:1045E00008B9012000E0002038B904F1240000F0EF
:1045F000A9FF18B100F01CFA00E005E0A06C401E15
:10460000A064A06C0028EADC00BF4FF0FF30A0647B
:1046100000F06AF900F046F911E0206908B90120BC
:1046200000E0002050B904F1100000F08BFF08B149
:1046300000F0FEF9606C401E606400E002E0606C17
:104640000028EADC00BF4FF0FF30606400F04CF956
:1046500010BD014621B1012904D0072906D103E08C
:10466000002005E0022003E0062001E0042000BF56
:1046700000BF704710B50024064800688047044614
:104680000CB1012000E0002018B14FF08050024929
:10469000086010BD4400002004ED00E070B5044641
:1046A000002504F0070020B104F00700C0F1080065
:1046B000044400F095FA1248006820B9114820F02F
:1046C00007000F49086010480068204440F6F87160
:1046D000884210D20C48006820440B49096888427F
:1046E00009D907480068084909684518064800685C
:1046F00020440549086000F06BFF284670BD0000AB
:10470000E8000020E4030020E400002006480068E0
:1047100030B10549096801F15000096D491C01607B
:104720000148006870470000EC000020001F4FF0B7
:1047300080730360001F0160001F034B0360143887
:104740000260203870470000B145000870B502468D
:104750000C46FF25FF2309E012F8010B80EA030154
:104760000648405C80EA05030548455C201EA4F12C
:104770000106B4B2F0D143EA052070BDCC56000862
:10478000CC57000801460A69D1E901309860D1E9A7
:10479000010358605068884201D188685060002049
:1047A00008611068401E10601068704700F1080131
:1047B00041604FF0FF31816000F10801C16001618B
:1047C00000210160704700210161704710B5024669
:1047D0000B685C1C0CB9106907E002F1080000E0EE
:1047E0004068446824689C42FAD944684C604C682C
:1047F000A160886041600A611468641C146010BD87
:1048000042684A6093688B60936859609160086160
:1048100003685B1C03607047012808D1124A1268C4
:10482000D26842F02002104B1B68DA6007E00E4AA3
:104830001268D26822F020020B4B1B68DA60012953
:1048400008D1094A1268D26842F08002064B1B6800
:10485000DA6007E0044A1268D26822F08002024B54
:104860001B68DA60704700000C02002010B5064893
:10487000FDF7B5FE0020044909684862801E024920
:104880000968086110BD0000D001002010B50020AB
:104890000349096848620248FDF776FE10BD000032
:1048A000D001002010B5FBF789FC0D480068401CC2
:1048B0000B490860BFF34F8FBFF36F8F0846006846
:1048C00001280BD107480068C0B208B9012000E0F8
:1048D000002018B9FBF772FC00BFFEE710BD000016
:1048E0002001002004ED00E010B50948006818B967
:1048F000FBF764FC00BFFEE705480068401E044962
:1049000008600846006810B90020FBF75EFC10BD87
:104910002001002010B504460CB9012000E0002061
:1049200018B9FBF74BFC00BFFEE710BD0648006856
:104930004FF47A71B0FBF1F0401E4FF0E021486176
:104940000720086170470000E000002070B5FBF709
:104950003FFC0546102D0FD305F1E02090F8F04301
:104960000E480078844201DB012000E0002018B9E5
:10497000FBF724FC00BFFEE70948006800F4E06094
:1049800008490968884201D8012000E0002018B9D0
:10499000FBF714FC00BFFEE770BD000024010020FF
:1049A0000CED00E0280100204FF080500349086022
:1049B000BFF34F8FBFF36F8F7047000004ED00E02F
:1049C00070B50446002634B31548006808B90120C4
:1049D00000E0002018B9FBF7F1FB00BFFEE700F094
:1049E000FFF81048006805190F480068001DFFF720
:1049F000C9FE50B90C48006890F82C10012088407E
:104A00000A4909688143094801602846FFF7DAFC32
:104A100000F0DEFD06460EB9FFF7C6FF70BD0000D0
:104A20001C010020FC000020EC0000200001002000
:104A300001200149086070470C01002070B505464F
:104A40000C461DB9FBF7BAFB00BFFEE7134801682F
:104A500018312846FFF7BAFE10480068001DFFF71E
:104A600091FE50B90D48006890F82C100120884044
:104A70000B49096881430A480160601C30B9074846
:104A80000168091D0748FFF7BBFE05E006480068FE
:104A900006193046FFF796FC70BD0000EC000020C0
:104AA00000010020A4140020FC00002070B5054681
:104AB0002C46002D4BD02649E06A0968C96A884215
:104AC00045D2A06900F0004028B921480068C06ABA
:104AD000C0F10700A061E16A01EB81011D4A02EB10
:104AE00081016069884201D1012000E0002050B3BB
:104AF000201DFFF747FE78B9E06A00EB80001549FA
:104B000051F8200040B994F82C1001208840124937
:104B100009688143104801600D480068C06AE0627E
:104B200094F82C10012088400B49096808430A4971
:104B30000860E16A01EB8101064A02EB8100211D58
:104B4000FFF75EFE03E002480068C06AE06270BDE5
:104B5000EC000020DC1300200001002010B504460A
:104B60001CB9FBF72BFB00BFFEE703480068206081
:104B700002480068606010BD10010020FC000020A9
:104B80001FB50020009001900290034680220EA1E4
:104B900003900F4800F08CFB0446012C0DD1FBF76D
:104BA0000DFBA01E0B49086001200B490860002086
:104BB0000A49086000F07AF904E01CB9FBF7FEFA34
:104BC00000BFFEE71FBD000049444C450000000047
:104BD000894400081801002004010020FC00002086
:104BE00002480068401C0149086070471C01002011
:104BF00010B51A48006818B10120194908602BE067
:104C000000201749086017480068B0FA80F0C0F12A
:104C10001F0404EB8400144951F8200008B101205E
:104C200000E0002018B9FBF7C9FA00BFFEE704EB6B
:104C300084010D4A02EB810041684968416000F13E
:104C4000080142688A4202D141684968416041686E
:104C5000C968064A116000BF10BD00001C01002099
:104C60000C01002000010020DC130020EC000020DB
:104C700001460020054A127832B1054A12780A70BE
:104C80000022024B1A700120704700002300002010
:104C90002200002000200249087001207047000017
:104CA0002300002001460120024A107002480170D2
:104CB0000120704723000020220000200146034805
:104CC0000068406808700120704700000C02002056
:104CD0002DE9F04106460C4617461D4609480A498B
:104CE00008600846446000218160C16005610C21B4
:104CF000416100218161C161FDF771FE0120BDE8C4
:104D0000F0810000003801400C02002001460248FA
:104D100000684160012070470C02002010B586B089
:104D200004461348FDF73FFC124811490860002073
:104D3000486000210E4881604FF4966060430C4942
:104D4000C86000210A480161FDF7E1FB4FF4805083
:104D5000029002A90648FDF75EFC00200090019039
:104D600069460348FDF7A2FB012006B010BD000014
:104D7000D00100200008004038B500246846FFF745
:104D80009DFF1C48007830B101280AD0022819D0B4
:104D900003282BD102E0FFF779FD27E0FFF776FD2E
:104DA00024E00020144908809DF800200888411C58
:104DB000114B198011490A5402200E490870FFF75F
:104DC00065FD13E00C480088FF2809DC9DF80020F1
:104DD00009490888411C084B198008490A5402E017
:104DE000032004490870FFF751FD00BF00BF2046B3
:104DF00038BD0000110000201A0000207C020020B5
:104E000010B500240D48007820B1022807D00328EF
:104E10000BD109E00020FFF745FF044605E0012023
:104E2000FFF740FF044600E000BF00BFFFF71EFD94
:104E3000012002490870204610BD0000110000202A
:104E400010B500241648007810B1012824D104E0E0
:104E500000210120FFF7E0FC1EE01248008878B135
:104E6000114909680878FFF751FF0F480068401C96
:104E70000D4908600B480088401E0A4908800AE076
:104E80000320FFF70FFF044600210120FFF7C4FCB9
:104E900000200349087000BF00BF204610BD00007D
:104EA0001000002018000020140000201CB522482B
:104EB000014609780191FF210246117001460978E7
:104EC00000919DF8001001F050011C4A117007215B
:104ED0001B4A116009E01A490968491E184A116005
:104EE0009DF800104906090E00919DF8001001F090
:104EF00080018029EFD0124909680902104A116027
:104F00001146098801F4E06111600B4A01991170A2
:104F10000C48006840F470000A49086008460068C0
:104F200040F070400860FFF701FD0020064908606E
:104F3000FBF712F900201CBD00E400E02401002072
:104F40002801002020ED00E02001002010B5FBF733
:104F500035F900F059FA18B14FF080500249086055
:104F60000020FBF732F910BD04ED00E02DE9F04719
:104F700006460D4690464FF000090EB1012000E0B4
:104F8000002018B9FBF71AF900BFFEE70DB900279A
:104F900002E006FB05F0471C07F15400FFF77EFB1B
:104FA000044674B10DB9246002E004F1540020609D
:104FB000E66325640121204600F0BAF884F85080A9
:104FC000A146B9F1000F03D1FBF7F8F800BFFEE7E7
:104FD0004846BDE8F0872DE9FF4383B005460E46FD
:104FE0001F464FF000092C461CB9FBF7E7F800BF3D
:104FF000FEE70EB9206C08B9012000E0002018B9C6
:10500000FBF7DCF800BFFEE700F0EEF908B9059801
:1050100008B9012000E0002018B9FBF7CFF800BF65
:10502000FEE700BFFFF73EFCA06B90B3D4F80C8006
:1050300031462046FFF712FAB7B9A06B401EA063B5
:10504000206810B9FFF762FB6060206908B9012091
:1050500000E00020B8B904F1100000F073FA012854
:1050600011D1FFF7A1FC0EE0C4F80C80606A08B90A
:10507000012000E0002030B904F1240000F062FAC1
:1050800008B1FFF791FCFFF72FFC012007B0BDE846
:10509000F083FFE7059818B9FFF726FC0020F5E735
:1050A000B9F1000F04D101A8FFF758FD4FF0010935
:1050B000FFF71AFCFFF794FDFFF7F4FB606C401C50
:1050C00008B900206064A06C401C08B90020A064EE
:1050D000FFF70AFC05A901A800F0B0F808BB2046BC
:1050E000FFF73EFAB8B1206830B9FFF7DBFB606824
:1050F000FFF7DCFCFFF7F8FB04F124000599FFF74C
:105100009DFC2046FFF766FA00F062FA002889D17C
:10511000FFF74AFC86E72046FFF75CFA00F058FAF2
:1051200080E72046FFF756FA00F052FA0020ADE77C
:1051300070B505460E462C461CB9FBF73FF800BF7C
:10514000FEE7FFF7AFFBD4E90F12206801FB020076
:1051500060600020A0632068A060E06B401E226CAD
:10516000216800FB0210E0604FF0FF306064A06433
:1051700076B9206908B9012000E0002080B904F167
:10518000100000F0DFF901280AD1FFF70DFC07E05D
:1051900004F11000FFF70AFB04F12400FFF706FBFF
:1051A000FFF7A2FB012070BD2DE9F04105460E4638
:1051B0002C461CB9FBF702F800BFFEE7206C08B9CB
:1051C000012000E0002018B9FAF7F8FF00BFFEE761
:1051D000206808B9606808B9012000E0002018B90B
:1051E000FAF7ECFF00BFFEE7FFF7B0FBFAF7E6FFC8
:1051F0008046A06BE16B884219D2A06B401CA06373
:10520000A06C401C70B9606A08B9012000E0002061
:1052100058B904F1240000F095F930B12EB1012005
:10522000306002E0A06C401CA064012700E0002771
:105230004046FAF7CAFF3846BDE8F0812DE9F04153
:1052400004460D461CB9FAF7B9FF00BFFEE71DB9C9
:10525000FAF7B4FF00BFFEE7FFF724FB1248076828
:105260002868401C08B9002619E010492068096820
:10527000884204D06068B84201D801260FE0606817
:10528000381A2968884209D228686168791A401A50
:1052900028602046FFF762FC002600E00126FFF7A9
:1052A00023FB3046BDE8F081FC0000201001002007
:1052B0002DE9FF4F81B0804616469A46DDE90E5B28
:1052C000B8F1000F03D1FAF779FF00BFFEE7072D11
:1052D00001D2012000E0002018B9FAF76FFF00BFEB
:1052E000FEE730461099FFF797F80446002C5DD092
:1052F000701E216B01EB800929F0070909F00700F6
:1053000008B9012000E0002018B9FAF757FF00BFE4
:10531000FEE700962A462046119B0299FFF7C0F847
:10532000524641464846FFF701FA2060BBF1000FA4
:1053300001D0CBF80040FFF7B5FA25480068401CC3
:10534000234908602348006840B9224804600846A1
:10535000006801280CD1FFF7D5F809E01E48006865
:1053600030B91C480068C06AA84201D819480460D6
:105370001A480068401C19490860084600686064C3
:1053800094F82C10012088401549096808431449F5
:105390000860E16A01EB8101124A02EB8100211DE4
:1053A000FFF72EFA0127FFF79FFA01E04FF0FF37D2
:1053B000012F09D10848006830B106480068C06A6A
:1053C000A84201D2FFF7F0FA384605B0BDE8F08FE9
:1053D000F8000020EC00002004010020140100204F
:1053E00000010020DC1300200549096809B90120EB
:1053F00005E00449096809B9022000E0002070476F
:10540000040100201C0100202DE9F0414FF00008AC
:1054100041480068002872D140480068401C3F495C
:10542000086008460668DEB93D480068006808B9AB
:10543000012000E0002018B9FAF7C0FE00BFFEE727
:1054400037480768374800683549086035480760BD
:1054500035480068401C34490860FFF78FF800BFEA
:105460003248006886423CD300BF2D48006800687F
:1054700008B9012000E0002020B14FF0FF302B4997
:1054800008602DE026480068C068C4686568AE42C0
:1054900002D22648056023E0201DFFF773F9A06AB9
:1054A00018B104F11800FFF76DF994F82C100120E1
:1054B00088401F49096808431D490860E16A01EBFB
:1054C00081011C4A02EB8100211DFFF799F91A495D
:1054D000E06A0968C96A8842C7D34FF00108C4E787
:1054E00000BF15480068C06A00EB8000114951F800
:1054F0002000012808D94FF0010805E0FFE70F4818
:105500000068401C0D4908600D48006808B14FF064
:1055100001084046BDE8F0811C010020FC0000208D
:10552000F0000020F40000201001002018010020ED
:1055300000010020DC130020EC0000200801002006
:105540000C01002070B50646F068C4681CB9FAF773
:1055500035FE00BFFEE704F11800FFF713F9164807
:105560000068A8B9201DFFF70DF994F82C10012050
:10557000884012490968084310490860E16A01EB54
:1055800081010F4A02EB8100211DFFF739F904E088
:1055900004F118010B48FFF733F90B49E06A096879
:1055A000C96A884204D9012501200849086000E041
:1055B0000025284670BD00001C01002000010020CD
:1055C000DC13002090140020EC0000200C010020CF
:1055D00070B500253048006818B9FAF7EFFD00BF34
:1055E000FEE7FFF75FF92C480068401E2A49086073
:1055F0000846006800284BD128480068002847D09A
:1056000024E02748C068C46804F11800FFF7BAF81E
:10561000201DFFF7B7F894F82C100120884021498D
:10562000096808431F490860E16A01EB81011E4ACD
:1056300002EB8100211DFFF7E3F81C49E06A0968CD
:10564000C96A884202D301201949086014480068D9
:1056500008B9012000E000200028D2D015480068D9
:1056600078B10AE0FFF7D0FE10B1012010490860C0
:1056700010480068401E0F4908600E480068002866
:10568000F0D10B480068012802D10125FFF78CF901
:10569000FFF72AF9284670BD1C010020F800002001
:1056A0009014002000010020DC130020EC000020FA
:1056B0000C01002008010020E45800089D3100087A
:1056C00003000000000000008000000000C18140D5
:1056D00001C0804101C0804100C1814001C08041C2
:1056E00000C1814000C1814001C0804101C08041B2
:1056F00000C1814000C1814001C0804100C18140A2
:1057000001C0804101C0804100C1814001C0804191
:1057100000C1814000C1814001C0804100C1814081
:1057200001C0804101C0804100C1814000C1814071
:1057300001C0804101C0804100C1814001C0804161
:1057400000C1814000C1814001C0804101C0804151
:1057500000C1814000C1814001C0804100C1814041
:1057600001C0804101C0804100C1814000C1814031
:1057700001C0804101C0804100C1814001C0804121
:1057800000C1814000C1814001C0804100C1814011
:1057900001C0804101C0804100C1814001C0804101
:1057A00000C1814000C1814001C0804101C08041F1
:1057B00000C1814000C1814001C0804100C18140E1
:1057C00001C0804101C0804100C1814000C0C101D1
:1057D000C30302C2C60607C705C5C404CC0C0DCD61
:1057E0000FCFCE0E0ACACB0BC90908C8D81819D9D1
:1057F0001BDBDA1A1EDEDF1FDD1D1CDC14D4D51501
:10580000D71716D6D21213D311D1D010F03031F1F0
:1058100033F3F23236F6F737F53534F43CFCFD3D20
:10582000FF3F3EFEFA3A3BFB39F9F83828E8E92910
:10583000EB2B2AEAEE2E2FEF2DEDEC2CE42425E5C0
:1058400027E7E62622E2E323E12120E0A06061A130
:1058500063A3A26266A6A767A56564A46CACAD6DE0
:10586000AF6F6EAEAA6A6BAB69A9A86878B8B97950
:10587000BB7B7ABABE7E7FBF7DBDBC7CB47475B580
:1058800077B7B67672B2B373B17170B05090915170
:105890009353529296565797559594549C5C5D9DA0
:1058A0005F9F9E5E5A9A9B5B995958988848498990
:1058B0004B8B8A4A4E8E8F4F8D4D4C8C4484854540
:1058C0008747468682424383418180400000000032
:1058D00000000000010203040607080900000000A0
:1058E0000102030464656661756C745461736B0036
:1058F00010590008000000202C010000E002000800
:10590000605900082C0100208C1700007C3700082B
:10591000011E45E903D107022902321113FD3A3372
:105920000804139B393308031A0F08321013673C1D
:1059300033080613953B3308171A2728320113B58D
:10594000373308051A2518320F1AD708297213633E
:10595000380241082B366E6301391AAA0181000012
:0400000508000121CD
:00000001FF
