:020000040800F2
:10000000201A0020B90C00089D4900085F42000832
:100010004D4900081D160008E954000800000000C2
:10002000000000000000000000000000150C0008A7
:100030004117000800000000590C0008914E00080C
:10004000D30C0008D30C0008D30C0008D30C000814
:10005000D30C0008D30C0008D30C0008D30C000804
:10006000D30C0008D30C0008D30C0008F1160008CC
:10007000D30C0008D30C0008011700081117000862
:10008000D30C0008D30C0008D30C000800000000BB
:10009000000000000000000000000000D30C000879
:1000A000D30C0008D30C0008D30C0008D30C0008B4
:1000B000794F0008D30C0008894F0008D30C0008C2
:1000C000D30C0008D30C0008D30C0008D30C000894
:1000D000D30C0008A1540008D30C0008D30C00086E
:1000E000D30C0008D30C0008D30C0008000000005B
:1000F0000000000000000000000000000000000000
:1001000000000000000000000000000000000000EF
:100110000000000000000000D30C0008D30C000811
:020000040800F2
:1004000000000000000000000000000000000000EC
:1004100000000000000000000000000000000000DC
:1004200000000000000000000000000000000000CC
:1004300000000000000000000000000000000000BC
:0C044000000000000000000000000000B0
:020000040800F2
:1008000000000000000000000000000000000000E8
:1008100000000000000000000000000000000000D8
:1008200000000000000000000000000000000000C8
:1008300000000000000000000000000000000000B8
:0C084000000000000000000000000000AC
:020000040800F2
:100C0000DFF80CD000F0E8FB004800473163000833
:100C1000201A0020204B19680868B0E8F00F80F314
:100C20000988BFF36F8F4FF0000080F311884EF0FA
:100C30000D0E70470000000006480068006880F351
:100C4000088862B661B6BFF34F8FBFF36F8F00DFC6
:100C500000BF00BF08ED00E0EFF30980BFF36F8F26
:100C60000D4B1A6820E9F00F106008B54FF05000E6
:100C700080F3118806F08AF84FF0000080F31188A5
:100C8000BDE8084019680868B0E8F00F80F30988EB
:100C9000BFF36F8F704700BFF0000020EFF31180AB
:100CA0004FF0500181F31188704780F3118870472D
:100CB000EFF305807047000006488047064800476C
:100CC000FEE7FEE7FEE7FEE7FEE7FEE7FEE7FEE7FC
:100CD000FEE7FEE71D4F0008010C0008202A04DB98
:100CE000203A21FA02F00021704721FA02F3D040A5
:100CF000C2F12002914008431946704740EA0103BF
:100D00009B0703D009E008C9121F08C0042AFAD2C1
:100D100003E011F8013B00F8013B521EF9D2704785
:100D2000D2B201E000F8012B491EFBD2704700222D
:100D3000F6E710B513460A4604461946FFF7F0FFDA
:100D4000204610BD10B5002200E0521C835C8C5C74
:100D5000A34201D1002BF8D1D8B2E1B2401A10BDA4
:100D6000F0B480EA0102D40F4200B2EB410F02D28C
:100D70000246084611464A0042D0C30DDDB2C1F317
:100D8000C752AD1A202D35DAC1F3160141F4000225
:100D900004B15242C5F1200602FA06F12A4110447C
:100DA000B3EBD05F23D0C4B1012DA0EBC35009DC5D
:100DB000F0BC4FF0004202EAC352DBB200F5000083
:100DC00000F07EBA400000F1807000EBC350A0F14B
:100DD000807040EAD170490009E0490841EAC071D9
:100DE000A0EBC35000F50000400800EBC350F0BC7E
:100DF00000F05DBA6142012202EB4101001BF6E7FF
:100E0000F0BC704781F00041AAE780F00040A7E7FE
:100E100080EA010210B502F00043400022D04A00EF
:100E20001FD0010E01EB1261C0F35600C2F356024F
:100E300040F4000042F40002A0FB022000047F39CD
:100E4000140400D0401C50EA124001D44000491E56
:100E5000C2B20C0604EBD010401C4008802A02D01D
:100E600003E0002010BD20F00100002900DA00207E
:100E7000184310BD2DE9FE4F804681EA0300C00FE4
:100E80000C46009021F0004123F00045B8EB020031
:100E9000A94105D24046214690461C460B460246D3
:100EA00023F00040104347D0270DC7F30A00C3F3D7
:100EB0000A510290401A019040286BDAC3F31300E4
:100EC00040F4801B0098924620B10023D2EB030A25
:100ED00063EB0B0B01985946C0F14002504600F0FD
:100EE000C5F906460D4650465946019A00F0CDF91F
:100EF00010EB08006141002487EA115284EAE7738D
:100F00001A4340D0009A62B3019A012A4FEA07526D
:100F100015DC001B61EB02014FF0004202EA0752B0
:100F2000CDE90042001C41F5801132462B4600F00D
:100F300004FA03B0BDE8F08F40462146F9E7001BF4
:100F400061EB0201001C41F5801300185B41201881
:100F5000A2F5001747EB030140EAD570B6196D41C1
:100F600011E06D084FEA360645EAC0754FEA0752B0
:100F7000001B61EB0201001C41F5801149084FEA9A
:100F800030000019514132462B4603B0BDE8F04F06
:100F900000F0C4B90098012240000023D0EB020207
:100FA00063EBE073009821464FEAE074B8EB000071
:100FB00061EB0401E9E783F000435BE781F0004166
:100FC00058E72DE9FE4F81EA030404F0004421F0C4
:100FD000004100944FF0000B23F0004350EA01045D
:100FE0005ED052EA03045BD0C3F30A54C1F30A553E
:100FF0002C44A4F2F3340194A0FB0254C1F3130176
:1010000041F48011C3F3130343F4801301FB024442
:1010100000FB034E840A970A44EA815447EA835747
:10102000A4FB076802958D0A05FB07854FEA932C00
:1010300004FB0C542705029D4FEA065847EA163771
:10104000B5EB08056EEB070C870E920E47EA811789
:1010500042EA8312A7FB0201B6EB0B0164EB00042A
:101060002B0D43EA0C335E1844EB1C50DA46514614
:10107000E7FB0201C5F313044FEA0B3343EA1453B1
:101080004FEA0432019C43EA0603A4F10C040294E3
:10109000009CCDE900B400F050F903B0BDE8F08F3A
:1010A00000200146F9E72DE9F04D81EA030404F040
:1010B000004B21F0004514464FF0000A23F0004198
:1010C00050EA050220D054EA01021DD0C5F30A57A8
:1010D0000246C5F31303C1F31300C1F30A5640F4EB
:1010E000801543F48013A7EB0608101BD64608F2C0
:1010F000FD3873EB050002D308F1010801E09218F6
:101100005B41B8F1000F03DA00200146BDE8F08D25
:1011100000204FF48011064684460EE0171B73EB47
:10112000050705D3121B63EB050306434CEA010CCC
:1011300049084FEA300092185B4150EA0107EDD1AF
:1011400052EA030012D082EA040083EA0501084350
:1011500005D0101BAB4106D20122002306E000227D
:101160004FF0004302E06FF0010253101AEB06004B
:101170004CEB085110EB0A0041EB0B01BDE8F04DC0
:1011800000F0CCB896230022114600F099B820F068
:101190000040C10DC0F3160040F400007F2901DAC1
:1011A00000207047962903DCC1F19601C8407047C2
:1011B00096398840704700F0004230F000400AD075
:1011C000C10D01F56071C0F3160042EA0151C20879
:1011D00040071143704700200146704730B5041E98
:1011E00071F1000404DB4FF00044404264EB010164
:1011F000141E73F1000405DB1C464FF000435242FD
:1012000063EB0403994208BF904230BD01F00043F4
:1012100030B421F0004150EA010206D00A0DA2F5D7
:101220006072C1F31301002A02DC30BC0020704759
:10123000440F44EAC104C100E01830BC00EBC250C6
:1012400000F035B8002801DBC0F10040002901DBC7
:10125000C1F1004181427047002801DBC0F100402C
:10126000002901DBC1F1004188427047202A04DBDC
:10127000203A00FA02F1002070479140C2F12003A9
:1012800020FA03F3194390407047202A06DBCB175E
:10129000203A41FA02F043EAE07306E041FA02F331
:1012A000D040C2F1200291400843194670470029FE
:1012B000A8BF7047401C490008BF20F001007047DC
:1012C00010B4B0FA80FC00FA0CF050EA010404BF3C
:1012D00010BC704749B1CCF1200421FA04F411FA92
:1012E0000CF118BF012121430843A3EB0C01CB1DD6
:1012F0004FEA00614FEA102042BF002010BC704747
:1013000000EBC35010440029A4BF10BC7047401C20
:10131000490008BF20F0010010BC704710B5141E32
:1013200073F1000408DA401C41F1000192185B419E
:101330001A4301D120F0010010BD2DE9F04D924675
:101340009B4611B1B1FA81F202E0B0FA80F220328C
:101350009046FFF78BFF04460F4640EA0A0041EA39
:101360000B0153465A46084313D0114653EA010075
:1013700019D0C8F140025046FFF7B0FC05460E46B2
:10138000504659464246FFF771FF084305D00120F9
:1013900004E020463946BDE8F08D0020054346EACA
:1013A000E0762C4337430A986305E40AA0EB080073
:1013B0000022FD0A44EA47540A3002D500200146C3
:1013C000E9E7010510196941DDE90845001969419E
:1013D000BDE8F04DA2E70000064C074D06E0E068CE
:1013E00040F0010394E8070098471034AC42F6D36C
:1013F000FFF70AFCAC7B0008CC7B000870B58C18AA
:1014000010F8015B15F0070301D110F8013B2A1118
:1014100006D110F8012B03E010F8016B01F8016B05
:101420005B1EF9D12B0705D40023521E0DD401F801
:10143000013BFAE710F8013BCB1A921C03E013F8CA
:10144000015B01F8015B521EF9D5A142D8D30020FF
:1014500070BD70B5044600252068806800F001006A
:10146000F0B12068806820F001002168886001F0F8
:10147000B5F905460EE001F0B1F9401B022809D983
:10148000A06A40F01000A062E06A40F00100E06253
:10149000012070BD2068806800F001000028EAD1BA
:1014A0000020F6E770B505466C6AA06A00F05000AF
:1014B000E0B9A06A40F40070A0622068806800F47F
:1014C0006020B0F5602F0DD1E06858B9A06A20F413
:1014D0008070A062A06A00F4805018B9A06A40F041
:1014E0000100A062204600F067FB03E0206A016B68
:1014F0002846884770BD70B505466C6AA06A40F002
:101500004000A062E06A40F00400E062204600F083
:1015100055FB70BD70B50446656A284600F04DFB6A
:1015200070BD000038B504460025002000902068FA
:10153000806800F0010080BB2068806840F00100F6
:1015400021688860164800681649B0FBF1F00090E9
:1015500002E00098401E009000980028F9D101F0A8
:101560003DF9054613E001F039F9401B02280ED978
:10157000A06A40F01000A062E06A40F00100E06262
:1015800000BF002084F8240000BF012038BD20687F
:10159000806800F001000028E5D00020F6E7000098
:1015A000EC00002040420F0010B508220249034819
:1015B00000F008FC10BD0000180300204C010020C2
:1015C0002DE9F14F84B00498FFF7DCFD0021019074
:1015D000FFF718FC0290FFF7EEFD80460A4A0B4B1E
:1015E000FFF7EFFC06460022094BFFF75CFD0446BF
:1015F000084A094BFFF73EFC8246FFF707FE0390BF
:10160000039805B0BDE8F08F0AD7A3703D0AEF3FFD
:1016100000009C40B81E85EB51B89E3F00BFFEE71E
:1016200010B517A11948FFF78DFB18B917481849CD
:1016300008601DE012A11748FFF784FB18B9154890
:101640001349086014E014221049134800F08AF985
:10165000002802DA4FF0FF3010BD0E4800F0B8F855
:10166000002802DA4FF0FF30F6E708480849086022
:101670004C22074801680948FFF740FB0020EBE7D0
:101680004346475F534543544F520000000400084F
:1016900010000020000800084879000838030020E6
:1016A00010B50F4800680F49884201D10E4C00E088
:1016B0000C4C142221460D4800F054F9002802DA9F
:1016C0004FF0FF3010BD0648006800F081F8002898
:1016D00002DA4FF0FF30F5E7014804600020F1E73F
:1016E0001000002000040008000800083803002053
:1016F00010B5024800F014FC10BD00007C01002071
:1017000010B5024800F00CFC10BD0000E002002003
:1017100010B5024800F004FC10BD0000A802002033
:1017200010B5046863604468102C04D10468A2609A
:101730000468E16003E00468A1600468E26010BD31
:101740007047000010B500224FF48051074801F0A7
:101750003FF800224FF40051044801F039F800220C
:101760004FF48041014801F033F810BD000C0140F6
:1017700033B583B0044601259DF810000F49085584
:1017800004F00300001D02900A20012302AAE021B8
:1017900000900B4801F082F80546022D02D1284640
:1017A00005B030BD45B90A20012304AA5C21009090
:1017B000034801F073F805462846F1E700000020D1
:1017C000B401002072B6704762B6704700BFFEE7F2
:1017D00010B586B0044600200290039001200590C9
:1017E0000C48844202D10C48049002E04FF00820DB
:1017F000049000F049FE01A902A800F08BFD28B179
:1018000000F0E0FD4FF0FF3006B010BD00F0DAFD53
:101810000020F9E700040008000400080021074A3E
:10182000D1610749096941F00401054A1161114676
:10183000096941F040011161704700001005002066
:10184000002002400021074AD1610749096941F09F
:101850000201054A116111464861096941F04001E0
:101860001161704710050020002002400022054B46
:10187000DA61054A126942F00102034B1A610180E4
:101880007047000010050020002002401748C06883
:1018900000F0100028B11648C06940F00200144959
:1018A000C8611248C06800F0040028B11048C0693F
:1018B00040F001000E49C8610C48C06900F0010009
:1018C00068B10B48C06940F004000949C86100BF15
:1018D0000648C06920F001000449C86100BF00BF8C
:1018E00014200249C86000BF704700000020024079
:1018F0001005002070B5044600F070FF054609E0B1
:10190000601C38B124B100F069FF401BA04201D92E
:10191000032070BD1248C06800F001000028EFD11C
:101920000F48C06800F0200020B100BF20200C4903
:10193000C86000BF0A48C06800F0100048B90848F5
:10194000C06900F0010020B90548C06800F004003B
:1019500018B1FFF79BFF0120DBE70020D9E700006B
:1019600000200240F0B585B004460D461646002022
:1019700001900290012004901748854202D1174837
:10198000039002E04FF00820039000F07DFD6946CF
:1019900001A800F0BFFC28B100F014FD4FF0FF30AB
:1019A00005B0F0BD002710E0D4F800C06246002367
:1019B0002946022000F010FD20B100F003FD4FF099
:1019C000FF30EDE77F1C241D2D1DB742ECDB00F03E
:1019D000F9FC0020E4E7000000040008000400080F
:1019E00008B50090BDF800200A80BDF802204A80AA
:1019F00008BD000078B5024600230020009000BF1B
:101A000092F82400012801D1022078BD012082F83B
:101A1000240000BF486807281DD21068446B08796D
:101A2000401E4FF4787595FAA5F5B5FA85F568432B
:101A30001F25854024EA05000C79641E4FF4787652
:101A400096FAA6F6B6FA86F674430D68A5402843C2
:101A5000146860633DE048680D281DD21068046B6F
:101A60000879C01F4FF4787595FAA5F5B5FA85F594
:101A700068431F25854024EA05000C79E41F4FF4D4
:101A8000787696FAA6F6B6FA86F674430D68A540FF
:101A90002843146820631CE01068C46A08790D3874
:101AA0004FF4787595FAA5F5B5FA85F568431F25C5
:101AB000854024EA05000C790D3C4FF4787696FABF
:101AC000A6F6B6FA86F674430D68A5402843146856
:101AD000E06208680A281BD31068C46808780A38CE
:101AE000382595FAA5F5B5FA85F5684307258540AB
:101AF00024EA05000C780A3C382696FAA6F6B6FACF
:101B000086F674438D68A54028431468E06017E0AA
:101B1000106800690C78382595FAA5F5B5FA85F5B1
:101B20006C430725A540A8430D78382696FAA6F6FB
:101B3000B6FA86F675438C68AC4020431468206181
:101B40000868102802D00868112827D1174C10689F
:101B5000A0421ED11068806800F40000F0B910683F
:101B6000806840F400001468A0600868102815D14F
:101B70000F4800680F4CB0FBF4F000EB8000400011
:101B8000009002E00098401E009000980028F9D1D3
:101B900004E0906A40F020009062012300BF002022
:101BA00082F8240000BF18462FE7000000240140FF
:101BB000EC00002040420F00704770477047000063
:101BC0002DE9F0410446002700250026A84614B957
:101BD0000120BDE8F081A06810B1606900B100BFCC
:101BE000A06A30B90020E06284F82400204600F0AA
:101BF00099F82046FFF72DFC0746A06A00F0100078
:101C0000002876D1002FFCD1A06A20F4885040F043
:101C10000200A062E16960680843022292FAA2F21F
:101C2000B2FA82F2E168914008430643A068B0F539
:101C3000807F02D0A068012802D14FF4807000E0BC
:101C4000002005436069012816D1E06860B9A069E9
:101C5000401E4FF4604191FAA1F1B1FA81F1884040
:101C600040F40060054307E0A06A40F02000A06255
:101C7000E06A40F00100E0622068406820F46940BA
:101C80002843216848602068806824490840304320
:101C900021688860A068B0F5807F02D0A068012824
:101CA00002D14FF4807000E00020B0F5807F09D1B0
:101CB0002069401E4FF4700191FAA1F1B1FA81F14F
:101CC00000FA01F82068C06A20F4700040EA0800B9
:101CD0002168C8622068806811490840B04209D173
:101CE0000020E062A06A20F0020040F00100A06243
:101CF00011E00BE0A06A20F0020040F01000A062AA
:101D0000E06A40F00100E062012704E0A06A40F0D0
:101D10001000A062012738465BE70000FDF7E1FFF5
:101D2000FE0E1FFF10B586B0044620492068884289
:101D300039D100BF1E48806940F400701C49886199
:101D40000846806900F40070019000BF00BFFE20CB
:101D500002900320039002A9164800F0ABFB01207B
:101D600002900320039002A9134800F0A3FB13483C
:101D700013490860002048600021114881608021DB
:101D8000C160490001618900416120218161C9016F
:101D9000C16100F04DFA08B1FFF718FD00BF084817
:101DA0002062446200BF06B010BD00000024014064
:101DB0000010024000080140000C014008000240F1
:101DC0007C0100202DE9F04104460D46164600270F
:101DD00000BF94F82400012802D10220BDE8F08160
:101DE000012084F8240000BF2046FFF79BFB074634
:101DF000002F55D1A06A40F60161884340F48070FD
:101E0000A062A06A20F48010A0622068406800F4FC
:101E1000806028B1A06A20F4005040F48050A06295
:101E2000A06A00F4805020B1E06A20F00600E06271
:101E300001E00020E06200BF002084F8240000BF21
:101E40001B48216A88621B48216AC8621A48216AB5
:101E500008636FF00200216808602068806840F421
:101E6000807021688860226802F14C0133462A465E
:101E7000206A00F007FA2068806800F46020B0F55E
:101E8000602F06D12068806840F4A0002168886037
:101E90000BE02068806840F480102168886004E0CE
:101EA00000BF002084F8240000BF384696E70000F9
:101EB000A514000815150008F714000870B50446AD
:101EC00000252068006820F001002168086000F00B
:101ED00085FC054613E000F081FC401BB0F57A7FDD
:101EE0000DD9606B40F020006063032084F821006E
:101EF00000BF002084F8200000BF032070BD2068D0
:101F0000006800F001000028E5D1012084F82100DC
:101F100000BF002084F8200000BF00BFEEE70000F3
:101F200010B50446C1480068C04A08322168914291
:101F300001D1082127E0BD4A1C322168914201D11C
:101F4000802120E0B94A30322168914201D1C91480
:101F500019E0B64A44322168914202D14FF400415F
:101F600011E0B24A58322168914202D14FF4002167
:101F700009E0AE4A6C322168914202D14FF400016F
:101F800001E04FF00061084000284DD02068006853
:101F9000C0F3C00090B32068006820F008002168FA
:101FA0000860A24908312068884201D1082028E051
:101FB0009E491C312068884201D1802021E09B4944
:101FC00030312068884201D1C0141AE09749443169
:101FD0002068884202D14FF4004012E09349583102
:101FE0002068884202D14FF400200AE08F496C310A
:101FF0002068884203D14FF4000002E014E04FF063
:1020000000608A494860606B40F001006063042012
:1020100084F8210000BF002084F8200000BF206B5E
:1020200010B12046216B8847804800687F4A0832FB
:102030002168914201D1042127E07C4A1C322168A9
:10204000914201D1402120E0784A3032216891420A
:1020500001D1091519E0754A44322168914202D133
:102060004FF4804111E0714A58322168914202D107
:102070004FF4802109E06D4A6C322168914202D10F
:102080004FF4800101E04FF080610840A0B3206868
:102090000068C0F3800078B32068006800F020007A
:1020A00028B92068006820F00400216808605F49B2
:1020B00008312068884201D1042028E05B491C31A6
:1020C0002068884201D1402021E058493031206801
:1020D000884201D100151AE05449443120688842F1
:1020E00002D14FF4804012E05049583120688842B4
:1020F00003D14FF480200AE013E04C496C31206892
:10210000884202D14FF4800001E04FF080604749DF
:102110004860112084F82100E06A10B12046E16A8D
:10212000884742480068414A08322168914201D1FB
:10213000022127E03D4A1C322168914201D1202131
:1021400020E03A4A30322168914201D1491519E024
:10215000364A44322168914202D14FF4005111E0D5
:10216000324A58322168914202D14FF4003109E0DD
:102170002E4A6C322168914202D14FF4001101E0E5
:102180004FF000710840A0B320680068C0F3400021
:1021900078B32068006800F0200028B92068006843
:1021A00020F0020021680860204908312068884238
:1021B00001D1022028E01D491C312068884201D14C
:1021C000202021E0194930312068884201D1401592
:1021D0001AE0164944312068884202D14FF4005079
:1021E00012E0124958312068884203D14FF4003080
:1021F0000AE01AE00D496C312068884202D14FF4A0
:10220000001001E04FF0007008494860606B6063A7
:10221000012084F8210000BF002084F8200000BFC6
:10222000A06A10B12046A16A884710BD0000024094
:102230000146002209B90120704791F8210010B928
:10224000002081F82000022081F82100086802683F
:1022500043F6F0708243D1E901031843CB68184379
:102260000B6918434B6918438B691843CB691843B2
:1022700002430868026000204863012081F82100C1
:102280000020D9E72DE9F04104460D4616461F46C9
:1022900000BF94F82000012802D10220BDE8F0819F
:1022A000012084F8200000BF022084F8210020686B
:1022B000006820F00100216808603B46324629464C
:1022C0002046FFF72DFA2068006840F002002168E0
:1022D00008602068006840F00400216808602068F9
:1022E000006840F00800216808602068006840F03D
:1022F0000100216808600020D0E731B5002400F01B
:102300006DFA044600BF00F069FA001B009988428C
:10231000F9D338BD2DE9F04104460E4601270025CA
:1023200000BF2648007E012802D10220BDE8F081CE
:1023300001202249087600BF2068022813D14CF200
:102340005030FFF7D7FA90BB0120FFF767FA4CF245
:102350005030FFF7CFFA07461948006920F0040013
:102360001749086123E04CF25030FFF7C3FAF0B987
:102370004FF0FF303060A56812E02846FFF762FAA0
:102380004CF25030FFF7B6FA07460D48006920F0CE
:1023900002000B4908610FB1356007E005F5806563
:1023A000D4E9021001EB8020A842E6D800BF00BFAC
:1023B00000200249087600BF3846B7E71005002024
:1023C000002002400348006940F080000149086194
:1023D00000207047002002402DE9FE4F05468B4645
:1023E00017469846012600240020029000BF24488A
:1023F000007E012802D10220BDE8FE8F0120204985
:10240000087600BF4CF25030FFF774FA064686BBE0
:10241000012D02D10120029006E0022D02D10220FE
:10242000029001E00420029000241EE02201B9463F
:10243000C24648465146FEF751FC80B20190022048
:1024400000FB04B000900199FFF710FA4CF25030F5
:10245000FFF750FA06460B48006920F001000949D1
:10246000086106B104E0601CC4B202988442DDDB5E
:1024700000BF00BF00200249087600BF3046BBE71E
:1024800010050020002002400748006900F080008D
:1024900028B10648044948600548486001E0012029
:1024A00070470020FCE70000002002402301674540
:1024B000AB89EFCD2DE9F847034600240020002525
:1024C0008446002700226EE14FF0010808FA02F46A
:1024D000D1F8008008EA0400A0427DD1DFF8D0A244
:1024E000D1F80480A8EB0A09D0453AD014DCB8F141
:1024F000030F50D009DCB8F1000F31D0B8F1010F53
:102500001CD0B8F1020F49D120E0B8F1110F18D05A
:10251000B8F1120F42D11EE0B9F5881F25D006DCB4
:10252000B9F5803F20D0B9F5801F37D11AE0B9F551
:10253000001F18D0B9F5041F30D117E0D1F80CC036
:102540002DE0D1F80C8008F1040C28E0D1F80C80C3
:1025500008F1080C23E0D1F80C8008F10C0C1EE007
:1025600000BF00BF00BF00BF00BF00BFD1F80880A0
:10257000B8F1000F02D14FF0040C0BE0D1F8088045
:10258000B8F1010F03D14FF0080C1C6102E04FF0CD
:10259000080C5C6103E04FF0000C00E000BF00BFDE
:1025A000FF2801D8984601E003F104084646FF28B9
:1025B00002D84FEA820803E0A2F108084FEA88082F
:1025C0004746D6F800804FF00F0909FA07F928EAC4
:1025D00009080CFA07F900E088E048EA0908C6F89B
:1025E0000080D1F8048008F08058B8F1805F7DD178
:1025F00000BFDFF8C081D8F8188048F00108DFF884
:10260000B491C9F81880C846D8F8188008F00108B5
:10261000CDF8008000BF00BF4FEAB9384FEA9209F9
:1026200058F829504FEA82784FEA18794FF00F088E
:1026300008FA09F825EA0805DFF87C81434502D14C
:102640004FF0000816E0DFF87481434502D14FF0E7
:1026500001080FE0DFF86881434502D14FF002081E
:1026600008E0DFF86081434502D14FF0030801E044
:102670004FF004084FEA82794FEA197908FA09F80D
:1026800048EA0505DFF840814FEA920948F82950E9
:10269000D1F8048008F48038B8F5803F0AD1DFF81B
:1026A0002C81D8F8008048EA0008DFF82091C9F8AA
:1026B000008009E0DFF81481D8F8008028EA0008DB
:1026C000DFF80891C9F80080D1F8048008F40038D8
:1026D000B8F5003F10D1DFF8F48008F10408D8F80D
:1026E000008048EA0008DFF8E49000E05AE009F1D1
:1026F0000409C9F800800DE0DFF8D08008F1040873
:10270000D8F8008028EA0008DFF8C09009F1040931
:10271000C9F80080D1F8048008F48018B8F5801F4B
:102720000ED1DFF8A88008F10808D8F8008048EA40
:102730000008DFF8989009F10809C9F800800DE059
:10274000DFF8888008F10808D8F8008028EA000837
:10275000DFF8789009F10809C9F80080D1F8048001
:1027600008F40018B8F5001F0ED1DFF8608008F1FA
:102770000C08D8F8008048EA0008DFF8509009F10A
:102780000C09C9F800800DE0DFF8408008F10C0862
:10279000D8F8008028EA0008DFF8309009F10C0929
:1027A000C9F80080521C102AFFF48EAEBDE8F887ED
:1027B000000011100010024000080140000C014010
:1027C00000100140001401400800014000040140D5
:1027D0000AB1016101E00B04036170470148006820
:1027E00070470000E800002070B504460025002670
:1027F0000CB9012070BD94F8350028B9002084F888
:102800003400204600F0EAF8242084F835002068DF
:10281000006820F001002168086000F0B7FB064660
:102820001C48B6FBF0F5206845601B49606888428B
:1028300001D8681C07E04FF4967068434FF47A7132
:10284000B0FBF1F0401C216808623146204601F0DF
:1028500009FD2168C861D4E90701084321680860BF
:10286000D4E90310084321688860D4E905010843CE
:102870002168C8602068006840F001002168086095
:102880000020A063202084F83500002084F8360062
:1028900000BFAFE740420F00A08601002DE9F843DA
:1028A0000446884615461E46089F94F835002028A1
:1028B0007ED105B116B90120BDE8F8834FF4FA7353
:1028C00001224549204601F08AFD08B10220F3E7C4
:1028D00000BF94F83400012801D10220ECE7012068
:1028E00084F8340000BF2068006820F4006021688C
:1028F0000860212084F83500102084F8360000207C
:10290000A0633A464146204601F0F8FC80B1A06B36
:10291000042806D100BF002084F8340000BF012045
:10292000CAE700BF002084F8340000BF0320C3E7DB
:1029300000BF20684069009020688069009000BF57
:1029400000BF23E03946204601F00FFE60B1A06BC6
:10295000042807D12068006840F4007021680860EE
:102960000120A9E70320A7E715F8010B21680861FA
:10297000701E86B220684069C0F3800030B12EB16D
:1029800015F8010B21680861701E86B2002ED9DC93
:102990003946204601F0F8FC68B1A06B042808D144
:1029A0002068006840F4007021680860012083E717
:1029B00010E0032080E72068006840F40070216880
:1029C0000860202084F8350000BF002084F834001F
:1029D00000BF71E702206FE70200100010B586B05B
:1029E00004460F492068884218D14FF44060029095
:1029F000122003900320059002A90A48FFF75AFD10
:102A000000BF0948C06940F480000749C861084612
:102A1000C06900F48000019000BF00BF06B010BD87
:102A200000580040000C01400010024002480068BD
:102A3000401C014908607047E800002010B50320E1
:102A400000F0BAF80F2000F004F800F015F80020AC
:102A500010BD70B5044600F093FA4FF47A71B0FBE4
:102A6000F1F5284600F076FF00222146501E00F0C6
:102A700064F8002070BD000008B500BF1F488069E1
:102A800040F001001D4988610846806900F001009E
:102A9000009000BF00BF032000F08EF80022114616
:102AA0006FF00B0000F049F8002211466FF00A00A9
:102AB00000F043F8002211466FF0090000F03DF8E5
:102AC00000221146501F00F038F800221146101F56
:102AD00000F033F800220F21901E00F02EF80022A3
:102AE0000F21501E00F029F80548406820F0E060F2
:102AF00040F000700249486008BD0000001002402C
:102B00000000014000BF00F01F0201219140034A74
:102B1000430942F8231000BF7047000080E100E045
:102B200000BF00F01F02012191404209920002F112
:102B3000E022C2F8001100BF70472DE9F05F804627
:102B40000D461646002701F02BFF074639462A4658
:102B5000334601F00700C0F1070ABAF1040F02D9A9
:102B60004FF0040A01E0C0F1070AD14600F1040A5F
:102B7000BAF1070F02D24FF0000A01E0A0F1030AF8
:102B8000D4464FF0010A0AFA09FAAAF1010A0AEA40
:102B9000020A0AFA0CFA4FF0010B0BFA0CFBABF12C
:102BA000010B0BEA030B4AEA0B042146404601F0F5
:102BB000FFFEBDE8F09F000000BF00F00702064BDB
:102BC00019684FF6FF031940044B0B4343EA0221F7
:102BD000014B196000BF70470CED00E00000FA05E2
:102BE000F8B5044600260025207800F001000028F2
:102BF00076D000BF4F48C06940F080504D49C86151
:102C00000846C06900F08050009000BF00BF4A48ED
:102C1000006840F4807048490860FFF7DFFD064611
:102C200006E0FFF7DBFD801B642801D90320F8BD17
:102C30004148006800F480700028F2D03D48006AE6
:102C400000F44075002D5DD0A08800F44070A842CB
:102C500058D03848006A20F440750121080490FAE1
:102C6000A0F0B0FA80F0354A02EB8000C0F8001402
:102C70000020090491FAA1F1B1FA81F102EB81017E
:102C8000C1F800042B48056205F0010048B3FFF7C6
:102C9000A5FD064608E0FFF7A1FD801B41F2883143
:102CA000884201D90320C2E74020022191FAA1F114
:102CB000B1FA81F108430121B1EB601F02D11D4837
:102CC000006811E04020022191FAA1F1B1FA81F1EE
:102CD00008430221B1EB601F04D11648006A03E0EB
:102CE00018E00FE01348406A4021022292FAA2F253
:102CF000B2FA82F2114301F01F0201219140084013
:102D00000028C8D00B48006A20F44070616808436E
:102D100008490862207800F00200022807D105481F
:102D2000406820F44040A168084302494860002000
:102D30007DE70000001002400070004000004242A9
:102D400070B504460E460025207800F002000228E7
:102D500007D18848406820F0F000A1680843854901
:102D60004860207800F0010000286ED060680128DB
:102D70002DD12020010391FAA1F1B1FA81F108438C
:102D80000121B1EB601F02D17A4800680FE02020DA
:102D9000010391FAA1F1B1FA81F108430221B1EBEB
:102DA000601F02D17348006A01E07248406A202126
:102DB0000A0392FAA2F2B2FA82F2114301F01F0260
:102DC000012191400840002860D1012070BD606859
:102DD00002282CD12020010591FAA1F1B1FA81F14C
:102DE00008430121B1EB601F02D1624800680FE087
:102DF0002020010591FAA1F1B1FA81F108430221E5
:102E0000B1EB601F02D15B48006A01E05948406A9B
:102E100020210A0592FAA2F2B2FA82F2114301F0DD
:102E20001F0201219140084078BB0120CEE72020FD
:102E3000022191FAA1F1B1FA81F108430121B1EB2C
:102E4000601F03D14B48006810E062E0202002219F
:102E500091FAA1F1B1FA81F108430221B1EB601FAF
:102E600002D14448006A01E04248406A202102221F
:102E700092FAA2F2B2FA82F2114301F01F0201218A
:102E80009140084008B90120A0E7FFE739484068B1
:102E900020F003006168084336494860FFF79EFC54
:102EA00005466068012810D108E0FFF797FC401B39
:102EB00041F28831884201D9032087E72D484068D4
:102EC00000F00C000428F0D123E06068022810D143
:102ED00008E0FFF783FC401B41F28831884201D9AA
:102EE000032073E72348406800F00C000828F0D165
:102EF0000FE008E0FFF772FC401B41F28831884286
:102F000001D9032062E71B48406800F00C0000284C
:102F1000F0D1207800F00400042807D1154840685B
:102F200020F4E060E168084312494860207800F02E
:102F30000800082808D10F48406820F46050216933
:102F400040EAC1000B49486000F04CF80949496863
:102F500001F0F001F02292FAA2F2B2FA82F2D1402C
:102F6000054A515CC840054908600F20FFF771FD14
:102F700000202BE700100240947B0008EC000020AA
:102F80000148006870470000EC00002000B5FFF722
:102F9000F7FF0749496801F4E0614FF4E06292FAF3
:102FA000A2F2B2FA82F2D140024A515CC84000BD9E
:102FB00000100240A47B000800B5FFF7E1FF0749BD
:102FC000496801F460514FF4605292FAA2F2B2FAE9
:102FD00082F2D140024A515CC84000BD001002405C
:102FE000A47B0008F0B588B027A7D7E901C63D68E3
:102FF000FF68CDE905C6079704950FF29C0CDCE944
:103000000075DCE9026CCDE9026CCDE900750021A8
:103010000024002200230020234D696801F00C05E4
:1030200065B3042D02D0082D27D101E01F4827E009
:1030300001F470154FF4701696FAA6F6B6FA86F6F5
:10304000F54004AE735D01F480358DB1164DED6A27
:1030500005F00F050F2696FAA6F6B6FA86F6F540A5
:103060001DF80540114DB5FBF4F505FB03F202E038
:103070000F4D03FB05F2104602E000BF0B4800BFF6
:1030800000BF08B0F0BD00000203040506070809F0
:103090000A0B0C0D0E0F10100102030405060708A1
:1030A000090A0B0C0D0E0F100010024000127A00DE
:1030B00000093D0038B504460025207800F00100E5
:1030C00000287CD0F848406800F00C0004280CD0A0
:1030D000F548406800F00C00082837D1F2484068F5
:1030E00000F48030B0F5803F30D12020010391FA08
:1030F000A1F1B1FA81F108430121B1EB601F02D1C6
:10310000E94800680FE02020010391FAA1F1B1FA2B
:1031100081F108430221B1EB601F02D1E248006A4D
:1031200001E0E148406A20210A0392FAA2F2B2FAD1
:1031300082F2114301F01F02012191400840002852
:10314000BFD0606800283AD1012038BD00BF606858
:10315000B0F5803F06D1D448006840F48030D249B1
:10316000086028E0606858B9CF48006820F48030D3
:10317000CD4908600846006820F4802008601AE005
:103180006068B0F5A02F0BD1C748006840F48020DC
:10319000C54908600846006840F4803008600AE0CD
:1031A000C148006820F48030BF49086008460068C4
:1031B00020F48020086000BF6068C8B300E06FE0C2
:1031C000FFF70CFB054606E0FFF708FB401B6428F1
:1031D00001D90320B9E72020010391FAA1F1B1FA46
:1031E00081F108430121B1EB601F02D1AE480068B4
:1031F0000FE02020010391FAA1F1B1FA81F1084317
:103200000221B1EB601F02D1A748006A01E0A64885
:10321000406A20210A0392FAA2F2B2FA82F2114322
:1032200001F01F020121914008400028CCD037E076
:10323000FFE7FFF7D3FA054606E0FFF7CFFA401B9A
:10324000642801D9032080E72020010391FAA1F12D
:10325000B1FA81F108430121B1EB601F02D192481C
:1032600000680FE02020010391FAA1F1B1FA81F189
:1032700008430221B1EB601F02D18B48006A01E0D4
:103280008948406A20210A0392FAA2F2B2FA82F235
:10329000114301F01F020121914008400028CCD1C8
:1032A000207800F0020002284ED17F48406800F0EC
:1032B0000C0050B17C48406800F00C00082844D154
:1032C0007948406800F4803078BB2020022191FAD0
:1032D000A1F1B1FA81F108430121B1EB601F02D1E4
:1032E000714800680FE02020022191FAA1F1B1FAA3
:1032F00081F108430221B1EB601F02D16A48006AE4
:1033000001E06948406A2021022292FAA2F2B2FA50
:1033100082F2114301F01F0201219140084028B1BF
:103320002069012802D001200FE70EE05E48006806
:1033300020F0F800F82292FAA2F2B2FA82F2616961
:10334000914008435849086091E02069F0B301209A
:1033500090FAA0F1B1FA81F1544A42F82100FFF746
:103360003DFA054606E0FFF739FA401B022801D96D
:103370000320EAE62020022191FAA1F1B1FA81F1BD
:1033800008430121B1EB601F02D1474800680FE0FC
:103390002020022191FAA1F1B1FA81F10843022122
:1033A000B1EB601F02D14048006A01E03E48406A2C
:1033B0002021022292FAA2F2B2FA82F2114301F023
:1033C0001F02012191400840002800E00FE0CAD010
:1033D0003548006820F0F800F82292FAA2F2B2FA1A
:1033E00082F26169914008432F4908603FE0002064
:1033F000012191FAA1F1B1FA81F12C4A42F82100A0
:10340000FFF7ECF9054606E0FFF7E8F9401B022854
:1034100001D9032099E62020022191FAA1F1B1FA05
:1034200081F108430121B1EB601F02D11E48006801
:103430000FE02020022191FAA1F1B1FA81F10843B5
:103440000221B1EB601F02D11748006A01E0164863
:10345000406A2021022292FAA2F2B2FA82F21143C9
:1034600001F01F020121914008400028CCD12078B2
:1034700000F0080008284BD1A069A8B3012191FAF7
:10348000A1F0B0FA80F0094A02EB8000C0F8801485
:10349000FFF7A4F905460BE0FFF7A0F9401B02284F
:1034A00006D9032051E6000000100240000042420D
:1034B0006020022191FAA1F1B1FA81F108430121C2
:1034C000B1EB601F02D1F948006810E060200221D2
:1034D00091FAA1F1B1FA81F108430221B1EB601F29
:1034E00003D1F248006A02E013E0F048406A60212C
:1034F000022292FAA2F2B2FA82F2114301F01F0202
:103500000121914008400028C6D00120FEF7F5FEB9
:1035100041E00020012191FAA1F1B1FA81F1E44AE0
:1035200002EB8101C1F88004FFF758F9054606E077
:10353000FFF754F9401B022801D9032005E660205B
:10354000022191FAA1F1B1FA81F108430121B1EB15
:10355000601F02D1D54800680FE06020022191FA77
:10356000A1F1B1FA81F108430221B1EB601F02D150
:10357000CE48006A01E0CD48406A6021022292FAFA
:10358000A2F2B2FA82F2114301F01F02012191402E
:1035900008400028CCD1207800F00400042875D120
:1035A00000BFC248C06940F08050C049C8610846A9
:1035B000C06900F08050009000BF00BFBD480068A7
:1035C00040F48070BB490860FFF708F9054606E043
:1035D000FFF704F9401B642801D90320B5E5B5487D
:1035E000006800F480700028F2D000BFE068012875
:1035F00006D1AE48006A40F00100AC49086227E0FD
:10360000E06858B9A948006A20F00100A74908629B
:103610000846006A20F00400086219E0E068052806
:103620000BD1A248006A40F00400A0490862084695
:10363000006A40F0010008620AE09C48006A20F03D
:1036400001009A4908620846006A20F004000862F6
:1036500000BFE068D0B3FFF7C1F8054608E0FFF708
:10366000BDF8401B41F28831884201D903206CE546
:103670004020022191FAA1F1B1FA81F10843012120
:10368000B1EB601F03D18948006810E058E040208A
:10369000022191FAA1F1B1FA81F108430221B1EBC3
:1036A000601F02D18148006A01E08048406A4021E1
:1036B000022292FAA2F2B2FA82F2114301F01F0240
:1036C0000121914008400028C9D039E0FFE7FFF709
:1036D00085F8054608E0FFF781F8401B41F2883184
:1036E000884201D9032030E54020022191FAA1F15E
:1036F000B1FA81F108430121B1EB601F02D16B489F
:1037000000680FE04020022191FAA1F1B1FA81F1A5
:1037100008430221B1EB601F02D16448006A01E056
:103720006248406A4021022292FAA2F2B2FA82F280
:10373000114301F01F020121914008400028CAD125
:10374000E069002873D05948406800F00C00082850
:103750006ED0E06902286CD100204FF0807191FAA0
:10376000A1F1B1FA81F1524A42F82100FFF736F88F
:10377000054606E0FFF732F8401B022801D9032076
:10378000E3E42020010591FAA1F1B1FA81F10843A7
:103790000121B1EB601F02D1444800680FE02020F6
:1037A000010591FAA1F1B1FA81F108430221B1EBCF
:1037B000601F02D13D48006A01E03C48406A202178
:1037C0000A0592FAA2F2B2FA82F2114301F01F0244
:1037D0000121914008400028CCD1206AB0F5803FFB
:1037E00007D13248C06A20F00F00A16808432F4972
:1037F000C862D4E9080108432C49496821F47411CE
:1038000008432A4948600121080690FAA0F0B0FA5E
:1038100080F0274A42F82010FEF7E0FF054609E055
:10382000FEF7DCFF401B022804D903208DE479E079
:1038300076E02CE02020010591FAA1F1B1FA81F1A6
:1038400008430121B1EB601F02D1184800680FE066
:103850002020010591FAA1F1B1FA81F1084302217A
:10386000B1EB601F02D11148006A01E00F48406AC5
:1038700020210A0592FAA2F2B2FA82F2114301F073
:103880001F020121914008400028C9D04AE00020D1
:103890004FF0807191FAA1F1B1FA81F1044A42F836
:1038A0002100FEF79BFF05460DE0000000100240DE
:1038B0000000424200700040FEF790FF401B0228CB
:1038C00001D9032041E42020010591FAA1F1B1FAC8
:1038D00081F108430121B1EB601F02D11248006859
:1038E0000FE02020010591FAA1F1B1FA81F108431E
:1038F0000221B1EB601F02D10B48006A01E00A48C7
:10390000406A20210A0592FAA2F2B2FA82F2114329
:1039100001F01F020121914008400028CCD101E0B4
:10392000012012E4002010E400100240042808D115
:103930004FF0E021096941F004014FF0E0221161EC
:1039400007E04FF0E021096921F004014FF0E02287
:103950001161704770B504462546681EB0F1807F3E
:1039600001D301200FE0681E4FF0E02148610F21D4
:103970004FF0FF3001F01CF800204FF0E02188618B
:1039800007200861002070BD70477047024600BFE5
:1039900092F83800012801D102207047012082F8F6
:1039A000380000BF022082F839001068406820F01B
:1039B000700013685860106840680B6818431368FB
:1039C00058601068806820F0800013689860106864
:1039D00080684B68184313689860012082F83900AA
:1039E00000BF002082F8380000BF00BFD5E710B547
:1039F00004460CB9012010BD94F8390028B9002004
:103A000084F83800204600F00DF8022084F83900D0
:103A1000211D206801F0C0FA012084F8390000203F
:103A2000E9E7000038B504462068B0F1804F16D1B0
:103A300000BF1848C06940F001001649C861084637
:103A4000C06900F00100009000BF00BF0022052106
:103A50001C20FFF772F81C20FFF762F819E00E49EE
:103A60002068884215D100BF0A48C06940F00400B0
:103A70000849C8610846C06900F00400009000BF12
:103A800000BF002205211E20FFF757F81E20FFF778
:103A900047F838BD001002400008004001460868A1
:103AA000C06840F001000A68D0600868006840F013
:103AB00001000A681060002070470146022081F86A
:103AC000390000BF0868006A41F21112104050B975
:103AD0000868006A9210104028B90868006820F051
:103AE00001000A68106000BF012081F83900002041
:103AF000704701460868C06820F001000A68D0607D
:103B000000BF0868006A41F21112104050B90868FD
:103B1000006A9210104028B90868006820F001007F
:103B20000A68106000BF002070472DE9F04104468C
:103B30000D46002600BF94F83800012802D102206B
:103B4000BDE8F081012084F8380000BF022084F82D
:103B500039002068866826F0770626F47F462068BC
:103B60008660286850283BD00CDC202860D004DC1C
:103B7000002853D0102865D155E030285DD040286A
:103B800060D141E0602835D070280DD0B0F5805F5D
:103B900003D0B0F5005F55D115E02068806820F0B3
:103BA0000700216888604EE0D5E902136A68206842
:103BB00001F040FA2068866826F0770646F077061E
:103BC000206886603FE0D5E902136A68206801F04A
:103BD00031FA2068806840F480402168886032E0D3
:103BE000EA686968206801F03BFA5021206801F01A
:103BF0002DFA28E0EA686968206801F046FA602139
:103C0000206801F023FA1EE0EA686968206801F084
:103C100027FA4021206801F019FA14E000212068F9
:103C200001F014FA0FE01021206801F00FFA0AE009
:103C30002021206801F00AFA05E03021206801F017
:103C400005FA00E000BF00BF012084F8390000BF82
:103C5000002084F8380000BF00BF71E7704710B53E
:103C6000044620680069C0F34000D8B12068C068ED
:103C7000C0F34000B0B16FF002002168086101207C
:103C800020762068806900F0030018B12046FFF715
:103C9000E5FF05E0204600F0ADF8204600F0D2F840
:103CA0000020207620680069C0F38000D8B1206829
:103CB000C068C0F38000B0B16FF0040021680861F3
:103CC000022020762068806900F4407018B12046F8
:103CD000FFF7C4FF05E0204600F08CF8204600F016
:103CE000B1F80020207620680069C0F3C000D8B188
:103CF0002068C068C0F3C000B0B16FF00800216850
:103D00000861042020762068C06900F0030018B123
:103D10002046FFF7A3FF05E0204600F06BF82046A1
:103D200000F090F80020207620680069C0F30010B1
:103D3000D8B12068C068C0F30010B0B16FF01000B7
:103D400021680861082020762068C06900F440706E
:103D500018B12046FFF782FF05E0204600F04AF840
:103D6000204600F06FF8002020762068006900F0FF
:103D7000010058B12068C06800F0010030B16FF058
:103D8000010021680861204600F05EF820680069A3
:103D9000C0F3C01058B12068C068C0F3C01030B183
:103DA0006FF08000216808612046FFF7EDFD206874
:103DB0000069C0F3801058B12068C068C0F380105B
:103DC00030B16FF0400021680861204600F050F8E3
:103DD00020680069C0F3401058B12068C068C0F383
:103DE000401030B16FF02000216808612046FFF7D5
:103DF000CCFD10BD704770B504460D460CB90120CE
:103E000070BD94F8390028B9002084F838002046A5
:103E100000F017F8022084F83900211D206801F015
:103E2000BBF82068006820F008002168086020685E
:103E30000068284321680860012084F839000020C8
:103E4000DEE770477047000010B504462068B0F107
:103E5000804F05D00549084428B903F055F802E021
:103E600000F0F4FF00BF00BF10BD000000F8FFBF6E
:103E7000704710B504462068406920F0C0002168F2
:103E80004861206B10B1206BFEF718F8606B10B121
:103E9000606BFEF713F8012084F83900002010BD94
:103EA00010B50446204602F019FD10BDF8B50446D1
:103EB000002500262068006800F001052068C06821
:103EC00000F4807625B11EB1E06B40F00100E063A4
:103ED00020680068C0F340052068406900F00106D2
:103EE00025B11EB1E06B40F00400E063206800687B
:103EF000C0F3800525B11EB1E06B40F00200E06325
:103F000020680068C0F3C00525B11EB1E06B40F029
:103F10000800E06320680068C0F340152068C068AE
:103F200000F020061DB116B1204601F035F92068D9
:103F30000068C0F3C0152068C06800F080061DB19D
:103F400016B1204601F06AFA20680068C0F38015B7
:103F50002068C06800F040061DB116B1204601F08F
:103F600003F9E06B70B100BF206800680090206822
:103F70004068009000BF00BF012084F8390020464F
:103F8000FFF78EFFF8BD10B504460CB9012010BD37
:103F9000A06900B100E000BF94F8390028B9002002
:103FA00084F83800204600F025F8022084F8390013
:103FB0002068C06820F400502168C860204601F0E5
:103FC00049F92068006920F4904021680861206860
:103FD000406920F02A00216848612068C06840F4E8
:103FE00000502168C8600020E063012084F8390097
:103FF0000020CCE710B586B00446334920688842DB
:1040000060D100BF3148806940F480402F49886109
:104010000846806900F48040019000BF00BF481549
:104020000290022003900320059002A92848FEF781
:1040300041FA4FF48060029000200390049002A99E
:104040002348FEF737FA23482349086000204860D8
:104050000021214881608021C1600021016141610E
:1040600081614FF40051C161FEF7E2F808B1FDF73C
:10407000ADFB00BF18486063446200BF15481438A8
:104080001649086010204860002114488160802192
:10409000C16000210161416181614FF40051C16142
:1040A000FEF7C6F808B1FDF791FB00BF0B4820638F
:1040B000446200BF002206212520FEF73EFD252098
:1040C000FEF72EFD06B010BD003801400010024082
:1040D0000008014058000240A8020020E002002031
:1040E000F7B504461546002794F83970012F01D022
:1040F000122F3CD1019800B10DB90120FEBD00BFC7
:1041000094F83800012801D10220F7E7012084F853
:10411000380000BF0198A062A5850020E06394F8F4
:104120003900122803D1322084F8390002E022201D
:1041300084F839000F48616B88620F48616BC86270
:104140000E48616B086301AE32682368191D2B4667
:10415000606BFEF797F82068406940F040002168E6
:10416000486100BF002084F8380000BFC6E7022085
:10417000C4E70000D950000817510008B7500008E4
:10418000034A0168114401B900BF00BF7047000035
:1041900000C8FEBF70470000F7B50446154600276B
:1041A00094F83970012F01D0222F41D1019800B12C
:1041B0000DB90120FEBD00BF94F83800012801D1DF
:1041C0000220F7E7012084F8380000BF0198206240
:1041D000A584E5840020E06394F83900222803D107
:1041E000322084F8390002E0122084F839001148A6
:1041F000216B88621048216BC8621048216B0863EC
:1042000001AE23681A1D31682B46206BFEF73AF881
:104210006FF04000216808602068406940F080002D
:104220002168486100BF002084F8380000BFC1E762
:104230000220BFE7255100085B510008B750000875
:1042400010B5044604492068084410B902F0B6FAD3
:1042500000BF00BF10BD000000C8FEBF704700BF18
:10426000FEE7000010B502460B460021154C5068D1
:10427000A0420BD850684000B3FBF0F1C1F30B0033
:10428000042801D2042010BD0846FCE74FF4004189
:10429000906830B9506800EB4000B3FBF0F0014388
:1042A00009E0506800EBC00404EB0010B3FBF0F031
:1042B00040F480400143C1F30B0008B90120E2E75C
:1042C0000846E0E7A0860100014608684069C0F39F
:1042D000802088B10868406920F480600A685061D5
:1042E00004208863202081F8350000BF002081F879
:1042F000340000BF012070470020FCE770B5044681
:104300000D4616462068006840F4807021680860F9
:10431000334600224FF00111204600F060F808B14A
:10432000032070BD2069B0F5804F04D105F0FE0078
:104330002168086116E005F44070F02141EAE010C0
:104340002168086132460F49204600F0B7F830B1C5
:10435000A06B042801D10120E3E70320E1E7E8B2E4
:104360002168086132460749891F204600F0A6F8F7
:1043700030B1A06B042801D10120D2E70320D0E79F
:104380000020CEE70800010070B504460D46FEF798
:1043900025FA06461BE02046FFF796FF08B10120EC
:1043A00070BD681C98B125B1FEF718FA801BA842B1
:1043B0000DD9A06B40F02000A063202084F83500C8
:1043C00000BF002084F8340000BF0320E8E7206825
:1043D0004069C0F380000028DDD00020E0E72DE92F
:1043E000F04105460C4617461E464FF00008FEF702
:1043F000F5F9804687BB13E0701C88B12EB1FEF73B
:10440000EDF9A0EB0800B0420AD9202085F835006C
:1044100000BF002085F8340000BF0320BDE8F08114
:10442000C4F3074001280AD128684069A1B20840B6
:10443000A1B2884201D101200BE0002009E02868E8
:104440008069A1B20840A1B2884201D1012000E0F8
:1044500000200028D0D02FE0FFE712E0701C80B1D0
:104460002EB1FEF7BBF9A0EB0800B04209D920201D
:1044700085F8350000BF002085F8340000BF032018
:10448000CCE7C4F3074001280AD128684069A1B2EB
:104490000840A1B2884201D101200BE0002009E0D0
:1044A00028688069A1B20840A1B2884201D10120E8
:1044B00000E000200028D1D10020AFE72DE9F04135
:1044C00004460D4616460027FEF788F907462FE0FA
:1044D00020684069C0F38020C0B12068006840F4C3
:1044E0000070216808602068406920F480602168BD
:1044F00048610420A063202084F8350000BF00201C
:1045000084F8340000BF0120BDE8F081701C78B150
:1045100026B1FEF763F9C01BB04209D9202084F808
:10452000350000BF002084F8340000BF0320EBE713
:10453000C5F3074001280AD120684069A9B20840A4
:10454000A9B2884201D101200BE0002009E02068D7
:104550008069A9B20840A9B2884201D1012000E0D7
:1045600000200028B4D00020CEE770B504460D46E8
:10457000FEF734F906461BE02046FFF7A5FE08B11A
:10458000012070BD681C98B125B1FEF727F9801B8A
:10459000A8420DD9A06B40F02000A063202084F831
:1045A000350000BF002084F8340000BF0320E8E796
:1045B00020684069C0F3C0100028DDD00020E0E78B
:1045C0000EB53548354908608115344881600121B0
:1045D000C160002141614FF46021C16100202F4979
:1045E000486008212D480161FDF7EAFA08B1FDF79E
:1045F000EDF80120009001900220029069462748C2
:10460000FDF7F8F908B1FDF7E1F8022000900190FC
:1046100069462248FDF7EEF908B1FDF7D7F8032007
:104620000090019069461D48FDF7E4F908B1FDF7D7
:10463000CDF804200090019069461848FDF7DAF99A
:1046400008B1FDF7C3F805200090019069461348B2
:10465000FDF7D0F908B1FDF7B9F8062000900190F8
:1046600069460E48FDF7C6F908B1FDF7AFF8072017
:104670000090019069460948FDF7BCF908B1FDF7C3
:10468000A5F808200090019069460448FDF7B2F9AA
:1046900008B1FDF79BF80EBD002401404C0100203D
:1046A00008B500BF1248406940F001001049486158
:1046B0000846406900F00100009000BF00BF0022E2
:1046C00007210B20FEF739FA0B20FEF729FA00220A
:1046D00005210E20FEF731FA0E20FEF721FA002206
:1046E00005210F20FEF729FA0F20FEF719FA08BD61
:1046F0000010024000B585B000BF4148806940F01D
:1047000010003F4988610846806900F01000009061
:1047100000BF00BF00BF0846806940F00400886108
:104720000846806900F00400009000BF00BF00BF91
:104730000846806940F0080088610846806900F0FA
:104740000800009000BF00BF00BF0846806940F02D
:10475000200088610846806900F02000009000BFBA
:1047600000BF002247F2F8012648FEF731F8002288
:104770004FF4DE512448FEF72BF800220421234891
:10478000FEF726F847F2F80001900120029002207F
:10479000049001A91B48FDF78DFE4FF400400190E5
:1047A00000200290039001A91648FDF783FE4FF404
:1047B000DE500190012002900220049001A91248CD
:1047C000FDF778FE04200190012002900220049061
:1047D00001A90E48FDF76EFE4FF480700190012094
:1047E00002900220049001A90948FDF763FE00220F
:1047F0004FF480710648FDF7EBFF05B000BD0000E7
:1048000000100240000C0140001001400014014063
:104810000008014010B50B480B4908600B48486080
:10482000002109488160C1604FF48041016100218D
:1048300041618161C1610162FDF7D6FF08B1FCF7FA
:10484000C5FF10BD00580040B4010020A086010043
:1048500000B587B04FF08040164908604FF41660ED
:1048600048600021134881600A21C1600021016174
:10487000FFF7BDF808B1FCF7A9FF4FF48050039093
:1048800003A90C48FFF751F908B1FCF79FFF082175
:104890000848FFF7B0FA08B1FCF798FF0020019034
:1048A000029001A90348FFF771F808B1FCF78EFFE9
:1048B00007B000BDF001002000B587B013481449CF
:1048C0000860002048600021114881606421C160B7
:1048D00000210161FFF78BF808B1FCF777FF4FF477
:1048E0008050039003A90A48FFF71FF908B1FCF7AD
:1048F0006DFF00200190029001A90548FFF746F8DE
:1049000008B1FCF763FF07B000BD000000080040DD
:104910002C02002010B50B480B4908604FF46120B1
:104920004860002108488160C16001610C2141613B
:1049300000218161C161FFF726FB08B1FCF746FF4A
:1049400010BD0000003801406802002000BFFEE7F3
:104950001FB500204FF4612302460A21009001F0A8
:1049600063F8044600200123CDE90030029003469D
:10497000802203A10390054802F08CFD1FBD0000BA
:104980004D6F64627573207461736B009149000808
:1049900000F0BCFD00BF01F0B7F8FCE77047000075
:1049A00002480068C0F30220704700000CED00E0F0
:1049B00010B5002807DA0A07140E054A00F00F03A5
:1049C0001B1FD45403E00A07130E024A135410BDF0
:1049D00018ED00E000E400E02DE9F04104460D464A
:1049E000002600212846FCF737FC1AD80E49284635
:1049F000FCF728FC15D80D490968183151F8340026
:104A00002946FCF705FA804608480068183000EB94
:104A1000C40041684046FCF7A3F90746FCF7B7FB22
:104A2000C6B23046BDE8F0810000FE420C00002016
:104A30001FB503220021012002F032FB0E4908605D
:104A40000E480068006840F004000C4909680860DE
:104A50004FF07E5000F048F809490870002002230A
:104A6000CDE9003002900346802206A10390094858
:104A700002F010FD1FBD000008000020F001002022
:104A8000060000205079726F20737175696220747E
:104A900061736B00594D00082DE9F04105460C4645
:104AA000012600212046FCF7D7FB16D80D492046E9
:104AB000FCF7C8FB11D800274FF000082146284614
:104AC000FFF78AFF074639462846FCF751FE06469F
:104AD00016B10120BDE8F08101E00220FAE70020D4
:104AE000F8E700000000FE422DE9F04105460024F1
:104AF0000027002600BF08E029462046FFF7CCFF2C
:104B0000064606B13746601CC4B2032CF4DD3846B5
:104B1000BDE8F08110B50446002280215948FDF718
:104B200057FE002240215748FDF752FE0022202167
:104B30005448FDF74DFE002210215248FDF748FE73
:104B4000002208214F48FDF743FE002204214E4871
:104B5000FDF73EFE00224FF480514C48FDF738FE31
:104B600000224FF400614948FDF732FE012C02D0CB
:104B7000022C7DD158E046480068007D00F001001D
:104B800020B1012280213F48FDF722FE4048006805
:104B9000007D00F0020020B1012240213948FDF7DC
:104BA00017FE3B480068007D00F0040020B10122A0
:104BB00020213448FDF70CFE35480068007D00F0E8
:104BC000080020B1012210212E48FDF701FE3048D7
:104BD0000068007D00F0100020B101220821294862
:104BE000FDF7F6FD2A480068007D00F0200020B1A6
:104BF000012204212448FDF7EBFD25480068007DD3
:104C000000F0400020B1012211032048FDF7E0FD33
:104C10001F480068007D00F0800020B10122D10211
:104C20001A48FDF7D5FD2BE0012280211548FDF73C
:104C3000CFFD012240211348FDF7CAFD01222021AA
:104C40001048FDF7C5FD012210210E48FDF7C0FDFB
:104C5000012208210B48FDF7BBFD012204210A486F
:104C6000FDF7B6FD012211030848FDF7B1FD00E094
:104C700005E00122D1020548FDF7AAFD00E000BFD2
:104C800000BF10BD000C01400014014000100140A5
:104C90000C00002070B50024002500202949087070
:104CA00000BF0DE028480068001D50F82410204681
:104CB000FFF7F2FE05460DB1284670BD601CC4B278
:104CC000032CEFDD0120FFF725FF01201E490968B5
:104CD00081F83900012201021C48FDF779FD00200E
:104CE0001B49096848621B4800684FF47A71B0FBA1
:104CF000F1F017490968886200BF1348006800880E
:104D000013490968C8621048006801881048C160EA
:104D100000BF0068C06820F001000D490968C86044
:104D200001200B49096848610948FEF7B7FE02E017
:104D3000322001F013FF034800780028F8D000204B
:104D4000BBE70000050000200C0000200008014027
:104D5000F0010020EC00002018E000234FF47A72EC
:104D600019460B48006802F0D0F901280AD1FFF774
:104D700091FF084908704FF07E50FFF7B5FE0549D6
:104D8000087003E000F00AF803490870E5E7000046
:104D90000800002006000020040000202DE9F0415A
:104DA000002400250020244908700220FFF7B2FEED
:104DB00000BF012021490968C86201211F48C16064
:104DC00000BF1F48006842F21071B0FBF1F01B49B0
:104DD0000968886219480068C06820F00100174916
:104DE0000968C86001201549096848611348FEF741
:104DF00055FE01E001F0A6FE0F4800780028F9D02A
:104E0000002414E00F4931F81400FCF7D9FB804668
:104E1000FCF7D1F906464FF033320B4BFCF7DEF9C5
:104E200003D20120A0402843C5B2601CC4B2042CA8
:104E3000E8DB2846BDE8F08105000020F0010020F5
:104E4000EC000020280300203333D33F10B50B487B
:104E50000B490A680260496841600020FFF75AFE6A
:104E600000200849096881F83900012006490870C6
:104E7000002201020548FDF7ABFC10BD280300200D
:104E8000180300200C00002005000020000801404D
:104E900010B5FDF7CBFD01F073FA10BD10B592B05F
:104EA0000220089001200C9010200D9002200F90FD
:104EB00000211091C104119108A8FEF7FBF808B178
:104EC000FCF784FC0F200390022004900020059042
:104ED00006900790002103A8FDF732FF08B1FCF708
:104EE00075FC02200090002002906846FDF778FED5
:104EF00008B1FCF76BFCFEF743F84FF47A71B0FB96
:104F0000F1F42046FEF726FD0420FEF70FFD0022F7
:104F10000F21501EFDF711FE12B010BD124800689F
:104F200040F0010010490860084640680F490840F9
:104F30000D494860084600680D4908400A49086064
:104F40000846006820F4802008600846406820F485
:104F5000FE0048604FF41F0088600020C862C8034C
:104F60000449086070470000001002400000FFF88C
:104F7000FFFFF6FE08ED00E010B50248FEF76FFEF9
:104F800010BD0000F001002010B50248FEF767FEDA
:104F900010BD00002C020020002202681F4B984226
:104FA00008D0B0F1804F05D01D4B984202D01D4B68
:104FB000984203D122F070024B681A43174B984273
:104FC00011D0B0F1804F0ED0154B98420BD0154B3D
:104FD000984208D0144B984205D0144B984202D006
:104FE000134B984203D122F44072CB681A430260FB
:104FF0008B68C3620B688362084B984208D00A4BE7
:10500000984205D0094B984202D0094B984201D1F1
:105010000B6903630123436170470000002C0140CA
:1050200000040040000800400040014000440140EE
:105030000048014030B50C460021816821F47F41D1
:1050400042EA032525432943816030BD0A460021F9
:10505000816821F0700142F00703194381607047B5
:1050600030B50B46144600210022026A056A25F07D
:1050700001050562816921F0F00141EA041122F085
:105080000A021A438161026230BD30B50B461446F4
:1050900000210022056A25F0100505628169026A77
:1050A00021F4704141EA043122F0A00242EA0312E5
:1050B0008161026230BD70B505466C6A0020E085F2
:1050C000E084012084F83900E06B40F01000E063D8
:1050D0002046FEF7E5FE70BD70B505466C6A28688F
:1050E000006800F0200090B90020E0852068406949
:1050F00020F040002168486194F83900322803D13B
:10510000122084F8390002E0012084F8390020469A
:10511000FFF736F870BD70B50446656A2846FFF79C
:1051200039F870BD70B505466C6A2868006800F0F3
:10513000200070B90020E0842068406920F08000E1
:10514000216848612068C06840F040002168C8605C
:1051500002E02046FFF774F870BD70B50446656A3A
:105160002846FFF77BF870BD10B504462068C0687C
:1051700020F040002168C86094F83900322803D13B
:10518000222084F8390002E0012084F8390020460A
:10519000FFF756F8002010BD70B50446002694F8BD
:1051A0003960222E01D0322E52D1A068B0F5805F36
:1051B00013D1A56A206940B920684068C0F308008F
:1051C0002880A06A801CA06219E020684068C0B2F4
:1051D0002880A06A401CA06211E0206938B92068CC
:1051E0004068C1B2A26A501CA062117007E020683A
:1051F000406800F07F01A26A501CA0621170E08D2F
:10520000401E80B2E08508BB2068C06820F0200006
:105210002168C86094F83900322803D1122084F83C
:1052200039000EE02068C06820F480702168C860F2
:105230002068406920F0010021684861012084F85D
:1052400039002046FEF79CFF002070BD0020FCE7DF
:105250000220FAE72DE9F0410446002520680069A4
:1052600020F44050E1680843216808612169A06882
:105270000843616940EA01052068C06841F20C6199
:10528000884328432168C8602068406920F4407042
:10529000A1690843216848615F49206888425CD160
:1052A000FDF78AFE00EBC00101EB00106168890088
:1052B000B0FBF1F6FDF780FE00EBC00101EB001042
:1052C00061688900B0FBF1F06421B0FBF1F000EB04
:1052D000C00101EB0010A6EB8000322101EB0010B1
:1052E0006421B0FBF1F000F0F006FDF765FE00EB85
:1052F000C00101EB001061688900B0FBF1F064218E
:10530000B0FBF1F006EB0016FDF756FE00EBC00116
:1053100001EB001061688900B0FBF1F7FDF74CFE6E
:1053200000EBC00101EB001061688900B0FBF1F0F7
:105330006421B0FBF1F000EBC00101EB0010A7EB22
:105340008000322101EB00106421B0FBF1F000F08D
:105350000F003044216888605BE0FDF717FE00EB2A
:10536000C00101EB001061688900B0FBF1F6FDF7A8
:105370000DFE00EBC00101EB001061688900B0FB7D
:10538000F1F06421B0FBF1F000EBC00101EB001083
:10539000A6EB8000322101EB00106421B0FBF1F09C
:1053A00000F0F006FDF7F2FD00EBC00101EB00108C
:1053B00061688900B0FBF1F06421B0FBF1F006EB0D
:1053C0000016FDF7E3FD00EBC00101EB0010616882
:1053D0008900B0FBF1F7FDF7D9FD00EBC00101EB4F
:1053E000001061688900B0FBF1F06421B0FBF1F0BE
:1053F00000EBC00101EB0010A7EB8000322101EBB4
:1054000000106421B0FBF1F000F00F00304421687F
:105410008860BDE8F08100000038014010B5014609
:10542000002391F83930122B01D0322B2CD188680F
:10543000B0F5805F0FD10A6A1088C0F308000C68CD
:105440006060086918B9086A801C086209E0086A87
:10545000401C086205E00C6A601C086220780C6839
:105460006060C88C401E80B2C88458B90868C068A3
:1054700020F080000C68E0600868C06840F04000E0
:105480000C68E060002010BD0220FCE708B502882F
:10549000ADF800204288ADF80220009A0A6008BDED
:1054A00010B5104800680068C0F3C01028B10D485E
:1054B0000068C06800F0800070B90A4800680068A1
:1054C000C0F3801028B107480068C06800F04000B1
:1054D00010B901F01DFD10BD0248FEF7E7FC00BF4A
:1054E000F9E700006802002000BFFEE702E008C8FC
:1054F000121F08C1002AFAD170477047002001E04E
:1055000001C1121F002AFBD17047000010B5002412
:1055100006480078012806D1054800688047002029
:105520000249087000E00624204610BD2600002035
:105530002C0000202DE9F05F06460D464FF0000BD1
:105540002888052844D170784FEA002AB07840EACC
:105550000A0AF078040230790443012C35DBB4F5F3
:10556000FA6F32DA374600202880012007F8010B55
:105570002888401C288004F0070040B12046E1172D
:1055800004EB5171C910491C01F0FF0805E02046E9
:10559000E11704EB5171C1F3C70807F8018B2888A4
:1055A000401C2880002322465146384600F004FC67
:1055B0008146B9F1000F04D0484601F0DAF883467D
:1055C00008E028884044288004E04FF0030B01E005
:1055D0004FF0030B5846BDE8F09F2DE9F05F0646FB
:1055E0000D464FF0000B2888052843D170784FEA0C
:1055F000002AB07840EA0A0AF078040230790443BD
:10560000012C34DBB4F5FA6F31DA374600202880FC
:10561000022007F8010B2888401C288004F00700AE
:1056200040B12046E11704EB5171C910491C01F04B
:10563000FF0805E02046E11704EB5171C1F3C708EC
:1056400007F8018B2888401C28802246514638469E
:1056500000F0B6FB8146B9F1000F04D0484601F0D6
:1056600088F8834608E028884044288004E04FF00A
:10567000030B01E04FF0030B5846BDE8F09F2DE906
:10568000F04705460C464FF0000A2088052833D124
:1056900068784FEA0029A87840EA0909E878060204
:1056A0002E79012E25DB7D2E23DC2F460020208045
:1056B000032007F8010B2088401C20807006000E94
:1056C00007F8010B2088401C208000233246494601
:1056D000384600F079FB8046B8F1000F04D0404610
:1056E00001F047F8824609E0208800EB4600208060
:1056F00004E04FF0030A01E04FF0030A5046BDE812
:10570000F0872DE9F04705460C464FF0000A208847
:10571000052833D168784FEA0029A87840EA0909BA
:10572000E878060228790643012E24DB7D2E22DA52
:105730002F4600202080042007F8010B2088401C01
:1057400020807006000E07F8010B2088401C208086
:1057500032464946384600F04BFD8046B8F1000F0E
:1057600004D0404601F005F8824609E0208800EBAD
:105770004600208004E04FF0030A01E04FF0030AE6
:105780005046BDE8F0872DE9FC5F04460D46002039
:10579000009028880A285DDB60784FEA002AA0780C
:1057A00040EA0A0A0AF101001FFA80FAE0780602CC
:1057B0002079064360794FEA002BA07940EA0B0B71
:1057C0000BF101001FFA80FBE0790702207A074302
:1057D000607A0190012E3BDB7D2E39DC012F37DB17
:1057E000792F35DC79000198814231D101233A4685
:1057F000594604F10A0000F0E7FA8146B9F1000FBA
:105800001ED1A04600202880172008F8010B288808
:10581000401C28807006000E08F8010B2888401CE8
:105820002880002332465146404600F0CDFA81469A
:10583000B9F1000F04D12888022101FB060028805D
:10584000B9F1000F06D0484600F093FF009001E048
:10585000032000900098BDE8FC9F000070B505464D
:105860000C46064802880649681CFBF747FA0348BD
:105870000088401C2080002070BD00001400002023
:10588000840300202DE9F84304460E464FF000083B
:105890003088052827D160780702A078074320794F
:1058A000F0B9E078FF2801D0E078C8B900208DF881
:1058B0000100E078FF2803D101208DF8000002E00C
:1058C00000208DF8000001231A463946684600F092
:1058D00073FA05464DB1284600F04BFF804604E0C0
:1058E0004FF0030801E04FF003084046BDE8F8839D
:1058F0002DE9F04104460E464FF000083088052897
:1059000010D160780702A078074301231A46394670
:10591000E01C00F059FA054635B1284600F029FF91
:10592000804601E04FF003084046BDE8F0812DE9D4
:10593000F05F05460E464FF0000B3088052838DD35
:1059400068784FEA0029A87840EA0909E878040253
:105950002879044395F805A004F0070038B12046E3
:10596000E11704EB5171C910491CCFB205E0204684
:10597000E11704EB5171C1F3C707012C16DBB4F535
:10598000F66F13DC574511D1012322464946A81D65
:1059900000F012FA8046B8F1000F04D0404600F043
:1059A000E8FE834607E00520308004E04FF0030B5B
:1059B00001E04FF0030B5846BDE8F09F2DE9F0479A
:1059C00004460E464FF0000A3088062826DB607831
:1059D0004FEA0028A07840EA0808E078050220791C
:1059E000054394F80590012D15DB782D13DC68062E
:1059F000000E48450FD101232A464146A01D00F064
:105A0000E3F9074627B1384600F0B3FE824607E0C7
:105A10000520308004E04FF0030A01E04FF0030A54
:105A20005046BDE8F08700002DE9F04705460C46DA
:105A300016461F46DDF820904FF000081CB1012CDF
:105A400001DBF72C02DD4FF0020835E01C48047042
:105A500005BB1C481C4908601C481D4908601D48BE
:105A60001D4908601D481E49086000201D49086046
:105A70001D481E4908601E481E4908601E481F49EF
:105A800008604B463A4631460D48007800F0D8F899
:105A9000804602E04FF0020800BF00BFB8F1000FDF
:105AA0000AD101F0C5F910B94FF0030804E0144819
:105AB00005700120134908704046BDE8F0870000DA
:105AC000240000207D5D00082C000020A15D00085E
:105AD00030000020ED5C000828000020955C0008E4
:105AE0003400002038000020116F00083C00002026
:105AF000816F000840000020256F0008440000204E
:105B0000250000202600002038B5002541480078F7
:105B100008B1062038BD684601F078F9012877D130
:105B20009DF8000030B1012805D0022818D00328C4
:105B30006DD16BE06BE0384A38493948394B1B6806
:105B4000984705465DB93648007837490978884254
:105B500002D03348007810B9022001F071F956E004
:105B60002E480068007831490870012030490870DB
:105B7000002417E02F4810F8340000B914E02D4835
:105B800010F834002949097888420AD1294800EBE5
:105B9000C4002149426821480068904724490870A0
:105BA00002E0641C102CE5DB00BF1D48007858B3F0
:105BB0001F480078C8B10020174908801B480078AA
:105BC00040F08001144802880088401C124B188065
:105BD00012480068815416480278184601880088E7
:105BE000401C18800D480068425413480078012872
:105BF00000D100BF08480288084801680A480078B8
:105C00000E4B1B689847054601E001E000BF00BF4E
:105C100000207FE726000020D6000020D0000020D2
:105C2000D40000203400002024000020D5000020F3
:105C3000D80000205000002025000020280000206F
:105C40002DE9F04781460E4614461F464FF00008E6
:105C5000FBF7B8FD3B4608222146304601F0FCF830
:105C6000012802D04FF003080CE060000849B1FBA6
:105C7000F0F505B90125A8B201F018F9012801D005
:105C80004FF00308FBF7A0FD4046BDE8F087000099
:105C9000A07F17002DE9F04104460D4616464FF04F
:105CA00000080027FBF78EFD0E480088042812DB51
:105CB0000C4801880C4800F047FE60B90A4800789B
:105CC000207008480088C01E30800748401C2860AB
:105CD0004FF0010800E00527FBF776FD3846BDE8E8
:105CE000F0810000E60000200C0400202DE9F041C6
:105CF00005460E4617464FF00008FBF763FD1A48AD
:105D00000078012829D1701E18490860012018491F
:105D100008801648006805700846008838440880E6
:105D2000084601881148006800F00EFE044610493C
:105D30000888411C0E4B19800E490C54221219463A
:105D40000888411C19800B490A5401200A4908702F
:105D50000121002000F05EFE01E04FF00508FBF796
:105D600033FD4046BDE8F081DD000020E00000206A
:105D7000E40000200C040020DC00002010B5FBF73C
:105D800021FD0020054908700021012000F042FE9D
:105D900000F064FEFBF718FD10BD0000DD000020E0
:105DA00010B5FBF70FFD0021084600F033FE00F0B0
:105DB00045FEFBF709FD10BD10B50446012010BDDE
:105DC00003460120704700002DE9F84F05460F46B5
:105DD000164698464FF00009CA46B7F5FA6F6EDBD3
:105DE000B819B0F5FE6F6ADCF94800883C1AB8F1C2
:105DF000000F03D0B8F1010F72D172E0F5480068CE
:105E00000088F5490880F34909684868F249891C07
:105E1000FBF7E6FDEF4909688868EF49891DFBF744
:105E2000DFFDEC490968C868EB490A31FBF7D8FD8A
:105E3000E84909680869E8490E31FBF7D1FDE548F2
:105E40000068007DE449488200208882E1490968B1
:105E50008869E1491631FBF7C3FDDE490968C86965
:105E6000DD491A31FBF7BCFDDA490968086ADA49ED
:105E70001E31FBF7B5FDD7490968486AD64922317A
:105E8000FBF7AEFDD3490968886AD3492631FBF791
:105E9000A7FDD0490968C86ACF492A31FBF7A0FDA0
:105EA000CC490968086BCC492E31FBF799FDC949EB
:105EB0000968486BC8493231FBF792FD0EE091E169
:105EC000C54830F81400001205F8010BC24810F85C
:105ED000140005F8010B641C701E86B2002EEFDC66
:105EE00074E16AE115F8011B0802BB4921F81400AE
:105EF00015F8010B31F814100843B74921F81400C4
:105F00001B2C27D2DFE804F00E2627264426612624
:105F10007E9BAA26B826CB26DE26F626F426F32676
:105F2000F226F100AC4800880A2813DBAA48008852
:105F300042F2107188420DDCA64800680088A6492C
:105F40000988884206D0A4480088A24909680880C8
:105F50004FF0010A2DE169469F48801CFFF796FA31
:105F600000210098FBF778F911D89C490098FBF7BD
:105F700069F90CD89749096848680099FBF762F9F4
:105F800005D094490098096848604FF0010A10E173
:105F900069469148801DFFF779FA00210098FBF7C8
:105FA0005BF911D88D490098FBF74CF90CD8894959
:105FB000096888680099FBF745F905D0854800997C
:105FC000006881604FF0010AF3E0694682480A30B8
:105FD000FFF75CFA00210098FBF73EF911D87F49E2
:105FE0000098FBF72FF90CD87A490968C86800991E
:105FF000FBF728F905D0774800990068C1604FF099
:10600000010AD6E0694674480E30FFF73FFA0021D6
:106010000098FBF721F911D870490098FBF712F9A5
:106020000CD86C49096808690099FBF70BF905D091
:1060300068480099006801614FF0010AB9E06548BD
:106040000068007D6449498A884206D06248807CA5
:106050006049096808754FF0010AAAE05E48808A25
:1060600048B100205C49888200231A4619465C48E2
:10607000006801F033F99CE0694657481630FFF795
:1060800005FA5449096888690099FBF7DBF805D0DF
:1060900050490098096888614FF0010A89E0694613
:1060A0004D481A30FFF7F2F94A490968C869009962
:1060B000FBF7C8F805D0474800990068C1614FF068
:1060C000010A76E0694644481E30FFF7DFF941498E
:1060D0000968086A0099FBF7B5F805D03D480099B2
:1060E000006801624FF0010A63E04FE03BE027E007
:1060F00013E0FFE7694638482230FFF7C7F9354912
:106100000968486A0099FBF79DF805D03148009965
:10611000006841624FF0010A4BE069462E48263084
:10612000FFF7B4F92B490968886A0099FBF78AF8E8
:1061300005D028480099006881624FF0010A38E0D4
:10614000694625482A30FFF7A1F922490968C86A3B
:106150000099FBF777F805D01E4800990068C162E6
:106160004FF0010A25E069461B482E30FFF78EF9F3
:1061700018490968086B0099FBF764F805D01548C1
:106180000099006801634FF0010A12E06946124865
:106190003230FFF77BF90F490968486B0099FBF72C
:1061A00051F805D00B480099006841634FF0010A8F
:1061B00000BF00BF641C701E86B2002E3FF792AE77
:1061C000BAF1000F01D0FBF76BFA00BF0CE0000042
:1061D0001A0000200C000020CC0300200000FE422A
:1061E000080000204FF001094846BDE8F88F000084
:1061F0002DE9F04704460D4616464FF00008B5F568
:106200007A7F76DBA819B0F57F7F72DC3B48008887
:106210002F1A3B490888FBF7D3F9814639490860B2
:1062200039494846FBF7DCFB35494888FBF7C8F994
:1062300081463549091D4846FBF7D2FB304988881D
:10624000FBF7BEF98146304908314846FBF7C8FBE9
:106250002B49C888FBF7B4F981462B490C314846D5
:10626000FBF7BEFB26490889FBF7AAF981462649B8
:1062700010314846FBF7B4FB21494889FBF7A0F9E8
:106280008146214914314846FBF7AAFB1C498889FD
:10629000FBF796F981461C4918314846FBF7A0FBED
:1062A0001749C889FBF78CF9814617491C314846C4
:1062B000FBF796FB1548006890F8390012490884EE
:1062C0001348007848841348007888840DE00E480D
:1062D00030F81700001204F8010B0B4810F81700F3
:1062E00004F8010B7F1C701E86B2002EEFDC02E06A
:1062F000FFE74FF001084046BDE8F0871800002096
:10630000180300201C000020A40300200C00002023
:1063100006000020040000200448808D0349496BDA
:1063200009684968401A80B270470000680200207E
:10633000FCF784FBFEF7DEF9FEF7B2F9FEF740F951
:10634000FEF7E8FAFEF7B8FAFEF764FAFEF780FA0D
:10635000FEF7A4FDFBF764F90B20FCF7D3FBFBF77A
:10636000F1F9FBF721F9FEF763FBFEF7F1FA00F014
:1063700002F800BFFEE710B500F0D0FC002010BD11
:1063800010B501F023F9012801D000F079FE10BD0D
:1063900010B504460E48006844600E480068844208
:1063A00007D20B480168091D0B48006800F00CFB80
:1063B0000CE007480168091D0848006800F004FB6C
:1063C00007480068844201D20548046010BD0000FF
:1063D000F000002004010020F8000020F40000205C
:1063E000200100202DE9F04105460F461FB9A80005
:1063F00000F0F8F900E03846064656B15C2000F09F
:10640000F1F904460CB1266304E0304600F06AFB63
:1064100000E0002424B1A900A522206BFAF780FC3B
:106420002046BDE8F081000070B523E000F0A6FC36
:106430001348006808B9012000E00020054601F07B
:106440000FFABDB900F016FB0D48C068C468201DE6
:1064500000F096FA0B480068401E0A4908600A4896
:106460000068401E0849086000F026FB204600F046
:1064700062F800BF044800680028D7D170BD000052
:10648000F805002000010020FC00002070B5044643
:106490000D46206C70B1216CE0680844E0606168D2
:1064A000E068884201D32068E0602846226CE168F9
:1064B000FAF724FC70BD2DE9F04104460E4615465E
:1064C0000027206C40B9206878BB606801F02CF987
:1064D00007460020606028E07DB93146226CA06844
:1064E000FAF70CFC216CA0680844A060D4E9011004
:1064F00088421AD32068A06017E03146226CE06819
:10650000FAF7FCFB216CE068401AE0602168E06863
