:020000040800F2
:10000000B81B0020D9010008392F00080B2B00086D
:10001000E92E000805050008093700080000000067
:100020000000000000000000000000003501000892
:10003000590500080000000079010008C5300008DB
:10004000F3010008F3010008F3010008F3010008C0
:10005000F3010008F3010008F3010008F3010008B0
:10006000F3010008F3010008F30100080905000886
:10007000F3010008F301000819050008290500082C
:10008000F3010008F3010008F3010008000000007C
:10009000000000000000000000000000F301000864
:1000A000F3010008F3010008F3010008F301000860
:1000B000AD310008F3010008BD310008F30100086C
:1000C000F3010008F3010008F3010008F301000840
:1000D000F3010008C1360008F3010008F30100082D
:1000E000F3010008F3010008F3010008000000001C
:1000F0000000000000000000000000000000000000
:1001000000000000000000000000000000000000EF
:100110000000000000000000F3010008F3010008E7
:10012000DFF80CD000F0DEF8004800471D42000860
:10013000B81B0020204B19680868B0E8F00F80F366
:100140000988BFF36F8F4FF0000080F311884EF0E5
:100150000D0E70470000000006480068006880F33C
:10016000088862B661B6BFF34F8FBFF36F8F00DFB1
:1001700000BF00BF08ED00E0EFF30980BFF36F8F11
:100180000D4B1A6820E9F00F106008B54FF05000D1
:1001900080F3118804F0B2FB4FF0000080F3118867
:1001A000BDE8084019680868B0E8F00F80F30988D6
:1001B000BFF36F8F704700BFF0000020EFF3118096
:1001C0004FF0500181F31188704780F31188704718
:1001D000EFF3058070470000064880470648004757
:1001E000FEE7FEE7FEE7FEE7FEE7FEE7FEE7FEE7E7
:1001F000FEE7FEE7513100082101000840EA010353
:100200009B0703D009E008C9121F08C0042AFAD2CC
:1002100003E011F8013B00F8013B521EF9D2704790
:10022000D2B201E000F8012B491EFBD27047002238
:10023000F6E710B513460A4604461946FFF7F0FFE5
:10024000204610BD96230022114600F01DB820F074
:100250000040C10DC0F3160040F400007F2901DA10
:1002600000207047962903DCC1F19601C840704711
:100270009639884070470029A8BF7047401C490044
:1002800008BF20F00100704710B4B0FA80FC00FAFB
:100290000CF050EA010404BF10BC704749B1CCF126
:1002A000200421FA04F411FA0CF118BF01212143B2
:1002B0000843A3EB0C01CB1D4FEA00614FEA10206D
:1002C00042BF002010BC704700EBC350104400290F
:1002D000A4BF10BC7047401C490008BF20F00100BB
:1002E00010BC7047064C074D06E0E06840F0010383
:1002F00094E8070098471034AC42F6D3FFF714FF98
:10030000C4510008E451000870B58C1810F8015B66
:1003100015F0070301D110F8013B2A1106D110F89E
:10032000012B03E010F8016B01F8016B5B1EF9D1A2
:100330002B0705D40023521E0DD401F8013BFAE728
:1003400010F8013BCB1A921C03E013F8015B01F893
:10035000015B521EF9D5A142D8D3002070BD70B503
:10036000044600252068806800F00100F0B1206894
:10037000806820F001002168886000F025FF0546B4
:100380000EE000F021FF401B022809D9A06A40F0CE
:100390001000A062E06A40F00100E062012070BD40
:1003A0002068806800F001000028EAD10020F6E70C
:1003B00070B505466C6AA06A00F05000E0B9A06A0A
:1003C00040F40070A0622068806800F46020B0F5FE
:1003D000602F0DD1E06858B9A06A20F48070A06247
:1003E000A06A00F4805018B9A06A40F00100A06231
:1003F000204600F0B1F903E0206A016B28468847E7
:1004000070BD70B505466C6AA06A40F04000A062FD
:10041000E06A40F00400E062204600F09FF970BD01
:1004200070B50446656A284600F097F970BD000073
:1004300038B504460025002000902068806800F050
:10044000010080BB2068806840F00100216888605E
:10045000164800681649B0FBF1F0009002E00098E1
:10046000401E009000980028F9D100F0ADFE05462E
:1004700013E000F0A9FE401B02280ED9A06A40F04C
:100480001000A062E06A40F00100E06200BF0020BE
:1004900084F8240000BF012038BD2068806800F087
:1004A00001000028E5D00020F6E70000E40000206D
:1004B00040420F0000200349A1F84006012081F8C6
:1004C00043067047FC0200200020024981F84306E1
:1004D00070470000FC02002010B500200649A1F87A
:1004E000400681F8420681F8430608220349044881
:1004F00000F02EFA10BD0000FC0200206009002070
:100500003001002000BFFEE710B5024800F0CEFA2F
:1005100010BD00006001002010B5024800F0C6FACE
:1005200010BD0000C402002010B5024800F0BEFA61
:1005300010BD00008C02002010B5046863604468A0
:10054000102C04D10468A2600468E16003E0046830
:10055000A1600468E26010BD7047000010B5002281
:100560004FF48051074800F029FE00224FF400515B
:10057000044800F023FE00224FF48041014800F0BF
:100580001DFE10BD000C014072B6704762B6704788
:1005900000BFFEE778B5024600230020009000BFB0
:1005A00092F82400012801D1022078BD012082F8B0
:1005B000240000BF486807281DD21068446B0879E2
:1005C000401E4FF4787595FAA5F5B5FA85F56843A0
:1005D0001F25854024EA05000C79641E4FF47876C7
:1005E00096FAA6F6B6FA86F674430D68A540284337
:1005F000146860633DE048680D281DD21068046BE4
:100600000879C01F4FF4787595FAA5F5B5FA85F508
:1006100068431F25854024EA05000C79E41F4FF448
:10062000787696FAA6F6B6FA86F674430D68A54073
:100630002843146820631CE01068C46A08790D38E8
:100640004FF4787595FAA5F5B5FA85F568431F2539
:10065000854024EA05000C790D3C4FF4787696FA33
:10066000A6F6B6FA86F674430D68A54028431468CA
:10067000E06208680A281BD31068C46808780A3842
:10068000382595FAA5F5B5FA85F56843072585401F
:1006900024EA05000C780A3C382696FAA6F6B6FA43
:1006A00086F674438D68A54028431468E06017E01F
:1006B000106800690C78382595FAA5F5B5FA85F526
:1006C0006C430725A540A8430D78382696FAA6F670
:1006D000B6FA86F675438C68AC40204314682061F6
:1006E0000868102802D00868112827D1174C106814
:1006F000A0421ED11068806800F40000F0B91068B4
:10070000806840F400001468A0600868102815D1C3
:100710000F4800680F4CB0FBF4F000EB8000400085
:10072000009002E00098401E009000980028F9D147
:1007300004E0906A40F020009062012300BF002096
:1007400082F8240000BF18462FE700000024014073
:10075000E400002040420F007047704770470000DF
:100760002DE9F0410446002700250026A84614B9CB
:100770000120BDE8F081A06810B1606900B100BF40
:10078000A06A30B90020E06284F82400204600F01E
:1007900099F82046FFF7E3FD0746A06A00F0100035
:1007A000002876D1002FFCD1A06A20F4885040F0B8
:1007B0000200A062E16960680843022292FAA2F294
:1007C000B2FA82F2E168914008430643A068B0F5AE
:1007D000807F02D0A068012802D14FF4807000E031
:1007E000002005436069012816D1E06860B9A0695E
:1007F000401E4FF4604191FAA1F1B1FA81F18840B5
:1008000040F40060054307E0A06A40F02000A062C9
:10081000E06A40F00100E0622068406820F469402E
:100820002843216848602068806824490840304394
:1008300021688860A068B0F5807F02D0A068012898
:1008400002D14FF4807000E00020B0F5807F09D124
:100850002069401E4FF4700191FAA1F1B1FA81F1C3
:1008600000FA01F82068C06A20F4700040EA08002D
:100870002168C8622068806811490840B04209D1E7
:100880000020E062A06A20F0020040F00100A062B7
:1008900011E00BE0A06A20F0020040F01000A0621E
:1008A000E06A40F00100E062012704E0A06A40F045
:1008B0001000A062012738465BE70000FDF7E1FF6A
:1008C000FE0E1FFF10B586B004461C492068884202
:1008D00031D100BF1A48806940F40070184988611E
:1008E0000846806900F40070019000BF00BFFF203F
:1008F00002900320039002A9124800F0D1FA124896
:100900001249086000204860002110488160802161
:10091000C160490001618900416120218161C901F3
:10092000C16100F04BFA08B1FFF732FE00BF074883
:100930002062446200BF06B010BD000000240140E8
:100940000010024000080140080002406001002041
:100950002DE9F04104460D461646002700BF94F8E5
:100960002400012802D10220BDE8F081012084F892
:10097000240000BF2046FFF75BFD0746002F55D13E
:10098000A06A40F60161884340F48070A062A06ACA
:1009900020F48010A0622068406800F4806028B1D4
:1009A000A06A20F4005040F48050A062A06A00F4D5
:1009B000805020B1E06A20F00600E06201E00020F3
:1009C000E06200BF002084F8240000BF1B48216AB9
:1009D00088621B48216AC8621A48216A08636FF05E
:1009E0000200216808602068806840F480702168F7
:1009F0008860226802F14C0133462A46206A00F0E2
:100A000007FA2068806800F46020B0F5602F06D1F6
:100A10002068806840F4A000216888600BE02068AE
:100A2000806840F480102168886004E000BF0020E6
:100A300084F8240000BF384696E70000B1030008A0
:100A4000210400080304000870B50446002520684E
:100A5000006820F001002168086000F0B5FB054641
:100A600013E000F0B1FB401BB0F57A7F0DD9606B4D
:100A700040F020006063032084F8210000BF0020C4
:100A800084F8200000BF032070BD2068006800F0DB
:100A900001000028E5D1012084F8210000BF0020DA
:100AA00084F8200000BF00BFEEE7000010B5044648
:100AB000C1480068C04A08322168914201D108212A
:100AC00027E0BD4A1C322168914201D1802120E0FB
:100AD000B94A30322168914201D1C91419E0B64AAD
:100AE00044322168914202D14FF4004111E0B24AF0
:100AF00058322168914202D14FF4002109E0AE4AF8
:100B00006C322168914202D14FF4000101E04FF0B4
:100B10000061084000284DD020680068C0F3C00084
:100B200090B32068006820F0080021680860A2499E
:100B300008312068884201D1082028E09E491C31F4
:100B40002068884201D1802021E09B493031206813
:100B5000884201D1C0141AE0974944312068884284
:100B600002D14FF4004012E0934958312068884286
:100B700002D14FF400200AE08F496C31206888428E
:100B800003D14FF4000002E014E04FF000608A4906
:100B90004860606B40F001006063042084F821002D
:100BA00000BF002084F8200000BF206B10B1204659
:100BB000216B8847804800687F4A0832216891424B
:100BC00001D1042127E07C4A1C322168914201D1E5
:100BD000402120E0784A30322168914201D1091544
:100BE00019E0754A44322168914202D14FF48041A4
:100BF00011E0714A58322168914202D14FF48021AC
:100C000009E06D4A6C322168914202D14FF48001B3
:100C100001E04FF080610840A0B320680068C0F395
:100C2000800078B32068006800F0200028B92068B0
:100C3000006820F00400216808605F4908312068DE
:100C4000884201D1042028E05B491C312068884299
:100C500001D1402021E0584930312068884201D13B
:100C600000151AE0544944312068884202D14FF4FB
:100C7000804012E0504958312068884203D14FF437
:100C800080200AE013E04C496C312068884202D190
:100C90004FF4800001E04FF0806047494860112028
:100CA00084F82100E06A10B12046E16A8847424892
:100CB0000068414A08322168914201D1022127E0AF
:100CC0003D4A1C322168914201D1202120E03A4A5C
:100CD00030322168914201D1491519E0364A443237
:100CE0002168914202D14FF4005111E0324A58324A
:100CF0002168914202D14FF4003109E02E4A6C3252
:100D00002168914202D14FF4001101E04FF00071CF
:100D10000840A0B320680068C0F3400078B32068A2
:100D2000006800F0200028B92068006820F0020068
:100D300021680860204908312068884201D10220DA
:100D400028E01D491C312068884201D1202021E083
:100D5000194930312068884201D140151AE01649FE
:100D600044312068884202D14FF4005012E0124909
:100D700058312068884203D14FF400300AE01AE06D
:100D80000D496C312068884202D14FF4001001E017
:100D90004FF0007008494860606B6063012084F880
:100DA000210000BF002084F8200000BFA06A10B11D
:100DB0002046A16A884710BD00000240014600227B
:100DC00009B90120704791F8210010B9002081F87D
:100DD0002000022081F821000868026843F6F070C4
:100DE0008243D1E901031843CB6818430B691843C8
:100DF0004B6918438B691843CB6918430243086851
:100E0000026000204863012081F821000020D9E71A
:100E10002DE9F04104460D4616461F4600BF94F8E2
:100E20002000012802D10220BDE8F081012084F8D1
:100E3000200000BF022084F821002068006820F014
:100E40000100216808603B46324629462046FFF7EC
:100E500073FB2068006840F0020021680860206889
:100E6000006840F00400216808602068006840F0D5
:100E70000800216808602068006840F001002168CF
:100E800008600020D0E731B5002400F09DF9044649
:100E900000BF00F099F9001B00998842F9D338BDD2
:100EA0002DE9F8470346002400200025844600274A
:100EB00000226EE14FF0010808FA02F4D1F8008038
:100EC00008EA0400A0427DD1DFF8D0A2D1F8048066
:100ED000A8EB0A09D0453AD014DCB8F1030F50D082
:100EE00009DCB8F1000F31D0B8F1010F1CD0B8F116
:100EF000020F49D120E0B8F1110F18D0B8F1120F4C
:100F000042D11EE0B9F5881F25D006DCB9F5803F37
:100F100020D0B9F5801F37D11AE0B9F5001F18D0DD
:100F2000B9F5041F30D117E0D1F80CC02DE0D1F88D
:100F30000C8008F1040C28E0D1F80C8008F1080CB2
:100F400023E0D1F80C8008F10C0C1EE000BF00BFBC
:100F500000BF00BF00BF00BFD1F80880B8F1000F8C
:100F600002D14FF0040C0BE0D1F80880B8F1010F6A
:100F700003D14FF0080C1C6102E04FF0080C5C61DB
:100F800003E04FF0000C00E000BF00BFFF2801D8D5
:100F9000984601E003F104084646FF2802D84FEACC
:100FA000820803E0A2F108084FEA88084746D6F80D
:100FB00000804FF00F0909FA07F928EA09080CFA2E
:100FC00007F900E088E048EA0908C6F80080D1F88F
:100FD000048008F08058B8F1805F7DD100BFDFF851
:100FE000C081D8F8188048F00108DFF8B491C9F83A
:100FF0001880C846D8F8188008F00108CDF800809D
:1010000000BF00BF4FEAB9384FEA920958F829509B
:101010004FEA82784FEA18794FF00F0808FA09F87A
:1010200025EA0805DFF87C81434502D14FF000082E
:1010300016E0DFF87481434502D14FF001080FE05C
:10104000DFF86881434502D14FF0020808E0DFF87D
:101050006081434502D14FF0030801E04FF00408DE
:101060004FEA82794FEA197908FA09F848EA050542
:10107000DFF840814FEA920948F82950D1F80480FE
:1010800008F48038B8F5803F0AD1DFF82C81D8F811
:10109000008048EA0008DFF82091C9F8008009E0E4
:1010A000DFF81481D8F8008028EA0008DFF80891FA
:1010B000C9F80080D1F8048008F40038B8F5003F82
:1010C00010D1DFF8F48008F10408D8F8008048EA6D
:1010D0000008DFF8E49000E05AE009F10409C9F8DB
:1010E00000800DE0DFF8D08008F10408D8F8008017
:1010F00028EA0008DFF8C09009F10409C9F8008067
:10110000D1F8048008F48018B8F5801F0ED1DFF8FC
:10111000A88008F10808D8F8008048EA0008DFF83D
:10112000989009F10809C9F800800DE0DFF888807F
:1011300008F10808D8F8008028EA0008DFF878905D
:1011400009F10809C9F80080D1F8048008F40018F2
:10115000B8F5001F0ED1DFF8608008F10C08D8F850
:10116000008048EA0008DFF8509009F10C09C9F83E
:1011700000800DE0DFF8408008F10C08D8F800800E
:1011800028EA0008DFF8309009F10C09C9F800805E
:10119000521C102AFFF48EAEBDE8F8870000111033
:1011A0000010024000080140000C01400010014006
:1011B0000014014008000140000401400AB101612F
:1011C00001E00B04036170470148006870470000AC
:1011D000E000002070B50446002500260CB901206F
:1011E00070BD94F8350028B9002084F834002046FA
:1011F00000F04AF8242084F835002068006820F0C8
:1012000001002168086000F017FB06461C48B6FB89
:10121000F0F5206845601B496068884201D8681C69
:1012200007E04FF4967068434FF47A71B0FBF1F029
:10123000401C216808623146204601F069FC2168A3
:10124000C861D4E90701084321680860D4E90310A4
:10125000084321688860D4E9050108432168C86013
:101260002068006840F00100216808600020A06349
:10127000202084F83500002084F8360000BFAFE756
:1012800040420F00A086010010B586B004460F4909
:101290002068884218D14FF44060029012200390D9
:1012A0000320059002A90A48FFF7FAFD00BF09488C
:1012B000C06940F480000749C8610846C06900F46D
:1012C0008000019000BF00BF06B010BD0058004074
:1012D000000C01400010024002480068401C014917
:1012E00008607047E000002010B5032000F0BAF855
:1012F0000F2000F004F800F015F8002010BD70B5C4
:10130000044600F093FA4FF47A71B0FBF1F52846E9
:1013100000F076FF00222146501E00F064F8002005
:1013200070BD000008B500BF1F48806940F0010093
:101330001D4988610846806900F00100009000BFE7
:1013400000BF032000F08EF8002211466FF00B0062
:1013500000F049F8002211466FF00A0000F043F84F
:10136000002211466FF0090000F03DF800221146FE
:10137000501F00F038F800221146101F00F033F81B
:1013800000220F21901E00F02EF800220F21501E87
:1013900000F029F80548406820F0E06040F0007057
:1013A0000249486008BD00000010024000000140F2
:1013B00000BF00F01F0201219140034A430942F897
:1013C000231000BF7047000080E100E000BF00F084
:1013D0001F02012191404209920002F1E022C2F86D
:1013E000001100BF70472DE9F05F80460D4616469C
:1013F000002701F0A3FD074639462A46334601F08F
:101400000700C0F1070ABAF1040F02D94FF0040A2D
:1014100001E0C0F1070AD14600F1040ABAF1070F52
:1014200002D24FF0000A01E0A0F1030AD4464FF0C7
:10143000010A0AFA09FAAAF1010A0AEA020A0AFAF0
:101440000CFA4FF0010B0BFA0CFBABF1010B0BEAA2
:10145000030B4AEA0B042146404601F077FDBDE844
:10146000F09F000000BF00F00702064B19684FF61E
:10147000FF031940044B0B4343EA0221014B19605F
:1014800000BF70470CED00E00000FA05F8B5044617
:1014900000260025207800F00100002876D000BF4B
:1014A0004F48C06940F080504D49C8610846C06946
:1014B00000F08050009000BF00BF4A48006840F430
:1014C000807048490860FFF77FFE064606E0FFF798
:1014D0007BFE801B642801D90320F8BD41480068C9
:1014E00000F480700028F2D03D48006A00F4407596
:1014F000002D5DD0A08800F44070A84258D0384834
:10150000006A20F440750121080490FAA0F0B0FAB6
:1015100080F0354A02EB8000C0F800140020090476
:1015200091FAA1F1B1FA81F102EB8101C1F8000455
:101530002B48056205F0010048B3FFF745FE06465B
:1015400008E0FFF741FE801B41F28831884201D953
:101550000320C2E74020022191FAA1F1B1FA81F102
:1015600008430121B1EB601F02D11D48006811E062
:101570004020022191FAA1F1B1FA81F10843022140
:10158000B1EB601F04D11648006A03E018E00FE0D9
:101590001348406A4021022292FAA2F2B2FA82F281
:1015A000114301F01F020121914008400028C8D0DA
:1015B0000B48006A20F440706168084308490862DB
:1015C000207800F00200022807D10548406820F486
:1015D0004040A16808430249486000207DE70000C0
:1015E00000100240007000400000424270B5044606
:1015F0000E460025207800F00200022807D1884816
:10160000406820F0F000A1680843854948602078D0
:1016100000F0010000286ED0606801282DD1202044
:10162000010391FAA1F1B1FA81F108430121B1EB73
:10163000601F02D17A4800680FE02020010391FA70
:10164000A1F1B1FA81F108430221B1EB601F02D18F
:101650007348006A01E07248406A20210A0392FA46
:10166000A2F2B2FA82F2114301F01F02012191406D
:101670000840002860D1012070BD606802282CD18C
:101680002020010591FAA1F1B1FA81F1084301216D
:10169000B1EB601F02D1624800680FE02020010515
:1016A00091FAA1F1B1FA81F108430221B1EB601F77
:1016B00002D15B48006A01E05948406A20210A05CE
:1016C00092FAA2F2B2FA82F2114301F01F02012152
:1016D0009140084078BB0120CEE72020022191FAFA
:1016E000A1F1B1FA81F108430121B1EB601F03D1EF
:1016F0004B48006810E062E02020022191FAA1F13D
:10170000B1FA81F108430221B1EB601F02D14448D4
:10171000006A01E04248406A2021022292FAA2F2C5
:10172000B2FA82F2114301F01F02012191400840F8
:1017300008B90120A0E7FFE73948406820F003001E
:101740006168084336494860FFF73EFD054660681A
:10175000012810D108E0FFF737FD401B41F2883126
:10176000884201D9032087E72D48406800F00C002B
:101770000428F0D123E06068022810D108E0FFF7C8
:1017800023FD401B41F28831884201D9032073E7D1
:101790002348406800F00C000828F0D10FE008E072
:1017A000FFF712FD401B41F28831884201D9032026
:1017B00062E71B48406800F00C000028F0D1207858
:1017C00000F00400042807D11548406820F4E060C8
:1017D000E168084312494860207800F008000828B2
:1017E00008D10F48406820F46050216940EAC100E8
:1017F0000B49486000F04CF80949496801F0F001D4
:10180000F02292FAA2F2B2FA82F2D140054A515C79
:10181000C840054908600F20FFF771FD00202BE745
:1018200000100240A0510008E400002001480068B8
:1018300070470000E400002000B5FFF7F7FF0749FC
:10184000496801F4E0614FF4E06292FAA2F2B2FA60
:1018500082F2D140024A515CC84000BD00100240F3
:10186000B051000800B5FFF7E1FF0749496801F4EE
:1018700060514FF4605292FAA2F2B2FA82F2D14071
:10188000024A515CC84000BD00100240B05100083F
:10189000F0B588B027A7D7E901C63D68FF68CDE954
:1018A00005C6079704950FF29C0CDCE90075DCE98E
:1018B000026CCDE9026CCDE9007500210024002204
:1018C00000230020234D696801F00C0565B3042D49
:1018D00002D0082D27D101E01F4827E001F4701540
:1018E0004FF4701696FAA6F6B6FA86F6F54004AEF0
:1018F000735D01F480358DB1164DED6A05F00F056D
:101900000F2696FAA6F6B6FA86F6F5401DF80540BB
:10191000114DB5FBF4F505FB03F202E00F4D03FB9F
:1019200005F2104602E000BF0B4800BF00BF08B040
:10193000F0BD000002030405060708090A0B0C0DA0
:101940000E0F10100102030405060708090A0B0C0C
:101950000D0E0F100010024000127A0000093D0029
:1019600038B504460025207800F0010000287CD01E
:10197000F848406800F00C0004280CD0F548406896
:1019800000F00C00082837D1F248406800F480309D
:10199000B0F5803F30D12020010391FAA1F1B1FAD6
:1019A00081F108430121B1EB601F02D1E9480068D1
:1019B0000FE02020010391FAA1F1B1FA81F108436F
:1019C0000221B1EB601F02D1E248006A01E0E14868
:1019D000406A20210A0392FAA2F2B2FA82F211437B
:1019E00001F01F020121914008400028BFD060682B
:1019F00000283AD1012038BD00BF6068B0F5803FB3
:101A000006D1D448006840F48030D249086028E00C
:101A1000606858B9CF48006820F48030CD4908602C
:101A20000846006820F4802008601AE06068B0F57D
:101A3000A02F0BD1C748006840F48020C54908603A
:101A40000846006840F4803008600AE0C148006839
:101A500020F48030BF4908600846006820F48020E8
:101A6000086000BF6068C8B300E06FE0FFF7ACFB40
:101A7000054606E0FFF7A8FB401B642801D90320B8
:101A8000B9E72020010391FAA1F1B1FA81F10843ED
:101A90000121B1EB601F02D1AE4800680FE02020A9
:101AA000010391FAA1F1B1FA81F108430221B1EBEE
:101AB000601F02D1A748006A01E0A648406A2021C1
:101AC0000A0392FAA2F2B2FA82F2114301F01F0263
:101AD0000121914008400028CCD037E0FFE7FFF714
:101AE00073FB054606E0FFF76FFB401B642801D936
:101AF000032080E72020010391FAA1F1B1FA81F1DE
:101B000008430121B1EB601F02D1924800680FE049
:101B10002020010391FAA1F1B1FA81F108430221D9
:101B2000B1EB601F02D18B48006A01E08948406A2E
:101B300020210A0392FAA2F2B2FA82F2114301F0D2
:101B40001F020121914008400028CCD1207800F0EC
:101B5000020002284ED17F48406800F00C0050B1CE
:101B60007C48406800F00C00082844D1794840685F
:101B700000F4803078BB2020022191FAA1F1B1FA63
:101B800081F108430121B1EB601F02D17148006867
:101B90000FE02020022191FAA1F1B1FA81F108436E
:101BA0000221B1EB601F02D16A48006A01E0694876
:101BB000406A2021022292FAA2F2B2FA82F2114382
:101BC00001F01F0201219140084028B1206901283D
:101BD00002D001200FE70EE05E48006820F0F80018
:101BE000F82292FAA2F2B2FA82F2616991400843B5
:101BF0005849086091E02069F0B3012090FAA0F103
:101C0000B1FA81F1544A42F82100FFF7DDFA0546A6
:101C100006E0FFF7D9FA401B022801D90320EAE6C3
:101C20002020022191FAA1F1B1FA81F108430121AA
:101C3000B1EB601F02D1474800680FE0202002216D
:101C400091FAA1F1B1FA81F108430221B1EB601FD1
:101C500002D14048006A01E03E48406A2021022249
:101C600092FAA2F2B2FA82F2114301F01F020121AC
:101C700091400840002800E00FE0CAD035480068D5
:101C800020F0F800F82292FAA2F2B2FA82F2616928
:101C9000914008432F4908603FE00020012191FA5C
:101CA000A1F1B1FA81F12C4A42F82100FFF78CFA38
:101CB000054606E0FFF788FA401B022801D90320F9
:101CC00099E62020022191FAA1F1B1FA81F10843AD
:101CD0000121B1EB601F02D11E4800680FE02020F7
:101CE000022191FAA1F1B1FA81F108430221B1EB8D
:101CF000601F02D11748006A01E01648406A20219F
:101D0000022292FAA2F2B2FA82F2114301F01F0209
:101D10000121914008400028CCD1207800F0080033
:101D200008284BD1A069A8B3012191FAA1F0B0FA1B
:101D300080F0094A02EB8000C0F88014FFF744FAF3
:101D400005460BE0FFF740FA401B022806D90320A6
:101D500051E60000001002400000424260200221D3
:101D600091FAA1F1B1FA81F108430121B1EB601FB1
:101D700002D1F948006810E06020022191FAA1F137
:101D8000B1FA81F108430221B1EB601F03D1F2489F
:101D9000006A02E013E0F048406A6021022292FAF1
:101DA000A2F2B2FA82F2114301F01F020121914026
:101DB00008400028C6D00120FFF765F841E0002068
:101DC000012191FAA1F1B1FA81F1E44A02EB81011A
:101DD000C1F88004FFF7F8F9054606E0FFF7F4F9CB
:101DE000401B022801D9032005E66020022191FA58
:101DF000A1F1B1FA81F108430121B1EB601F02D1D9
:101E0000D54800680FE06020022191FAA1F1B1FAF3
:101E100081F108430221B1EB601F02D1CE48006A74
:101E200001E0CD48406A6021022292FAA2F2B2FAA1
:101E300082F2114301F01F02012191400840002865
:101E4000CCD1207800F00400042875D100BFC2482E
:101E5000C06940F08050C049C8610846C06900F0C0
:101E60008050009000BF00BFBD48006840F4807003
:101E7000BB490860FFF7A8F9054606E0FFF7A4F99B
:101E8000401B642801D90320B5E5B548006800F47B
:101E900080700028F2D000BFE068012806D1AE486B
:101EA000006A40F00100AC49086227E0E06858B9D8
:101EB000A948006A20F00100A74908620846006AA4
:101EC00020F00400086219E0E06805280BD1A24860
:101ED000006A40F00400A04908620846006A40F029
:101EE000010008620AE09C48006A20F001009A495B
:101EF00008620846006A20F00400086200BFE0683B
:101F0000D0B3FFF761F9054608E0FFF75DF9401B24
:101F100041F28831884201D903206CE5402002213A
:101F200091FAA1F1B1FA81F108430121B1EB601FEF
:101F300003D18948006810E058E04020022191FA5E
:101F4000A1F1B1FA81F108430221B1EB601F02D186
:101F50008148006A01E08048406A4021022292FAEA
:101F6000A2F2B2FA82F2114301F01F020121914064
:101F700008400028C9D039E0FFE7FFF725F90546FA
:101F800008E0FFF721F9401B41F28831884201D96E
:101F9000032030E54020022191FAA1F1B1FA81F14C
:101FA00008430121B1EB601F02D16B4800680FE0CC
:101FB0004020022191FAA1F1B1FA81F108430221F6
:101FC000B1EB601F02D16448006A01E06248406AD8
:101FD0004021022292FAA2F2B2FA82F2114301F0F7
:101FE0001F020121914008400028CAD1E069002861
:101FF00073D05948406800F00C0008286ED0E069A2
:1020000002286CD100204FF0807191FAA1F1B1FA51
:1020100081F1524A42F82100FFF7D6F8054606E062
:10202000FFF7D2F8401B022801D90320E3E4202067
:10203000010591FAA1F1B1FA81F108430121B1EB57
:10204000601F02D1444800680FE02020010591FA8A
:10205000A1F1B1FA81F108430221B1EB601F02D175
:102060003D48006A01E03C48406A20210A0592FA96
:10207000A2F2B2FA82F2114301F01F020121914053
:1020800008400028CCD1206AB0F5803F07D1324803
:10209000C06A20F00F00A16808432F49C862D4E944
:1020A000080108432C49496821F4741108432A495E
:1020B00048600121080690FAA0F0B0FA80F0274AA3
:1020C00042F82010FFF780F8054609E0FFF77CF89A
:1020D000401B022804D903208DE479E076E02CE04F
:1020E0002020010591FAA1F1B1FA81F10843012103
:1020F000B1EB601F02D1184800680FE020200105F5
:1021000091FAA1F1B1FA81F108430221B1EB601F0C
:1021100002D11148006A01E00F48406A20210A05F7
:1021200092FAA2F2B2FA82F2114301F01F020121E7
:10213000914008400028C9D04AE000204FF080714B
:1021400091FAA1F1B1FA81F1044A42F82100FFF7B6
:102150003BF805460DE0000000100240000042423E
:1021600000700040FFF730F8401B022801D903201F
:1021700041E42020010591FAA1F1B1FA81F108436F
:102180000121B1EB601F02D1124800680FE020204E
:10219000010591FAA1F1B1FA81F108430221B1EBF5
:1021A000601F02D10B48006A01E00A48406A202102
:1021B0000A0592FAA2F2B2FA82F2114301F01F026A
:1021C0000121914008400028CCD101E0012012E417
:1021D000002010E400100240042808D14FF0E02154
:1021E000096941F004014FF0E022116107E04FF06E
:1021F000E021096921F004014FF0E02211617047EC
:1022000070B504462546681EB0F1807F01D30120D9
:102210000FE0681E4FF0E02148610F214FF0FF30C2
:1022200000F094FE00204FF0E02188610720086153
:10223000002070BD70477047024600BF92F838001A
:10224000012801D102207047012082F8380000BF28
:10225000022082F839001068406820F0700013688E
:102260005860106840680B6818431368586010681D
:10227000806820F0800013689860106880684B6860
:10228000184313689860012082F8390000BF0020CD
:1022900082F8380000BF00BFD5E710B504460CB97E
:1022A000012010BD94F8390028B9002084F83800C6
:1022B000204600F00DF8022084F83900211D206826
:1022C00000F084FF012084F839000020E9E70000D5
:1022D00038B504462068B0F1804F16D100BF1848C9
:1022E000C06940F001001649C8610846C06900F0A5
:1022F0000100009000BF00BF002205211C20FFF755
:1023000072F81C20FFF762F819E00E492068884235
:1023100015D100BF0A48C06940F004000849C861EF
:102320000846C06900F00400009000BF00BF002212
:1023300005211E20FFF757F81E20FFF747F838BD8C
:10234000001002400008004001460868C06840F0E4
:1023500001000A68D0600868006840F001000A685F
:102360001060002070470146022081F8390000BF4C
:102370000868006A41F21112104050B90868006AFA
:102380009210104028B90868006820F001000A681F
:10239000106000BF012081F839000020704701461D
:1023A0000868C06820F001000A68D06000BF0868B3
:1023B000006A41F21112104050B90868006A921088
:1023C000104028B90868006820F001000A68106011
:1023D00000BF002070472DE9F04104460D4600265D
:1023E00000BF94F83800012802D10220BDE8F08136
:1023F000012084F8380000BF022084F839002068EA
:10240000866826F0770626F47F462068866028686E
:1024100050283BD00CDC202860D004DC002853D0AE
:10242000102865D155E030285DD0402860D141E0CA
:10243000602835D070280DD0B0F5805F03D0B0F59E
:10244000005F55D115E02068806820F00700216802
:1024500088604EE0D5E902136A68206800F004FF46
:102460002068866826F0770646F077062068866042
:102470003FE0D5E902136A68206800F0F5FE2068A5
:10248000806840F480402168886032E0EA686968CA
:10249000206800F0FFFE5021206800F0F1FE28E0E7
:1024A000EA686968206800F00AFF6021206800F08F
:1024B000E7FE1EE0EA686968206800F0EBFE402154
:1024C000206800F0DDFE14E00021206800F0D8FE56
:1024D0000FE01021206800F0D3FE0AE020212068E0
:1024E00000F0CEFE05E03021206800F0C9FE00E0DB
:1024F00000BF00BF012084F8390000BF002084F82D
:10250000380000BF00BF71E7704710B5044620686F
:102510000069C0F34000D8B12068C068C0F3400033
:10252000B0B16FF0020021680861012020762068B8
:10253000806900F0030018B12046FFF7E5FF05E0D1
:10254000204600F0ADF8204600F0D2F800202076BA
:1025500020680069C0F38000D8B12068C068C0F36B
:102560008000B0B16FF0040021680861022020767D
:102570002068806900F4407018B12046FFF7C4FF5E
:1025800005E0204600F08CF8204600F0B1F800206D
:10259000207620680069C0F3C000D8B12068C06808
:1025A000C0F3C000B0B16FF00800216808610420DA
:1025B00020762068C06900F0030018B12046FFF7BC
:1025C000A3FF05E0204600F06BF8204600F090F8ED
:1025D0000020207620680069C0F30010D8B1206880
:1025E000C068C0F30010B0B16FF01000216808613E
:1025F000082020762068C06900F4407018B1204699
:10260000FFF782FF05E0204600F04AF8204600F080
:102610006FF8002020762068006900F0010058B1B2
:102620002068C06800F0010030B16FF0010021683F
:102630000861204600F05EF820680069C0F3C01011
:1026400058B12068C068C0F3C01030B16FF080008E
:10265000216808612046FFF7EDFD20680069C0F39E
:10266000801058B12068C068C0F3801030B16FF09E
:10267000400021680861204600F050F82068006999
:10268000C0F3401058B12068C068C0F3401030B1AA
:102690006FF02000216808612046FFF7CCFD10BDD7
:1026A000704770B504460D460CB9012070BD94F812
:1026B000390028B9002084F83800204600F017F8C7
:1026C000022084F83900211D206800F07FFD206879
:1026D000006820F00800216808602068006828432E
:1026E00021680860012084F839000020DEE7704787
:1026F0007047000010B504462068B0F1804F05D047
:102700000549084428B902F0B7F902E000F0C6FC18
:1027100000BF00BF10BD000000F8FFBF704710B53C
:1027200004462068406920F0C00021684861206BA1
:1027300010B1206BFEF788F9606B10B1606BFEF78B
:1027400083F9012084F83900002010BD10B504463B
:10275000204601F037FF10BDF8B5044600250026DD
:102760002068006800F001052068C06800F48076E9
:1027700025B11EB1E06B40F00100E0632068006805
:10278000C0F340052068406900F0010625B11EB184
:10279000E06B40F00400E06320680068C0F380054F
:1027A00025B11EB1E06B40F00200E06320680068D4
:1027B000C0F3C00525B11EB1E06B40F00800E06336
:1027C00020680068C0F340152068C06800F020064B
:1027D0001DB116B1204600F0F9FD20680068C0F375
:1027E000C0152068C06800F080061DB116B12046F3
:1027F00000F02EFF20680068C0F380152068C068D4
:1028000000F040061DB116B1204600F0C7FDE06B98
:1028100070B100BF20680068009020684068009098
:1028200000BF00BF012084F839002046FFF78EFF6B
:10283000F8BD10B504460CB9012010BDA06900B167
:1028400000E000BF94F8390028B9002084F838006F
:10285000204600F025F8022084F839002068C0687E
:1028600020F400502168C860204600F00DFE20686A
:10287000006920F49040216808612068406920F0D8
:102880002A00216848612068C06840F4005021682F
:10289000C8600020E063012084F839000020CCE704
:1028A00010B586B0044633492068884260D100BF25
:1028B0003148806940F480402F498861084680692A
:1028C00000F48040019000BF00BF48150290022034
:1028D00003900320059002A92848FEF7E1FA4FF47F
:1028E0008060029000200390049002A92348FEF724
:1028F000D7FA234823490860002048600021214876
:1029000081608021C16000210161416181614FF4DA
:102910000051C161FEF752FA08B1FDF739FE00BF60
:1029200018486063446200BF1548143816490860AF
:10293000102048600021144881608021C16000217E
:102940000161416181614FF40051C161FEF736FAC6
:1029500008B1FDF71DFE00BF0B482063446200BFB5
:10296000002206212520FEF73EFD2520FEF72EFD44
:1029700006B010BD003801400010024000080140C0
:10298000580002408C020020C4020020F7B5044623
:102990001546002794F83970012F01D0122F3CD131
:1029A000019800B10DB90120FEBD00BF94F83800B8
:1029B000012801D10220F7E7012084F8380000BF88
:1029C0000198A062A5850020E06394F839001228E0
:1029D00003D1322084F8390002E0222084F8390043
:1029E0000F48616B88620F48616BC8620E48616B6B
:1029F000086301AE32682368191D2B46606BFEF731
:102A000007FA2068406940F040002168486100BF33
:102A1000002084F8380000BFC6E70220C4E70000A9
:102A20000D3300084B330008EB320008034A0168FD
:102A3000114401B900BF00BF7047000000C8FEBFCD
:102A400070470000F7B504461546002794F8397022
:102A5000012F01D0222F41D1019800B10DB90120E1
:102A6000FEBD00BF94F83800012801D10220F7E72D
:102A7000012084F8380000BF01982062A584E58415
:102A80000020E06394F83900222803D1322084F832
:102A9000390002E0122084F839001148216B886265
:102AA0001048216BC8621048216B086301AE23688F
:102AB0001A1D31682B46206BFEF7AAF96FF0400013
:102AC000216808602068406940F080002168486102
:102AD00000BF002084F8380000BFC1E70220BFE734
:102AE000593300088F330008EB32000810B5044654
:102AF00004492068084410B901F008FD00BF00BF78
:102B000010BD000000C8FEBF704700BFFEE7000018
:102B100010B502460B460021154C5068A0420BD858
:102B200050684000B3FBF0F1C1F30B00042801D260
:102B3000042010BD0846FCE74FF40041906830B90E
:102B4000506800EB4000B3FBF0F0014309E050682F
:102B500000EBC00404EB0010B3FBF0F040F4804045
:102B60000143C1F30B0008B90120E2E70846E0E7A2
:102B7000A08601000EB539483949086081153848EA
:102B800081600121C160002141614FF46021C16178
:102B9000002033494860082131480161FDF7E0FD1C
:102BA00008B1FDF7F5FC0020009001200190052000
:102BB000029069462A48FDF7EDFC08B1FDF7E8FCF4
:102BC000012000900220019069462548FDF7E2FCB3
:102BD00008B1FDF7DDFC022000900320019069465A
:102BE0001F48FDF7D7FC08B1FDF7D2FC0320009089
:102BF0000420019069461A48FDF7CCFC08B1FDF7A6
:102C0000C7FC042000900520019069461448FDF798
:102C1000C1FC08B1FDF7BCFC052000900620019026
:102C200069460F48FDF7B6FC08B1FDF7B1FC062078
:102C300000900720019069460948FDF7ABFC08B1F8
:102C4000FDF7A6FC07200090082001906946044883
:102C5000FDF7A0FC08B1FDF79BFC0EBD0024014070
:102C60003001002008B500BF1248406940F0010063
:102C7000104948610846406900F00100009000BF1B
:102C800000BF002207210B20FEF7ADFB0B20FEF753
:102C90009DFB002205210E20FEF7A5FB0E20FEF76E
:102CA00095FB002205210F20FEF79DFB0F20FEF76C
:102CB0008DFB08BD0010024000B585B000BF38484C
:102CC000806940F01000364988610846806900F04C
:102CD0001000009000BF00BF00BF0846806940F0B0
:102CE000040088610846806900F00400009000BF7D
:102CF00000BF00BF0846806940F0080088610846B0
:102D0000806900F00800009000BF00BF00BF0846C7
:102D1000806940F0200088610846806900F020004A
:102D2000009000BF00BF002247F2F8011D48FEF7E7
:102D300045FA00224FF4DE511B48FEF73FFA00220D
:102D400004211A48FEF73AFA47F2F80001900120F0
:102D500002900220049001A91248FEF7A1F84FF456
:102D60000040019000200290039001A90D48FEF759
:102D700097F84FF4DE500190012002900220049059
:102D800001A90948FEF78CF8042001900120029067
:102D90000220049001A90548FEF782F805B000BDA5
:102DA00000100240000C01400010014000140140DE
:102DB00010B50B480B4908600B48486000210948D2
:102DC0008160C1604FF480410161002141618161F6
:102DD000C1610162FEF7FEF908B1FDF7D9FB10BD34
:102DE0000058004098010020A086010000B587B07F
:102DF0004FF080401649086045F6C05048600021F9
:102E0000134881600A21C16000210161FFF745FA82
:102E100008B1FDF7BDFB4FF48050039003A90C48A7
:102E2000FFF7D9FA08B1FDF7B3FB08210848FFF70F
:102E300038FC08B1FDF7ACFB00200190029001A91D
:102E40000348FFF7F9F908B1FDF7A2FB07B000BD91
:102E5000D401002000B587B0134814490860002051
:102E600048600021114881604FF49661C1600021E3
:102E70000161FFF712FA08B1FDF78AFB4FF48050A9
:102E8000039003A90948FFF7A6FA08B1FDF780FBF4
:102E900000200190029001A90448FFF7CDF908B184
:102EA000FDF776FB07B000BD0008004010020020CF
:102EB00010B50B480B4908604FF4E1304860002121
:102EC00008488160C16001610C214161002181617C
:102ED000C161FFF7AEFC08B1FDF75AFB10BD000061
:102EE000003801404C02002000BFFEE71FB5002063
:102EF0004FF4E13302460A21009000F0BBFE044685
:102F000000200123CDE9003002900346802203A176
:102F10000390054801F07CFE1FBD00004D6F646208
:102F20007573207461736B002D2F000800F0FEFB99
:102F300000BF00F00FFFFCE7704700000248006888
:102F4000C0F30220704700000CED00E010B500282F
:102F500007DA0A07140E054A00F00F031B1FD454AA
:102F600003E00A07130E024A135410BD18ED00E0E7
:102F700000E400E070B504460D4600228021394887
:102F8000FEF71CF9002240213648FEF717F900220F
:102F900020213448FEF712F9002210213148FEF7B3
:102FA0000DF9002208212F48FEF708F9002204211C
:102FB0002D48FEF703F900224FF480512B48FEF70D
:102FC000FDF800224FF400612848FEF7F7F8012DC4
:102FD00047D1207A00F0010020B101228021214850
:102FE000FEF7ECF8207A00F0020020B10122402127
:102FF0001C48FEF7E3F8207A00F0040020B101221B
:1030000020211848FEF7DAF8207A00F0080020B1F5
:10301000012210211348FEF7D1F8207A00F01000A9
:1030200020B1012208210F48FEF7C8F8207A00F0ED
:10303000200020B1012204210B48FEF7BFF8207ABE
:1030400000F0400020B1012211030848FEF7B6F855
:10305000207A00F0800020B10122D1020348FEF75F
:10306000ADF870BD000C014000140140001001409B
:1030700010B5FDF71FFA01210648FFF77BFF01207D
:103080000449887200200449096848620248FFF731
:103090005BF910BD04000020D401002010B5002110
:1030A0000448FFF767FF002002498872FDF70CFA19
:1030B00010BD00000400002000BF4FF4FA7001F0C2
:1030C000E4F8FAE710B5FEF707F901F0EFF810BDE4
:1030D00010B592B00220089001200C9010200D90A5
:1030E00002200F9000211091C104119108A8FEF751
:1030F00037FC08B1FDF74CFA0F2003900220049032
:103100000020059006900790002103A8FEF76EFAB4
:1031100008B1FDF73DFA02200090002002906846B9
:10312000FEF7B4F908B1FDF733FAFEF77FFB4FF471
:103130007A71B0FBF1F42046FFF762F80420FFF744
:103140004BF800220F21501EFEF74DF912B010BDB2
:103150001248006840F001001049086008464068C5
:103160000F4908400D494860084600680D4908406D
:103170000A4908600846006820F480200860084674
:10318000406820F4FE0048604FF41F008860002073
:10319000C862C8030449086070470000001002407C
:1031A0000000FFF8FFFFF6FE08ED00E010B5024852
:1031B000FFF7ABF910BD0000D401002010B50248A4
:1031C000FFF7A3F910BD00001002002000220268E2
:1031D0001F4B984208D0B0F1804F05D01D4B98424C
:1031E00002D01D4B984203D122F070024B681A4363
:1031F000174B984211D0B0F1804F0ED0154B98422A
:103200000BD0154B984208D0144B984205D0144B64
:10321000984202D0134B984203D122F44072CB68FB
:103220001A4302608B68C3620B688362084B984242
:1032300008D00A4B984205D0094B984202D0094B5E
:10324000984201D10B690363012343617047000079
:10325000002C0140000400400008004000400140F4
:10326000004401400048014030B50C46002181680F
:1032700021F47F4142EA032525432943816030BD83
:103280000A460021816821F0700142F007031943CA
:103290008160704730B50B46144600210022026A57
:1032A000056A25F001050562816921F0F00141EA16
:1032B000041122F00A021A438161026230BD30B566
:1032C0000B46144600210022056A25F01005056210
:1032D0008169026A21F4704141EA043122F0A002BE
:1032E00042EA03128161026230BD70B505466C6A24
:1032F0000020E085E084012084F83900E06B40F094
:103300001000E0632046FFF721FA70BD70B5054656
:103310006C6A2868006800F0200090B90020E08501
:103320002068406920F040002168486194F8390025
:10333000322803D1122084F8390002E0012084F8F9
:1033400039002046FFF772FB70BD70B50446656A10
:103350002846FFF775FB70BD70B505466C6A286896
:10336000006800F0200070B90020E0842068406907
:1033700020F08000216848612068C06840F040006B
:103380002168C86002E02046FFF7B0FB70BD70B551
:103390000446656A2846FFF7B7FB70BD10B50446C2
:1033A0002068C06820F040002168C86094F83900A7
:1033B000322803D1222084F8390002E0012084F869
:1033C00039002046FFF792FB002010BD70B504467F
:1033D000002694F83960222E01D0322E52D1A068F6
:1033E000B0F5805F13D1A56A206940B920684068B4
:1033F000C0F308002880A06A801CA06219E0206841
:103400004068C0B22880A06A401CA06211E0206918
:1034100038B920684068C1B2A26A501CA06211701D
:1034200007E02068406800F07F01A26A501CA0629B
:103430001170E08D401E80B2E08508BB2068C06836
:1034400020F020002168C86094F83900322803D1A8
:10345000122084F839000EE02068C06820F48070E3
:103460002168C8602068406920F001002168486137
:10347000012084F839002046FFF7D8FA002070BDFB
:103480000020FCE70220FAE72DE9F0410446002580
:103490002068006920F44050E16808432168086111
:1034A0002169A0680843616940EA01052068C06895
:1034B00041F20C61884328432168C8602068406954
:1034C00020F44070A1690843216848615F49206881
:1034D00088425CD1FEF7C6F900EBC00101EB001099
:1034E00061688900B0FBF1F6FEF7BCF900EBC001A2
:1034F00001EB001061688900B0FBF1F06421B0FBC2
:10350000F1F000EBC00101EB0010A6EB80003221CE
:1035100001EB00106421B0FBF1F000F0F006FEF7C3
:10352000A1F900EBC00101EB001061688900B0FB5C
:10353000F1F06421B0FBF1F006EB0016FEF792F912
:1035400000EBC00101EB001061688900B0FBF1F7EE
:10355000FEF788F900EBC00101EB001061688900FB
:10356000B0FBF1F06421B0FBF1F000EBC00101EB26
:103570000010A7EB8000322101EB00106421B0FBAA
:10358000F1F000F00F003044216888605BE0FEF746
:1035900053F900EBC00101EB001061688900B0FB3A
:1035A000F1F6FEF749F900EBC00101EB001061688C
:1035B0008900B0FBF1F06421B0FBF1F000EBC00139
:1035C00001EB0010A6EB8000322101EB001064211A
:1035D000B0FBF1F000F0F006FEF72EF900EBC001B1
:1035E00001EB001061688900B0FBF1F06421B0FBD1
:1035F000F1F006EB0016FEF71FF900EBC00101EB3E
:10360000001061688900B0FBF1F7FEF715F900EBD7
:10361000C00101EB001061688900B0FBF1F064218A
:10362000B0FBF1F000EBC00101EB0010A7EB800054
:10363000322101EB00106421B0FBF1F000F00F002B
:10364000304421688860BDE8F08100000038014006
:1036500010B50146002391F83930122B01D0322BDE
:103660002CD18868B0F5805F0FD10A6A1088C0F34A
:1036700008000C686060086918B9086A801C086254
:1036800009E0086A401C086205E00C6A601C0862D8
:1036900020780C686060C88C401E80B2C88458B91D
:1036A0000868C06820F080000C68E0600868C068A6
:1036B00040F040000C68E060002010BD0220FCE7F4
:1036C00010B5104800680068C0F3C01028B10D485C
:1036D0000068C06800F0800070B90A48006800689F
:1036E000C0F3801028B107480068C06800F04000AF
:1036F00010B901F0C5F910BD0248FFF72DF800BF61
:10370000F9E700004C02002000BFFEE702E008C815
:10371000121F08C1002AFAD170477047002001E04B
:1037200001C1121F002AFBD17047000010B5002410
:1037300006480078012806D1054800688047002027
:103740000249087000E00624204610BD1E0000203B
:10375000240000202DE9F05F06460D464FF0000BD7
:103760002888052848D170784FEA0029B07840EAC7
:10377000090909F101001FFA80F9F0780402307993
:103780000443012C35DBB4F5FA6F32DA37460020FA
:103790002880012007F8010B2888401C288004F0AD
:1037A000070040B12046E11704EB5171C910491CD4
:1037B00001F0FF0805E02046E11704EB5171C1F369
:1037C000C70807F8018B2888401C28800023224660
:1037D0004946384600F016FC8246BAF1000F04D084
:1037E000504600F06DFE834608E02888404428805B
:1037F00004E04FF0030B01E04FF0030B5846BDE827
:10380000F09F2DE9F05F06460D464FF0000B28882B
:10381000052847D170784FEA0029B07840EA0909B5
:1038200009F101001FFA80F9F078040230790443AD
:10383000012C34DBB4F5FA6F31DA374600202880EA
:10384000022007F8010B2888401C288004F007009C
:1038500040B12046E11704EB5171C910491C01F039
:10386000FF0805E02046E11704EB5171C1F3C708DA
:1038700007F8018B2888401C288022464946384694
:1038800000F0C4FB8246BAF1000F04D0504600F0AD
:1038900017FE834608E028884044288004E04FF063
:1038A000030B01E04FF0030B5846BDE8F09F2DE9F4
:1038B000F04705460C464FF0000A2088052837D10E
:1038C00068784FEA0028A87840EA080808F1010063
:1038D0001FFA80F8E87806022E79012E25DB7D2E6E
:1038E00023DC2F4600202080032007F8010B2088CE
:1038F000401C20807006000E07F8010B2088401C39
:103900002080002332464146384600F083FB814642
:10391000B9F1000F04D0484600F0D2FD824609E01C
:10392000208800EB4600208004E04FF0030A01E00D
:103930004FF0030A5046BDE8F0872DE9F0470546F1
:103940000C464FF0000A2088052837D168784FEAE6
:103950000028A87840EA080808F101001FFA80F85A
:10396000E878060228790643012E24DB7D2E22DA30
:103970002F4600202080042007F8010B2088401CDF
:1039800020807006000E07F8010B2088401C208064
:1039900032464146384600F0C1FB8146B9F1000F7E
:1039A00004D0484600F08CFD824609E0208800EBF8
:1039B0004600208004E04FF0030A01E04FF0030AC4
:1039C0005046BDE8F0872DE9FC5F04460D46002017
:1039D000009028880A285DDB60784FEA002AA078EA
:1039E00040EA0A0A0AF101001FFA80FAE0780602AA
:1039F0002079064360794FEA002BA07940EA0B0B4F
:103A00000BF101001FFA80FBE0790702207A0743DF
:103A1000607A0190012E3BDB7D2E39DC012F37DBF4
:103A2000792F35DC79000198814231D101233A4662
:103A3000594604F10A0000F0EDFA8146B9F1000F91
:103A40001ED1A04600202880172008F8010B2888E6
:103A5000401C28807006000E08F8010B2888401CC6
:103A60002880002332465146404600F0D3FA814672
:103A7000B9F1000F04D12888022101FB060028803B
:103A8000B9F1000F06D0484600F01AFD009001E0A1
:103A9000032000900098BDE8FC9F000070B505462B
:103AA0000C46064802880649681CFCF7A7FB034839
:103AB0000088401C2080002070BD00001000002005
:103AC000700900202DE9F84304460F464FF0000826
:103AD0003888052829D160780502A0780543681C3C
:103AE00085B22079F0B9E078FF2801D0E078C8B934
:103AF00000208DF80100E078FF2803D101208DF827
:103B0000000002E000208DF8000001231A4629463B
:103B1000684600F077FA06464EB1304600F0D0FC19
:103B2000804604E04FF0030801E04FF003084046F0
:103B3000BDE8F8832DE9F04104460F464FF0000838
:103B40003888052812D160780502A0780543681CE2
:103B500085B201231A462946E01C00F05BFA0646AE
:103B600036B1304600F0ACFC804601E04FF003086F
:103B70004046BDE8F0812DE9F05F05460E464FF066
:103B8000000B3088052839DD68780702A8780743DC
:103B9000781C87B2E87804022879044395F805A0D8
:103BA00004F0070040B12046E11704EB5171C91041
:103BB000491C01F0FF0805E02046E11704EB5171B4
:103BC000C1F3C708012C16DBB4F5F66F13DCD04542
:103BD00011D1012322463946A81D00F013FA81466F
:103BE000B9F1000F04D0484600F06AFC834607E0B4
:103BF0000520308004E04FF0030B01E04FF0030B91
:103C00005846BDE8F09F2DE9F04704460E464FF0B8
:103C1000000A3088062828DB60780702A07807436E
:103C2000781C87B2E07805022079054394F8059066
:103C3000012D17DB782D15DC6806000E484511D1E3
:103C400001232A463946A01D00F0E4F98046B8F168
:103C5000000F04D0404600F033FC824607E0052008
:103C6000308004E04FF0030A01E04FF0030A5046B1
:103C7000BDE8F0872DE9F04705460C4616461F467D
:103C8000DDF820904FF000081CB1012C01DBF72C6F
:103C900002DD4FF0020835E01C48047005BB1C48EB
:103CA0001C4908601C481D4908601D481D490860E2
:103CB0001D481E49086000201D4908601D481E4916
:103CC00008601E481E4908601E481F4908604B4690
:103CD0003A4631460D48007800F0D8F8804602E0B8
:103CE0004FF0020800BF00BFB8F1000F0AD100F08A
:103CF00057FE10B94FF0030804E014480570012086
:103D0000134908704046BDE8F08700001C00002001
:103D1000C93F000824000020ED3F000828000020D3
:103D2000393F000820000020E13E00082C00002060
:103D300030000020814A000834000020F14A0008C9
:103D400038000020954A00083C0000201D0000209B
:103D50001E00002038B500254148007808B1062033
:103D600038BD684600F00AFE012877D19DF80000B2
:103D700030B1012805D0022818D003286DD16BE09E
:103D80006BE0384A38493948394B1B689847054633
:103D90005DB93648007837490978884202D03348FF
:103DA000007810B9022000F003FE56E02E480068AB
:103DB000007831490870012030490870002417E06C
:103DC0002F4810F8340000B914E02D4810F83400E2
:103DD0002949097888420AD1294800EBC4002149C1
:103DE00042682148006890472449087002E0641C3A
:103DF000102CE5DB00BF1D48007858B31F48007841
:103E0000C8B10020174908801B48007840F08001A5
:103E1000144802880088401C124B18801248006821
:103E2000815416480278184601880088401C188082
:103E30000D480068425413480078012800D100BFA3
:103E400008480288084801680A4800780E4B1B6839
:103E50009847054601E001E000BF00BF00207FE772
:103E60001E000020CE000020C8000020CC00002052
:103E70002C0000201C000020CD000020D0000020DD
:103E8000480000201D000020200000202DE9F04700
:103E900081460E4614461F464FF00008FCF774FB9F
:103EA0003B4608222146304600F08EFD012802D014
:103EB0004FF003080CE060000849B1FBF0F505B9CC
:103EC0000125A8B200F0AAFD012801D04FF0030897
:103ED000FCF75CFB4046BDE8F0870000A07F1700C0
:103EE0002DE9F04104460D4616464FF00008002724
:103EF000FCF74AFB0E480088042812DB0C480188B6
:103F00000C4800F095FB60B90A480078207008481A
:103F10000088C01E30800748401C28604FF0010810
:103F200000E00527FCF732FB3846BDE8F0810000D1
:103F3000DE000020D80900202DE9F04105460E469C
:103F400017464FF00008FCF71FFB1A4800780128BD
:103F500029D1701E184908600120184908801648A8
:103F600000680570084600883844088008460188C3
:103F70001148006800F05CFB044610490888411CA9
:103F80000E4B19800E490C54221219460888411C08
:103F900019800B490A5401200A49087001210020A8
:103FA00000F0ACFB01E04FF00508FCF7EFFA4046EB
:103FB000BDE8F081D5000020D8000020DC00002002
:103FC000D8090020D400002010B5FCF7DDFA00204D
:103FD000054908700021012000F090FB00F0B2FBC1
:103FE000FCF7D4FA10BD0000D500002010B5FCF796
:103FF000CBFA0021084600F081FB00F093FBFCF7B0
:10400000C5FA10BD10B50446012010BD03460120BD
:10401000704700002DE9F04704460F4616469846C3
:104020004FF00009B7F5FA6F6ADDB81940F2E17197
:10403000884265DC354800883D1AB8F1000F03D08E
:10404000B8F1010F5BD120E0314800883149088088
:104050002F494868FCF7FBF82E4948802C48007A25
:10406000C880002008810DE02A4830F815000012B1
:1040700004F8010B274810F8150004F8010B6D1C1B
:10408000701E86B2002EEFDC39E035E014F8011B1B
:104090000802204921F8150014F8010B31F8151019
:1040A00008431C4921F8150035B1012D09D0032D15
:1040B0000ED0042D1CD110E0164800881449088049
:1040C00016E014494888FCF7BDF8114948600FE034
:1040D000104880790E4908720AE00E48008930B114
:1040E00000200C490881FEF7C3FF0B49087000BF90
:1040F00000BF6D1C701E86B2002EC7DC00BF01E041
:104100004FF001094846BDE8F08700001600002086
:1041100004000020B8090020120000202DE9F04121
:1041200004460D4616464FF00008B5F57A7F57DD78
:10413000A81940F2FD31884252DC2C4800882F1A21
:104140002B490888FCF77EF82A49086028494888E6
:10415000FCF778F82749486025498888FCF772F809
:10416000244988602249C888FCF76CF82149C86056
:104170001F490889FCF766F81E4908611C494889EF
:10418000FCF760F81B49486119498889FCF75AF81F
:10419000184988611649C889FCF754F81549C8615F
:1041A0001548807A08841548B0F8400648841348BA
:1041B00090F84206888412480078C8840DE00D48C3
:1041C00030F81700001204F8010B0A4810F8170025
:1041D00004F8010B7F1C701E86B2002EEFDC01E09C
:1041E0004FF001084046BDE8F081000014000020B7
:1041F000600900209009002004000020FC0200203B
:10420000120000200448808D0349496B0968496801
:10421000401A80B2704700004C02002086B0FDF7C3
:1042200063F8FEF755FFFEF747FDFEF71BFDFEF7AF
:10423000A1FCFEF73DFEFEF70DFEFEF7B9FDFEF711
:10424000D5FD0B20FDF7B4F8FCF788F9FCF744F92D
:10425000FEF74CFE1422074901A8FBF7CFFF00210F
:1042600001A800F02BF80449086000F01AF800BF1C
:10427000FEE700008C4F00080000002001460020EF
:10428000842901D0CA1C1044704770B504462546E5
:104290000DB1294600E00121084600F0BFFA0020D8
:1042A00070BD10B500F0F2FA002010BD10B500F09E
:1042B0004BFD012801D000F09BFC10BD70B586B00D
:1042C00004460D46B4F90800FFF7D8FF0646002063
:1042D00005AACDE9012000960390238A9AB22B46C5
:1042E000D4E9001000F094FC012802D0002006B0B0
:1042F00070BD0598FBE7000010B504460E48006845
:1043000044600E480068844207D20B480168091DCA
:104310000B48006800F0CCF90CE007480168091D63
:104320000848006800F0C4F907480068844201D2D8
:104330000548046010BD0000F000002000010020CE
:10434000F8000020F40000201C0100202DE9F041BD
:1043500005460F461FB9A80000F0ECF800E038460B
:10436000064656B15C2000F0E5F804460CB1266321
:1043700004E0304600F02AFA00E0002424B1A9004D
:10438000A522206BFBF74CFF2046BDE8F08170476B
:1043900000BFFFF7FCFF034800680128F9D900F0CF
:1043A00031FAF6E7D81600202DE9F04704460F460B
:1043B00015469946DDF82080002607E0B95D04F136
:1043C00034008155B85D00B902E0761C102EF5D39B
:1043D00000BF002143200155072D00D30625E562CB
:1043E000E56400202065201D00F05FF904F118004D
:1043F00000F05BF92461C5F10700A0616462002050
:10440000606584F85800BDE8F087000010B500240E
:1044100007E004EB84010D4A02EB810000F038F95B
:10442000641C072CF5D30A4800F032F9094800F063
:104430002FF9094800F02CF9084800F029F9044840
:104440000749086003480749086010BDD8160020D6
:1044500064170020781700208C170020A017002078
:10446000F4000020F80000200A490968096809B929
:10447000012100E0002121B14FF0FF31064A116017
:1044800006E004490968C968C868034A41681160C0
:1044900070470000F40000201C010020074800685D
:1044A000401C08B9012000E0002018B9FBF786FE87
:1044B00000BFFEE7FBF782FE00BFFEE724010020FD
:1044C000014621B1012904D0072906D103E00020CB
:1044D00005E0022003E0062001E0042000BF00BF49
:1044E0007047000010B50024064800688047044665
:1044F0000CB1012000E0002018B14FF080500249BB
:10450000086010BD3C00002004ED00E010B5002460
:1045100006480068804704460CB1012000E00020F6
:1045200018B14FF080500249086010BD38000020DB
:1045300004ED00E070B50446002504F0070020B14A
:1045400004F00700C0F10800044400F0CFF912485D
:10455000006820B9114820F007000F490860104892
:104560000068204440F6F831884210D20C480068B8
:1045700020440B490968884209D90748006808495E
:10458000096845180648006820440549086000F09D
:1045900089FC284670BD0000EC000020E00A0020E5
:1045A000E8000020001F4FF080730360001F0160CF
:1045B000001F034B0360143802602038704700006E
:1045C0009D44000810B504460A492068084470B9A3
:1045D0004FF4807208490948FEF7D8F90748006887
:1045E000C06840F0200005490968C86000BF00BFEE
:1045F00010BD000000C8FEBFD80900204C020020FA
:1046000010B5044608492068084458B90748FEF721
:1046100086F806480068C06820F020000349096851
:10462000C86000BF00BF10BD00C8FEBF4C02002024
:1046300070B502460C46FF25FF2309E012F8010B76
:1046400080EA03010648405C80EA05030548455CB2
:10465000201EA4F10106B4B2F0D143EA052070BDDA
:10466000A04F0008A050000801460A69D1E90130B6
:104670009860D1E9010358605068884201D1886888
:104680005060002008611068401E1060106870477C
:1046900000F1080141604FF0FF31816000F1080135
:1046A000C160016100210160704700210161704714
:1046B00010B502460B685C1C0CB9106907E002F1EA
:1046C000080000E04068446824689C42FAD94468C5
:1046D0004C604C68A160886041600A611468641C89
:1046E000146010BD42684A6093688B60936859609B
:1046F0009160086103685B1C0360704770B50546F4
:104700000C461DB10548FFF75DFF02E00348FFF7C7
:1047100077FF14B102480068804770BD4C0200204A
:104720003800002010B50648FDF739FE0020044986
:1047300009684862801E02490968086110BD0000CE
:104740001002002010B500200349096848620248A1
:10475000FDF7FAFD10BD00001002002010B5FBF7B8
:104760002DFD0D480068401C0B490860BFF34F8FBA
:10477000BFF36F8F0846006801280BD10748006817
:10478000C0B208B9012000E0002018B9FBF716FDFF
:1047900000BFFEE710BD00002401002004ED00E092
:1047A00010B50948006818B9FBF708FD00BFFEE71F
:1047B00005480068401E044908600846006810B9B2
:1047C0000020FBF702FD10BD2401002010B50446B7
:1047D0000CB9012000E0002018B9FBF7EFFC00BF86
:1047E000FEE710BD064800684FF47A71B0FBF1F0A7
:1047F000401E4FF0E021486107200861704700002B
:10480000E40000204FF0805003490860BFF34F8F51
:10481000BFF36F8F7047000004ED00E070B50446F1
:10482000002634B31548006808B9012000E00020D4
:1048300018B9FBF7C3FC00BFFEE700F057F81048BB
:10484000006805190F480068001DFFF70DFF50B9FB
:104850000C48006890F82C10012088400A4909682B
:104860008143094801602846FFF746FD00F01AFB26
:1048700006460EB9FFF7C6FF70BD000020010020FC
:1048800000010020F0000020040100201FB50020DE
:10489000009001900290034680220EA103900F48E1
:1048A00000F0B6F90446012C0DD1FBF787FCA01EE1
:1048B0000B49086001200B49086000200A49086084
:1048C00000F046F904E01CB9FBF778FC00BFFEE7F6
:1048D0001FBD000049444C45000000009143000802
:1048E0001C0100200801002000010020024800688F
:1048F000401C0149086070472001002010B51A488B
:10490000006818B10120194908602BE00020174900
:10491000086017480068B0FA80F0C0F11F0404EB8B
:104920008400144951F8200008B1012000E0002063
:1049300018B9FBF743FC00BFFEE704EB84010D4A06
:1049400002EB810041684968416000F1080142685A
:104950008A4202D14168496841604168C968064A93
:10496000116000BF10BD00002001002010010020D8
:1049700004010020D8160020F0000020014600208D
:10498000054A127832B1054A12780A700022024BA9
:104990001A70012070470000190000201800002044
:1049A0000020024908700120704700001900002013
:1049B00001460120024A1070024801700120704730
:1049C00019000020180000202DE9F04106460C4691
:1049D00017461D4609480A490860084644600021F8
:1049E0008160C16005610C21416100218161C1616B
:1049F000FDF71FFF0120BDE8F081000000380140F5
:104A00004C02002070B504460D462A462146024855
:104A1000FEF718F8012070BD4C02002010B586B0DA
:104A200004461348FDF79FFC124811490860002016
:104A3000486000210E4881604FF4966060430C4945
:104A4000C86000210A480161FDF727FC4FF480503F
:104A5000029002A90648FDF7BEFC002000900190DC
:104A600069460348FDF7E8FB012006B010BD0000D1
:104A7000100200200008004010B5FFF733FD10BD04
:104A800010B5FFF75FFE022001490870002010BD3D
:104A9000D500002010B500241348007820B102286A
:104AA00007D003280BD109E00020FFF781FF04465F
:104AB00006E00120FFF77CFF044601E000E000BFB4
:104AC00000BFFFF72FFE00210846FFF717FEFFF794
:104AD00099FB0649088000210120FFF70FFE012005
:104AE00001490870204610BDD5000020DE000020DE
:104AF00010B500241348007810B101281ED104E03D
:104B000000210120FFF7FAFD18E00F48008848B1A6
:104B10000D4801880D480068FFF774FF00200A491E
:104B200008800AE00320FFF743FF0446002101202C
:104B3000FFF7E4FD00200349087000BF00BF2046D6
:104B400010BD0000D4000020DC000020D8000020B0
:104B50001CB52248014609780191FF2102461170D7
:104B60000146097800919DF8001001F050011C4A9F
:104B7000117007211B4A116009E01A490968491E92
:104B8000184A11609DF800104906090E00919DF821
:104B9000001001F080018029EFD012490968090254
:104BA000104A11601146098801F4E06111600B4A56
:104BB000019911700C48006840F470000A490860BF
:104BC0000846006840F070400860FFF70BFE0020C8
:104BD00006490860FBF7C0FA00201CBD00E400E0B5
:104BE000280100202C01002020ED00E024010020FD
:104BF00010B5FBF7E3FA00F0B7F818B14FF08050AA
:104C0000024908600020FBF7E0FA10BD04ED00E067
:104C10002DE9FF4F81B0804616469A46DDE90E5BCE
:104C2000B8F1000F03D1FBF7C9FA00BFFEE7072D6B
:104C300001D2012000E0002018B9FBF7BFFA00BF45
:104C4000FEE730461099FFF781FB0446002C5DD04B
:104C5000701E216B01EB800929F0070909F007009C
:104C600008B9012000E0002018B9FBF7A7FA00BF3F
:104C7000FEE700962A462046119B0299FFF794FB17
:104C8000524641464846FFF78DFC2060BBF1000FBD
:104C900001D0CBF80040FFF761FD25480068401CBB
:104CA000234908602348006840B922480460084648
:104CB000006801280CD1FFF7A9FB09E01E48006835
:104CC00030B91C480068C06AA84201D8194804607D
:104CD0001A480068401C194908600846006860646A
:104CE00094F82C100120884015490968084314499C
:104CF0000860E16A01EB8101124A02EB8100211D8B
:104D0000FFF7F0FC0127FFF74BFD01E04FF0FF3705
:104D1000012F09D10848006830B106480068C06A10
:104D2000A84201D2FFF76EFD384605B0BDE8F08F0E
:104D3000FC000020F00000200801002018010020E5
:104D400004010020D81600200549096809B901208E
:104D500005E00449096809B9022000E00020704715
:104D600008010020200100202DE9F0414FF000084B
:104D700041480068002872D140480068401C3F4903
:104D8000086008460668DEB93D480068006808B952
:104D9000012000E0002018B9FBF710FA00BFFEE781
:104DA0003748076837480068354908603548076064
:104DB00035480068401C34490860FFF755FB00BFC8
:104DC0003248006886423CD300BF2D480068006826
:104DD00008B9012000E0002020B14FF0FF302B493E
:104DE00008602DE026480068C068C4686568AE4267
:104DF00002D22648056023E0201DFFF735FCA06A9B
:104E000018B104F11800FFF72FFC94F82C100120C2
:104E100088401F49096808431D490860E16A01EBA1
:104E200081011C4A02EB8100211DFFF75BFC1A493E
:104E3000E06A0968C96A8842C7D34FF00108C4E72D
:104E400000BF15480068C06A00EB8000114951F8A6
:104E50002000012808D94FF0010805E0FFE70F48BE
:104E60000068401C0D4908600D48006808B14FF00B
:104E700001084046BDE8F08120010020000100202B
:104E8000F4000020F8000020140100201C01002084
:104E900004010020D8160020F00000200C010020A2
:104EA0001001002070B500253048006818B9FBF7E4
:104EB00085F900BFFEE7FFF751FC2C480068401E53
:104EC0002A4908600846006800284BD12848006835
:104ED000002847D024E02748C068C46804F11800BF
:104EE000FFF7C2FB201DFFF7BFFB94F82C10012039
:104EF00088402149096808431F490860E16A01EBBD
:104F000081011E4A02EB8100211DFFF7EBFB1C49CA
:104F1000E06A0968C96A884202D301201949086019
:104F20001448006808B9012000E000200028D2D011
:104F30001548006878B10AE0FFF716FF10B10120AC
:104F40001049086010480068401E0F4908600E486C
:104F500000680028F0D10B480068012802D1012523
:104F6000FFF750FCFFF71CFC284670BD2001002015
:104F7000FC0000208C17002004010020D81600201F
:104F8000F0000020100100200C010020B8510008A2
:104F9000B9300008FDFF00000000000080000000A4
:104FA00000C1814001C0804101C0804100C18140F9
:104FB00001C0804100C1814000C1814001C08041E9
:104FC00001C0804100C1814000C1814001C08041D9
:104FD00000C1814001C0804101C0804100C18140C9
:104FE00001C0804100C1814000C1814001C08041B9
:104FF00000C1814001C0804101C0804100C18140A9
:1050000000C1814001C0804101C0804100C1814098
:1050100001C0804100C1814000C1814001C0804188
:1050200001C0804100C1814000C1814001C0804178
:1050300000C1814001C0804101C0804100C1814068
:1050400000C1814001C0804101C0804100C1814058
:1050500001C0804100C1814000C1814001C0804148
:1050600000C1814001C0804101C0804100C1814038
:1050700001C0804100C1814000C1814001C0804128
:1050800001C0804100C1814000C1814001C0804118
:1050900000C1814001C0804101C0804100C1814008
:1050A00000C0C101C30302C2C60607C705C5C404C8
:1050B000CC0C0DCD0FCFCE0E0ACACB0BC90908C838
:1050C000D81819D91BDBDA1A1EDEDF1FDD1D1CDC28
:1050D00014D4D515D71716D6D21213D311D1D01098
:1050E000F03031F133F3F23236F6F737F53534F488
:1050F0003CFCFD3DFF3F3EFEFA3A3BFB39F9F838F8
:1051000028E8E929EB2B2AEAEE2E2FEF2DEDEC2CE7
:10511000E42425E527E7E62622E2E323E12120E057
:10512000A06061A163A3A26266A6A767A56564A447
:105130006CACAD6DAF6F6EAEAA6A6BAB69A9A868B7
:1051400078B8B979BB7B7ABABE7E7FBF7DBDBC7CA7
:10515000B47475B577B7B67672B2B373B17170B017
:105160005090915193535292965657975595945407
:105170009C5C5D9D5F9F9E5E5A9A9B5B9959589877
:10518000884849894B8B8A4A4E8E8F4F8D4D4C8C67
:1051900044848545874746868242438341818040D7
:1051A00000000000000000000102030406070809D7
:1051B000000000000102030464656661756C7454AC
:1051C00061736B00E4510008000000203001000012
:1051D000080300083452000830010020881A00003B
:1051E0001C37000841F26465E903D1070229023245
:1051F00011139D3A330804133B3933080313AF38B6
:1052000033081013073C33080613353B3308171ACD
:10521000C72032011355373308051AC538320F1A23
:10522000772029721A0338014D2B366E6F01391A17
:04523000AA0181004E
:0400000508000121CD
:00000001FF
