:020000040800F2
:10000000D0190020B90C0008794A00086B4200089A
:10001000294A0008291400081D53000800000000A8
:10002000000000000000000000000000150C0008A7
:100030004D15000800000000590C0008D74C0008BE
:10004000D30C0008D30C0008D30C0008D30C000814
:10005000D30C0008D30C0008D30C0008D30C000804
:10006000D30C0008D30C0008D30C0008FD140008C2
:10007000D30C0008D30C00080D1500081D1500084E
:10008000D30C0008D30C0008D30C000800000000BB
:10009000000000000000000000000000D30C000879
:1000A000D30C0008D30C0008D30C0008D30C0008B4
:1000B000C14D0008D30C0008D14D0008D30C000836
:1000C000D30C0008D30C0008D30C0008D30C000894
:1000D000D30C0008D5520008D30C0008D30C00083C
:1000E000D30C0008D30C0008D30C0008000000005B
:1000F0000000000000000000000000000000000000
:1001000000000000000000000000000000000000EF
:100110000000000000000000D30C0008D30C000811
:020000040800F2
:1004000000000000000000000000000000000000EC
:1004100000000000000000000000000000000000DC
:080420000000000000000000D4
:020000040800F2
:1008000000000000000000000000000000000000E8
:1008100000000000000000000000000000000000D8
:080820000000000000000000D0
:020000040800F2
:100C0000DFF80CD000F0E6FA00480047655E000807
:100C1000D0190020204B19680868B0E8F00F80F365
:100C20000988BFF36F8F4FF0000080F311884EF0FA
:100C30000D0E70470000000006480068006880F351
:100C4000088862B661B6BFF34F8FBFF36F8F00DFC6
:100C500000BF00BF08ED00E0EFF30980BFF36F8F26
:100C60000D4B1A6820E9F00F106008B54FF05000E6
:100C700080F3118805F0BCFC4FF0000080F3118870
:100C8000BDE8084019680868B0E8F00F80F30988EB
:100C9000BFF36F8F704700BFE8000020EFF31180B3
:100CA0004FF0500181F31188704780F3118870472D
:100CB000EFF305807047000006488047064800476C
:100CC000FEE7FEE7FEE7FEE7FEE7FEE7FEE7FEE7FC
:100CD000FEE7FEE7654D0008010C0008202A04DB52
:100CE000203A21FA02F00021704721FA02F3D040A5
:100CF000C2F12002914008431946704740EA0103BF
:100D00009B0703D009E008C9121F08C0042AFAD2C1
:100D100003E011F8013B00F8013B521EF9D2704785
:100D2000D2B201E000F8012B491EFBD2704700222D
:100D3000F6E710B513460A4604461946FFF7F0FFDA
:100D4000204610BD10B5002200E0521C835C8C5C74
:100D5000A34201D1002BF8D1D8B2E1B2401A10BDA4
:100D600030B480EA010202F0004530F0004221F088
:100D7000004013D090B1C30DD40DC2F31601C0F3DF
:100D80001600E41A41F4000140F400027D3491425F
:100D900001D3641C00E04900002C02DA30BC0020C2
:100DA00070474FF400000023914201D3891A034396
:100DB00040084FEA4101F7D151B1914202D14FF0C1
:100DC000004105E002D24FF0010101E06FF00101A6
:100DD00003EBC450284430BC00F068B92DE9FE4F45
:100DE00081EA030404F0004421F0004100944FF034
:100DF000000B23F0004350EA01045ED052EA0304E2
:100E00005BD0C3F30A54C1F30A552C44A4F2F33463
:100E10000194A0FB0254C1F3130141F48011C3F308
:100E2000130343F4801301FB024400FB034E840AC6
:100E3000970A44EA815447EA8357A4FB076802955E
:100E40008D0A05FB07854FEA932C04FB0C542705FC
:100E5000029D4FEA065847EA1637B5EB08056EEBD8
:100E6000070C870E920E47EA811742EA8312A7FB0E
:100E70000201B6EB0B0164EB00042B0D43EA0C33CB
:100E80005E1844EB1C50DA465146E7FB0201C5F3FD
:100E900013044FEA0B3343EA14534FEA0432019C24
:100EA00043EA0603A4F10C040294009CCDE900B4CB
:100EB00000F042F903B0BDE8F08F00200146F9E7E9
:100EC0002DE9F04D81EA030404F0004B21F00045C8
:100ED00014464FF0000A23F0004150EA050220D0EA
:100EE00054EA01021DD0C5F30A570246C5F31303A5
:100EF000C1F31300C1F30A5640F4801543F4801384
:100F0000A7EB0608101BD64608F2FD3873EB050068
:100F100002D308F1010801E092185B41B8F1000F1B
:100F200003DA00200146BDE8F08D00204FF4801167
:100F3000064684460EE0171B73EB050705D3121B0C
:100F400063EB050306434CEA010C49084FEA300005
:100F500092185B4150EA0107EDD152EA030012D02A
:100F600082EA040083EA0501084305D0101BAB4167
:100F700006D20122002306E000224FF0004302E0E7
:100F80006FF0010253101AEB06004CEB085110EB06
:100F90000A0041EB0B01BDE8F04D00F0BEB896230E
:100FA0000022114600F08BB8C1F30A5210B5C1F30C
:100FB000130140F2FF3341F480119A4201DA00201C
:100FC00010BD40F233439A42A2F2334203DC524254
:100FD000FFF784FE10BD904010BD00F0004230F0DD
:100FE00000400AD0C10D01F56071C0F3160042EA5D
:100FF0000151C20840071143704700200146704765
:1010000030B5041E71F1000404DB4FF0004440428F
:1010100064EB0101141E73F1000405DB1C464FF064
:101020000043524263EB04038B4208BF824230BD4F
:1010300030B5041E71F1000404DB4FF0004440425F
:1010400064EB0101141E73F1000405DB1C464FF034
:101050000043524263EB0403994208BF904230BD03
:1010600001F0004330B421F0004150EA010206D003
:101070000A0DA2F56072C1F31301002A02DC30BC34
:1010800000207047440F44EAC104C100E01830BC9E
:1010900000EBC25000F00AB8002801DBC0F10040AC
:1010A000002901DBC1F10041814270470029A8BF3E
:1010B0007047401C490008BF20F00100704710B481
:1010C000B0FA80FC00FA0CF050EA010404BF10BC36
:1010D000704749B1CCF1200421FA04F411FA0CF163
:1010E00018BF012121430843A3EB0C01CB1D4FEA9C
:1010F00000614FEA102042BF002010BC704700EB97
:10110000C35010440029A4BF10BC7047401C4900C4
:1011100008BF20F0010010BC704710B5141E73F119
:10112000000408DA401C41F1000192185B411A43A7
:1011300001D120F0010010BD2DE9F04D92469B46F3
:1011400011B1B1FA81F202E0B0FA80F22032904699
:1011500000F052F804460F4640EA0A0041EA0B014B
:1011600053465A46084313D0114653EA010019D09A
:10117000C8F140025046FFF7B1FD05460E46504605
:101180005946424600F038F8084305D0012004E0F3
:1011900020463946BDE8F08D0020054346EAE0765A
:1011A0002C4337430A986305E40AA0EB08000022A9
:1011B000FD0A44EA47540A3002D500200146E9E717
:1011C000010510196941DDE9084500196941BDE8CB
:1011D000F04DA2E7064C074D06E0E06840F0010341
:1011E00094E8070098471034AC42F6D3FFF70CFDA3
:1011F000E06E0008006F0008202A04DB203A00FAA5
:1012000002F1002070479140C2F1200320FA03F35D
:1012100019439040704770B58C1810F8015B15F0B9
:10122000070301D110F8013B2A1106D110F8012B58
:1012300003E010F8016B01F8016B5B1EF9D12B077D
:1012400005D40023521E0DD401F8013BFAE710F833
:10125000013BCB1A921C03E013F8015B01F8015B20
:10126000521EF9D5A142D8D3002070BD70B50446F6
:1012700000252068806800F00100F0B120688068D7
:1012800020F001002168886001F078FA05460EE040
:1012900001F074FA401B022809D9A06A40F010003E
:1012A000A062E06A40F00100E062012070BD2068A9
:1012B000806800F001000028EAD10020F6E770B550
:1012C00005466C6AA06A00F05000E0B9A06A40F4DC
:1012D0000070A0622068806800F46020B0F5602F84
:1012E0000DD1E06858B9A06A20F48070A062A06AAD
:1012F00000F4805018B9A06A40F00100A0622046B6
:1013000000F086FB03E0206A016B2846884770BD29
:1013100070B505466C6AA06A40F04000A062E06AC1
:1013200040F00400E062204600F074FB70BD70B530
:101330000446656A284600F06CFB70BD38B504466B
:101340000025002000902068806800F0010080BB2C
:101350002068806840F001002168886016480068B5
:101360001649B0FBF1F0009002E00098401E00909A
:1013700000980028F9D101F001FA054613E001F0C8
:10138000FDF9401B02280ED9A06A40F01000A062AF
:10139000E06A40F00100E06200BF002084F8240011
:1013A00000BF012038BD2068806800F001000028DF
:1013B000E5D00020F6E70000E400002040420F00E6
:1013C00010B508220249034800F028FC10BD0000B7
:1013D0002C030020400100202DE9FC5F824650468E
:1013E000FFF7DDFD0C490090FFF7BAFC8346FFF7DD
:1013F000F4FD80464FF06632084BFFF7EFFC0646DF
:10140000074A084BFFF75CFD0446FFF729FE0190F1
:101410000198BDE8FC9F000000F07F4566660A4029
:10142000DFE00B93A92A414000BFFEE710B517A1EA
:101430001948FFF787FC18B91748184908601DE0DC
:1014400012A11748FFF77EFC18B915481349086028
:1014500014E00B221049134800F0BAF9002802DA10
:101460004FF0FF3010BD0E4800F0E8F8002802DA17
:101470004FF0FF30F6E7084808490860282207487F
:1014800001680948FFF73AFC0020EBE74346475F55
:10149000534543544F520000000400080C00002044
:1014A00000080008946C00083C03002010B50F48A9
:1014B00000680F49884201D10E4C00E00C4C0B2211
:1014C00021460D4800F084F9002802DA4FF0FF3081
:1014D00010BD0648006800F0B1F8002802DA4FF0AD
:1014E000FF30F5E7014804600020F1E70C00002020
:1014F00000040008000800083C03002010B5024862
:1015000000F03AFC10BD00007001002010B5024848
:1015100000F032FC10BD0000D402002010B50248DB
:1015200000F02AFC10BD00009C02002010B50468E9
:1015300063604468102C04D10468A2600468E16010
:1015400003E00468A1600468E26010BD7047000019
:101550002DE9F05F82464FF0000B00215046FFF767
:101560009BFD08D35046FFF738FD044600220D4B83
:10157000FFF75EFD02D20020BDE8F09F5046FFF766
:101580002CFD80460022074BFFF79AFC06460022FE
:10159000054BFFF723FC0446FFF706FD00F0FF0BA9
:1015A0005846E9E70000144000C05F4010B5002233
:1015B0004FF48051074801F0DBF800224FF400514E
:1015C000044801F0D5F800224FF48041014801F0B1
:1015D000CFF810BD000C014033B583B0044601259F
:1015E0009DF810001049085504F00300001D0290FA
:1015F0000120034602AAE02100900C4801F03CF9CA
:101600000546022D03D1094802F032FE09E045B932
:101610000120034604AA5C210090044801F02CF943
:101620000546284605B030BD04000020A801002072
:1016300072B6704762B6704700BFFEE710B586B05D
:101640000446002002900390012005900C4884423B
:1016500002D10C48049002E04FF00820049000F002
:101660003FFE01A902A800F081FD28B100F0D6FDDF
:101670004FF0FF3006B010BD00F0D0FD0020F9E7BC
:1016800000040008000400080021074AD16107494E
:10169000096941F00401054A11611146096941F0E7
:1016A0004001116170470000D0040020002002407A
:1016B0000021074AD1610749096941F00201054A41
:1016C000116111464861096941F04001116170479B
:1016D000D0040020002002400022054BDA61054AB8
:1016E000126942F00102034B1A6101807047000049
:1016F000D0040020002002401748C06800F010000D
:1017000028B11648C06940F002001449C861124867
:10171000C06800F0040028B11048C06940F0010022
:101720000E49C8610C48C06900F0010068B10B485F
:10173000C06940F004000949C86100BF0648C0699B
:1017400020F001000449C86100BF00BF1420024915
:10175000C86000BF7047000000200240D004002095
:1017600070B5044601F00AF8054609E0601C38B17E
:1017700024B101F003F8401BA04201D9032070BD41
:101780001248C06800F001000028EFD10F48C0687F
:1017900000F0200020B100BF20200C49C86000BF2D
:1017A0000A48C06800F0100048B90848C06900F055
:1017B000010020B90548C06800F0040018B1FFF727
:1017C0009BFF0120DBE70020D9E70000002002405A
:1017D000F0B585B004460D461646002001900290F3
:1017E000012004901748854202D11748039002E077
:1017F0004FF00820039000F073FD694601A800F047
:10180000B5FC28B100F00AFD4FF0FF3005B0F0BD87
:10181000002710E0D4F800C06246002329460220C9
:1018200000F006FD20B100F0F9FC4FF0FF30EDE7CD
:101830007F1C241D2D1DB742ECDB00F0EFFC0020C7
:10184000E4E70000000400080004000878B5024640
:1018500000230020009000BF92F82400012801D14D
:10186000022078BD012082F8240000BF48680728C4
:101870001DD21068446B0879401E4FF4787595FAB4
:10188000A5F5B5FA85F568431F25854024EA0500CE
:101890000C79641E4FF4787696FAA6F6B6FA86F6B8
:1018A00074430D68A5402843146860633DE04868B0
:1018B0000D281DD21068046B0879C01F4FF478758D
:1018C00095FAA5F5B5FA85F568431F25854024EA04
:1018D00005000C79E41F4FF4787696FAA6F6B6FA6E
:1018E00086F674430D68A5402843146820631CE005
:1018F0001068C46A08790D384FF4787595FAA5F523
:10190000B5FA85F568431F25854024EA05000C7962
:101910000D3C4FF4787696FAA6F6B6FA86F674433E
:101920000D68A54028431468E06208680A281BD3A4
:101930001068C46808780A38382595FAA5F5B5FA0C
:1019400085F568430725854024EA05000C780A3CA4
:10195000382696FAA6F6B6FA86F674438D68A54040
:1019600028431468E06017E0106800690C78382597
:1019700095FAA5F5B5FA85F56C430725A540A8436A
:101980000D78382696FAA6F6B6FA86F675438C6870
:10199000AC402043146820610868102802D0086811
:1019A000112827D1174C1068A0421ED110688068FA
:1019B00000F40000F0B91068806840F4000014687A
:1019C000A0600868102815D10F4800680F4CB0FBC4
:1019D000F4F000EB80004000009002E00098401E10
:1019E000009000980028F9D104E0906A40F02000AF
:1019F0009062012300BF002082F8240000BF184637
:101A00002FE7000000240140E400002040420F00C6
:101A100070477047704700002DE9F04104460027E9
:101A200000250026A84614B90120BDE8F081A06871
:101A300010B1606900B100BFA06A30B90020E06257
:101A400084F82400204600F099F82046FFF70EFCA9
:101A50000746A06A00F01000002876D1002FFCD1C4
:101A6000A06A20F4885040F00200A062E16960683A
:101A70000843022292FAA2F2B2FA82F2E16891409D
:101A800008430643A068B0F5807F02D0A068012813
:101A900002D14FF4807000E0002005436069012806
:101AA00016D1E06860B9A069401E4FF4604191FA18
:101AB000A1F1B1FA81F1884040F40060054307E0EC
:101AC000A06A40F02000A062E06A40F00100E062FD
:101AD0002068406820F469402843216848602068F5
:101AE000806824490840304321688860A068B0F5C8
:101AF000807F02D0A068012802D14FF4807000E0FE
:101B00000020B0F5807F09D12069401E4FF470019C
:101B100091FAA1F1B1FA81F100FA01F82068C06AE6
:101B200020F4700040EA08002168C86220688068DC
:101B300011490840B04209D10020E062A06A20F0BB
:101B4000020040F00100A06211E00BE0A06A20F06A
:101B5000020040F01000A062E06A40F00100E06284
:101B6000012704E0A06A40F01000A0620127384677
:101B70005BE70000FDF7E1FFFE0E1FFF10B586B02A
:101B8000044620492068884239D100BF1E48806938
:101B900040F400701C4988610846806900F40070B8
:101BA000019000BF00BFFE2002900320039002A915
:101BB000164800F047FC012002900320039002A980
:101BC000134800F03FFC13481349086000204860A8
:101BD0000021114881608021C160490001618900B4
:101BE000416120218161C901C16100F04DFA08B154
:101BF000FFF722FD00BF08482062446200BF06B024
:101C000010BD000000240140001002400008014007
:101C1000000C014008000240700100202DE9F04155
:101C200004460D461646002700BF94F824000128FC
:101C300002D10220BDE8F081012084F8240000BF19
:101C40002046FFF77BFB0746002F55D1A06A40F6E0
:101C50000161884340F48070A062A06A20F4801083
:101C6000A0622068406800F4806028B1A06A20F477
:101C7000005040F48050A062A06A00F4805020B16F
:101C8000E06A20F00600E06201E00020E06200BFB0
:101C9000002084F8240000BF1B48216A88621B488A
:101CA000216AC8621A48216A08636FF0020021683D
:101CB00008602068806840F480702168886022682D
:101CC00002F14C0133462A46206A00F007FA2068E8
:101CD000806800F46020B0F5602F06D1206880682D
:101CE00040F4A000216888600BE02068806840F420
:101CF00080102168886004E000BF002084F8240080
:101D000000BF384696E70000BF1200082F130008F6
:101D10001113000870B5044600252068006820F003
:101D200001002168086000F029FD054613E000F07D
:101D300025FD401BB0F57A7F0DD9606B40F0200087
:101D40006063032084F8210000BF002084F8200095
:101D500000BF032070BD2068006800F0010000286B
:101D6000E5D1012084F8210000BF002084F8200084
:101D700000BF00BFEEE7000010B50446C148006890
:101D8000C04A08322168914201D1082127E0BD4AAA
:101D90001C322168914201D1802120E0B94A3032C1
:101DA0002168914201D1C91419E0B64A4432216830
:101DB000914202D14FF4004111E0B24A58322168F9
:101DC000914202D14FF4002109E0AE4A6C32216801
:101DD000914202D14FF4000101E04FF00061084050
:101DE00000284DD020680068C0F3C00090B3206880
:101DF000006820F0080021680860A24908312068C6
:101E0000884201D1082028E09E491C312068884280
:101E100001D1802021E09B4930312068884201D1E6
:101E2000C0141AE0974944312068884202D14FF427
:101E3000004012E0934958312068884202D14FF4A3
:101E400000200AE08F496C312068884203D14FF4AA
:101E5000000002E014E04FF000608A494860606BC7
:101E600040F001006063042084F8210000BF0020DE
:101E700084F8200000BF206B10B12046216B8847FA
:101E8000804800687F4A08322168914201D10421CC
:101E900027E07C4A1C322168914201D1402120E098
:101EA000784A30322168914201D1091519E0754A0A
:101EB00044322168914202D14FF4804111E0714ACD
:101EC00058322168914202D14FF4802109E06D4AD5
:101ED0006C322168914202D14FF4800101E04FF051
:101EE00080610840A0B320680068C0F3800078B328
:101EF0002068006800F0200028B92068006820F001
:101F00000400216808605F4908312068884201D1D7
:101F1000042028E05B491C312068884201D1402020
:101F200021E0584930312068884201D100151AE07B
:101F3000544944312068884202D14FF4804012E075
:101F4000504958312068884203D14FF480200AE07C
:101F500013E04C496C312068884202D14FF4800074
:101F600001E04FF0806047494860112084F821006B
:101F7000E06A10B12046E16A884742480068414A59
:101F800008322168914201D1022127E03D4A1C32EA
:101F90002168914201D1202120E03A4A3032216863
:101FA000914201D1491519E0364A443221689142E3
:101FB00002D14FF4005111E0324A58322168914267
:101FC00002D14FF4003109E02E4A6C32216891426F
:101FD00002D14FF4001101E04FF000710840A0B3AE
:101FE00020680068C0F3400078B32068006800F003
:101FF000200028B92068006820F0020021680860ED
:10200000204908312068884201D1022028E01D497A
:102010001C312068884201D1202021E0194930314B
:102020002068884201D140151AE0164944312068E1
:10203000884202D14FF4005012E012495831206812
:10204000884203D14FF400300AE01AE00D496C31A8
:102050002068884202D14FF4001001E04FF0007078
:1020600008494860606B6063012084F8210000BF6C
:10207000002084F8200000BFA06A10B12046A16AA9
:10208000884710BD000002400146002209B9012026
:10209000704791F8210010B9002081F8200002203B
:1020A00081F821000868026843F6F0708243D1E9A4
:1020B00001031843CB6818430B6918434B69184355
:1020C0008B691843CB6918430243086802600020FB
:1020D0004863012081F821000020D9E72DE9F04173
:1020E00004460D4616461F4600BF94F820000128FE
:1020F00002D10220BDE8F081012084F8200000BF59
:10210000022084F821002068006820F00100216886
:1021100008603B46324629462046FFF707FA20680A
:10212000006840F00200216808602068006840F004
:102130000400216808602068006840F008002168F9
:1021400008602068006840F00100216808600020F5
:10215000D0E731B5002400F011FB044600BF00F0C9
:102160000DFB001B00998842F9D338BD2DE9F041E1
:1021700004460E460127002500BF2648007E0128A0
:1021800002D10220BDE8F08101202249087600BF7B
:102190002068022813D14CF25030FFF7E1FA90BBCF
:1021A0000120FFF771FA4CF25030FFF7D9FA0746D9
:1021B0001948006920F004001749086123E04CF237
:1021C0005030FFF7CDFAF0B94FF0FF303060A5681E
:1021D00012E02846FFF76CFA4CF25030FFF7C0FAD5
:1021E00007460D48006920F002000B4908610FB155
:1021F000356007E005F58065D4E9021001EB802029
:10220000A842E6D800BF00BF00200249087600BF00
:102210003846B7E7D0040020002002400348006998
:1022200040F0800001490861002070470020024012
:102230002DE9FE4F05468B46174698460126002499
:102240000020029000BF2448007E012802D1022015
:10225000BDE8FE8F01202049087600BF4CF25030C7
:10226000FFF77EFA064686BB012D02D101200290BF
:1022700006E0022D02D10220029001E0042002902B
:1022800000241EE02201B946C24648465146FEF7E8
:1022900025FD80B20190022000FB04B0009001995E
:1022A000FFF71AFA4CF25030FFF75AFA06460B487D
:1022B000006920F001000949086106B104E0601CD2
:1022C000C4B202988442DDDB00BF00BF0020024997
:1022D000087600BF3046BBE7D00400200020024053
:1022E0000748006900F0800028B1064804494860AA
:1022F0000548486001E0012070470020FCE700002D
:102300000020024023016745AB89EFCD2DE9F04164
:1023100002460B4600200021002400267FE0012712
:10232000874007EA0301002978D0FF2901D8174622
:1023300000E0171D3D46FF2901D8870002E0A0F10B
:102340000807BF003E462F684FF00F0C0CFA06FC42
:1023500027EA0C074FF0040C0CFA06FC47EA0C07BE
:102360002F60D7688F43D760304F4FEA900C57F8F3
:102370002C4087074FEA177C0F2707FA0CF73C40E1
:102380002B4FBA4201D100270FE02A4FBA4201D1A8
:1023900001270AE0284FBA4201D1022705E0274F62
:1023A000BA4201D1032700E004274FEA807C4FEABC
:1023B0001C7C07FA0CF7A74230D187074FEA177C3D
:1023C0000F2707FA0CF4194F4FEA900C57F82C70AE
:1023D000A743DFF858C04FEA90084CF82870184F10
:1023E0003F688F43DFF858C0CCF800700CF1040749
:1023F0003F688F430CF1040CCCF800700CF104071B
:102400003F688F430CF1040CCCF800700CF104070A
:102410003F688F430CF1040CCCF80070401C23FA89
:1024200000F7002F7FF47BAFBDE8F081080001408A
:1024300000080140000C0140001001400014014060
:10244000000401402DE9F847034600240020002540
:102450008446002700226EE14FF0010808FA02F4DA
:10246000D1F8008008EA0400A0427DD1DFF8D0A2B4
:10247000D1F80480A8EB0A09D0453AD014DCB8F1B1
:10248000030F50D009DCB8F1000F31D0B8F1010FC3
:102490001CD0B8F1020F49D120E0B8F1110F18D0CB
:1024A000B8F1120F42D11EE0B9F5881F25D006DC25
:1024B000B9F5803F20D0B9F5801F37D11AE0B9F5C2
:1024C000001F18D0B9F5041F30D117E0D1F80CC0A7
:1024D0002DE0D1F80C8008F1040C28E0D1F80C8034
:1024E00008F1080C23E0D1F80C8008F10C0C1EE078
:1024F00000BF00BF00BF00BF00BF00BFD1F8088011
:10250000B8F1000F02D14FF0040C0BE0D1F80880B5
:10251000B8F1010F03D14FF0080C1C6102E04FF03D
:10252000080C5C6103E04FF0000C00E000BF00BF4E
:10253000FF2801D8984601E003F104084646FF2829
:1025400002D84FEA820803E0A2F108084FEA88089F
:102550004746D6F800804FF00F0909FA07F928EA34
:1025600009080CFA07F900E088E048EA0908C6F80B
:102570000080D1F8048008F08058B8F1805F7DD1E8
:1025800000BFDFF8C081D8F8188048F00108DFF8F4
:10259000B491C9F81880C846D8F8188008F0010826
:1025A000CDF8008000BF00BF4FEAB9384FEA92096A
:1025B00058F829504FEA82784FEA18794FF00F08FF
:1025C00008FA09F825EA0805DFF87C81434502D1BD
:1025D0004FF0000816E0DFF87481434502D14FF058
:1025E00001080FE0DFF86881434502D14FF002088F
:1025F00008E0DFF86081434502D14FF0030801E0B5
:102600004FF004084FEA82794FEA197908FA09F87D
:1026100048EA0505DFF840814FEA920948F8295059
:10262000D1F8048008F48038B8F5803F0AD1DFF88B
:102630002C81D8F8008048EA0008DFF82091C9F81A
:10264000008009E0DFF81481D8F8008028EA00084B
:10265000DFF80891C9F80080D1F8048008F4003848
:10266000B8F5003F10D1DFF8F48008F10408D8F87D
:10267000008048EA0008DFF8E49000E05AE009F141
:102680000409C9F800800DE0DFF8D08008F10408E3
:10269000D8F8008028EA0008DFF8C09009F10409A2
:1026A000C9F80080D1F8048008F48018B8F5801FBC
:1026B0000ED1DFF8A88008F10808D8F8008048EAB1
:1026C0000008DFF8989009F10809C9F800800DE0CA
:1026D000DFF8888008F10808D8F8008028EA0008A8
:1026E000DFF8789009F10809C9F80080D1F8048072
:1026F00008F40018B8F5001F0ED1DFF8608008F16B
:102700000C08D8F8008048EA0008DFF8509009F17A
:102710000C09C9F800800DE0DFF8408008F10C08D2
:10272000D8F8008028EA0008DFF8309009F10C0999
:10273000C9F80080521C102AFFF48EAEBDE8F8875D
:10274000000011100010024000080140000C014080
:102750000010014000140140080001400004014045
:10276000024693680B400BB1012000E00020704747
:102770000AB1016101E00B04036170470148006880
:1027800070470000E000002010B504460CB901209D
:1027900010BD242084F835002068006820F0010076
:1027A00021680860204600F007F90020A06384F843
:1027B000350084F8360000BF84F8340000BF00BF45
:1027C000E6E7000070B50446002500260CB901209C
:1027D00070BD94F8350028B9002084F834002046F4
:1027E00000F002F9242084F835002068006820F009
:1027F00001002168086000F0CFFB06461C48B6FBCC
:10280000F0F5206845601B496068884201D8681C63
:1028100007E04FF4967068434FF47A71B0FBF1F023
:10282000401C216808623146204601F09DFD216868
:10283000C861D4E90701084321680860D4E903109E
:10284000084321688860D4E9050108432168C8600D
:102850002068006840F00100216808600020A06343
:10286000202084F83500002084F8360000BFAFE750
:1028700040420F00A08601002DE9F8430446884637
:1028800015461E46089F94F8350020287DD105B1D5
:1028900016B90120BDE8F88364230122454920468A
:1028A00001F01FFE08B10220F4E700BF94F83400E5
:1028B000012801D10220EDE7012084F8340000BF97
:1028C0002068006820F4006021680860212084F8F6
:1028D0003500102084F836000020A0633A464146B7
:1028E000204601F08DFD80B1A06B042806D100BF09
:1028F000002084F8340000BF0120CBE700BF002097
:1029000084F8340000BF0320C4E700BF206840699A
:10291000009020688069009000BF00BF23E0394626
:10292000204601F0A4FE60B1A06B042807D1206806
:10293000006840F40070216808600120AAE70320C5
:10294000A8E715F8010B21680861701E86B220689F
:102950004069C0F3800030B12EB115F8010B216839
:102960000861701E86B2002ED9DC3946204601F07F
:102970008DFD68B1A06B042808D12068006840F480
:10298000007021680860012084E710E0032081E7DF
:102990002068006840F4007021680860202084F8F6
:1029A000350000BF002084F8340000BF72E7022029
:1029B00070E700000200100010B5044607492068C7
:1029C00088420AD10648C06920F480000449C861E1
:1029D0004FF440610348FFF799FC10BD00580040D8
:1029E00000100240000C014010B586B004460F49AB
:1029F0002068884218D14FF4406002901220039062
:102A00000320059002A90A48FFF71CFD00BF0948F2
:102A1000C06940F480000749C8610846C06900F4F5
:102A20008000019000BF00BF06B010BD00580040FC
:102A3000000C01400010024002480068401C01499F
:102A400008607047E000002010B5032000F0BAF8DD
:102A50000F2000F004F800F015F8002010BD70B54C
:102A6000044600F093FA4FF47A71B0FBF1F5284672
:102A700000F076FF00222146501E00F064F800208E
:102A800070BD000008B500BF1F48806940F001001C
:102A90001D4988610846806900F00100009000BF70
:102AA00000BF032000F08EF8002211466FF00B00EB
:102AB00000F049F8002211466FF00A0000F043F8D8
:102AC000002211466FF0090000F03DF80022114687
:102AD000501F00F038F800221146101F00F033F8A4
:102AE00000220F21901E00F02EF800220F21501E10
:102AF00000F029F80548406820F0E06040F00070E0
:102B00000249486008BD000000100240000001407A
:102B100000BF00F01F0201219140034A430942F81F
:102B2000231000BF7047000080E100E000BF00F00C
:102B30001F02012191404209920002F1E022C2F8F5
:102B4000001100BF70472DE9F05F80460D46164624
:102B5000002701F093FF074639462A46334601F025
:102B60000700C0F1070ABAF1040F02D94FF0040AB6
:102B700001E0C0F1070AD14600F1040ABAF1070FDB
:102B800002D24FF0000A01E0A0F1030AD4464FF050
:102B9000010A0AFA09FAAAF1010A0AEA020A0AFA79
:102BA0000CFA4FF0010B0BFA0CFBABF1010B0BEA2B
:102BB000030B4AEA0B042146404601F067FFBDE8DB
:102BC000F09F000000BF00F00702064B19684FF6A7
:102BD000FF031940044B0B4343EA0221014B1960E8
:102BE00000BF70470CED00E00000FA05F8B50446A0
:102BF00000260025207800F00100002876D000BFD4
:102C00004F48C06940F080504D49C8610846C069CE
:102C100000F08050009000BF00BF4A48006840F4B8
:102C2000807048490860FFF7A9FD064606E0FFF7F7
:102C3000A5FD801B642801D90320F8BD4148006828
:102C400000F480700028F2D03D48006A00F440751E
:102C5000002D5DD0A08800F44070A84258D03848BC
:102C6000006A20F440750121080490FAA0F0B0FA3F
:102C700080F0354A02EB8000C0F8001400200904FF
:102C800091FAA1F1B1FA81F102EB8101C1F80004DE
:102C90002B48056205F0010048B3FFF76FFD0646BB
:102CA00008E0FFF76BFD801B41F28831884201D9B3
:102CB0000320C2E74020022191FAA1F1B1FA81F18B
:102CC00008430121B1EB601F02D11D48006811E0EB
:102CD0004020022191FAA1F1B1FA81F108430221C9
:102CE000B1EB601F04D11648006A03E018E00FE062
:102CF0001348406A4021022292FAA2F2B2FA82F20A
:102D0000114301F01F020121914008400028C8D062
:102D10000B48006A20F44070616808430849086263
:102D2000207800F00200022807D10548406820F40E
:102D30004040A16808430249486000207DE7000048
:102D400000100240007000400000424270B504468E
:102D50000E460025207800F00200022807D188489E
:102D6000406820F0F000A168084385494860207859
:102D700000F0010000286ED0606801282DD12020CD
:102D8000010391FAA1F1B1FA81F108430121B1EBFC
:102D9000601F02D17A4800680FE02020010391FAF9
:102DA000A1F1B1FA81F108430221B1EB601F02D118
:102DB0007348006A01E07248406A20210A0392FACF
:102DC000A2F2B2FA82F2114301F01F0201219140F6
:102DD0000840002860D1012070BD606802282CD115
:102DE0002020010591FAA1F1B1FA81F108430121F6
:102DF000B1EB601F02D1624800680FE0202001059E
:102E000091FAA1F1B1FA81F108430221B1EB601FFF
:102E100002D15B48006A01E05948406A20210A0556
:102E200092FAA2F2B2FA82F2114301F01F020121DA
:102E30009140084078BB0120CEE72020022191FA82
:102E4000A1F1B1FA81F108430121B1EB601F03D177
:102E50004B48006810E062E02020022191FAA1F1C5
:102E6000B1FA81F108430221B1EB601F02D144485D
:102E7000006A01E04248406A2021022292FAA2F24E
:102E8000B2FA82F2114301F01F0201219140084081
:102E900008B90120A0E7FFE73948406820F00300A7
:102EA0006168084336494860FFF768FC054660687A
:102EB000012810D108E0FFF761FC401B41F2883186
:102EC000884201D9032087E72D48406800F00C00B4
:102ED0000428F0D123E06068022810D108E0FFF751
:102EE0004DFC401B41F28831884201D9032073E731
:102EF0002348406800F00C000828F0D10FE008E0FB
:102F0000FFF73CFC401B41F28831884201D9032085
:102F100062E71B48406800F00C000028F0D12078E0
:102F200000F00400042807D11548406820F4E06050
:102F3000E168084312494860207800F0080008283A
:102F400008D10F48406820F46050216940EAC10070
:102F50000B49486000F04CF80949496801F0F0015C
:102F6000F02292FAA2F2B2FA82F2D140054A515C02
:102F7000C840054908600F20FFF771FD00202BE7CE
:102F800000100240BC6E0008E40000200148006808
:102F900070470000E400002000B5FFF7F7FF074985
:102FA000496801F4E0614FF4E06292FAA2F2B2FAE9
:102FB00082F2D140024A515CC84000BD001002407C
:102FC000CC6E000800B5FFF7E1FF0749496801F43E
:102FD00060514FF4605292FAA2F2B2FA82F2D140FA
:102FE000024A515CC84000BD00100240CC6E00088F
:102FF000F0B588B027A7D7E901C63D68FF68CDE9DD
:1030000005C6079704950FF29C0CDCE90075DCE916
:10301000026CCDE9026CCDE900750021002400228C
:1030200000230020234D696801F00C0565B3042DD1
:1030300002D0082D27D101E01F4827E001F47015C8
:103040004FF4701696FAA6F6B6FA86F6F54004AE78
:10305000735D01F480358DB1164DED6A05F00F05F5
:103060000F2696FAA6F6B6FA86F6F5401DF8054044
:10307000114DB5FBF4F505FB03F202E00F4D03FB28
:1030800005F2104602E000BF0B4800BF00BF08B0C9
:10309000F0BD000002030405060708090A0B0C0D29
:1030A0000E0F10100102030405060708090A0B0C95
:1030B0000D0E0F100010024000127A0000093D00B2
:1030C00038B504460025207800F0010000287CD0A7
:1030D000F848406800F00C0004280CD0F54840681F
:1030E00000F00C00082837D1F248406800F4803026
:1030F000B0F5803F30D12020010391FAA1F1B1FA5F
:1031000081F108430121B1EB601F02D1E948006859
:103110000FE02020010391FAA1F1B1FA81F10843F7
:103120000221B1EB601F02D1E248006A01E0E148F0
:10313000406A20210A0392FAA2F2B2FA82F2114303
:1031400001F01F020121914008400028BFD06068B3
:1031500000283AD1012038BD00BF6068B0F5803F3B
:1031600006D1D448006840F48030D249086028E095
:10317000606858B9CF48006820F48030CD490860B5
:103180000846006820F4802008601AE06068B0F506
:10319000A02F0BD1C748006840F48020C5490860C3
:1031A0000846006840F4803008600AE0C1480068C2
:1031B00020F48030BF4908600846006820F4802071
:1031C000086000BF6068C8B300E06FE0FFF7D6FAA0
:1031D000054606E0FFF7D2FA401B642801D9032018
:1031E000B9E72020010391FAA1F1B1FA81F1084376
:1031F0000121B1EB601F02D1AE4800680FE0202032
:10320000010391FAA1F1B1FA81F108430221B1EB76
:10321000601F02D1A748006A01E0A648406A202149
:103220000A0392FAA2F2B2FA82F2114301F01F02EB
:103230000121914008400028CCD037E0FFE7FFF79C
:103240009DFA054606E0FFF799FA401B642801D96C
:10325000032080E72020010391FAA1F1B1FA81F166
:1032600008430121B1EB601F02D1924800680FE0D2
:103270002020010391FAA1F1B1FA81F10843022162
:10328000B1EB601F02D18B48006A01E08948406AB7
:1032900020210A0392FAA2F2B2FA82F2114301F05B
:1032A0001F020121914008400028CCD1207800F075
:1032B000020002284ED17F48406800F00C0050B157
:1032C0007C48406800F00C00082844D179484068E8
:1032D00000F4803078BB2020022191FAA1F1B1FAEC
:1032E00081F108430121B1EB601F02D171480068F0
:1032F0000FE02020022191FAA1F1B1FA81F10843F7
:103300000221B1EB601F02D16A48006A01E06948FE
:10331000406A2021022292FAA2F2B2FA82F211430A
:1033200001F01F0201219140084028B120690128C5
:1033300002D001200FE70EE05E48006820F0F800A0
:10334000F82292FAA2F2B2FA82F26169914008433D
:103350005849086091E02069F0B3012090FAA0F18B
:10336000B1FA81F1544A42F82100FFF707FA054605
:1033700006E0FFF703FA401B022801D90320EAE622
:103380002020022191FAA1F1B1FA81F10843012133
:10339000B1EB601F02D1474800680FE020200221F6
:1033A00091FAA1F1B1FA81F108430221B1EB601F5A
:1033B00002D14048006A01E03E48406A20210222D2
:1033C00092FAA2F2B2FA82F2114301F01F02012135
:1033D00091400840002800E00FE0CAD0354800685E
:1033E00020F0F800F82292FAA2F2B2FA82F26169B1
:1033F000914008432F4908603FE00020012191FAE5
:10340000A1F1B1FA81F12C4A42F82100FFF7B6F997
:10341000054606E0FFF7B2F9401B022801D9032058
:1034200099E62020022191FAA1F1B1FA81F1084335
:103430000121B1EB601F02D11E4800680FE020207F
:10344000022191FAA1F1B1FA81F108430221B1EB15
:10345000601F02D11748006A01E01648406A202127
:10346000022292FAA2F2B2FA82F2114301F01F0292
:103470000121914008400028CCD1207800F00800BC
:1034800008284BD1A069A8B3012191FAA1F0B0FAA4
:1034900080F0094A02EB8000C0F88014FFF76EF953
:1034A00005460BE0FFF76AF9401B022806D9032006
:1034B00051E600000010024000004242602002215C
:1034C00091FAA1F1B1FA81F108430121B1EB601F3A
:1034D00002D1F948006810E06020022191FAA1F1C0
:1034E000B1FA81F108430221B1EB601F03D1F24828
:1034F000006A02E013E0F048406A6021022292FA7A
:10350000A2F2B2FA82F2114301F01F0201219140AE
:1035100008400028C6D00120FEF71BFE41E0002035
:10352000012191FAA1F1B1FA81F1E44A02EB8101A2
:10353000C1F88004FFF722F9054606E0FFF71EF9FF
:10354000401B022801D9032005E66020022191FAE0
:10355000A1F1B1FA81F108430121B1EB601F02D161
:10356000D54800680FE06020022191FAA1F1B1FA7C
:1035700081F108430221B1EB601F02D1CE48006AFD
:1035800001E0CD48406A6021022292FAA2F2B2FA2A
:1035900082F2114301F01F020121914008400028EE
:1035A000CCD1207800F00400042875D100BFC248B7
:1035B000C06940F08050C049C8610846C06900F049
:1035C0008050009000BF00BFBD48006840F480708C
:1035D000BB490860FFF7D2F8054606E0FFF7CEF8D2
:1035E000401B642801D90320B5E5B548006800F404
:1035F00080700028F2D000BFE068012806D1AE48F4
:10360000006A40F00100AC49086227E0E06858B960
:10361000A948006A20F00100A74908620846006A2C
:1036200020F00400086219E0E06805280BD1A248E8
:10363000006A40F00400A04908620846006A40F0B1
:10364000010008620AE09C48006A20F001009A49E3
:1036500008620846006A20F00400086200BFE068C3
:10366000D0B3FFF78BF8054608E0FFF787F8401B5B
:1036700041F28831884201D903206CE540200221C3
:1036800091FAA1F1B1FA81F108430121B1EB601F78
:1036900003D18948006810E058E04020022191FAE7
:1036A000A1F1B1FA81F108430221B1EB601F02D10F
:1036B0008148006A01E08048406A4021022292FA73
:1036C000A2F2B2FA82F2114301F01F0201219140ED
:1036D00008400028C9D039E0FFE7FFF74FF805465A
:1036E00008E0FFF74BF8401B41F28831884201D9CE
:1036F000032030E54020022191FAA1F1B1FA81F1D5
:1037000008430121B1EB601F02D16B4800680FE054
:103710004020022191FAA1F1B1FA81F1084302217E
:10372000B1EB601F02D16448006A01E06248406A60
:103730004021022292FAA2F2B2FA82F2114301F07F
:103740001F020121914008400028CAD1E0690028E9
:1037500073D05948406800F00C0008286ED0E0692A
:1037600002286CD100204FF0807191FAA1F1B1FADA
:1037700081F1524A42F82100FFF700F8054606E0C1
:10378000FEF7FCFF401B022801D90320E3E42020C0
:10379000010591FAA1F1B1FA81F108430121B1EBE0
:1037A000601F02D1444800680FE02020010591FA13
:1037B000A1F1B1FA81F108430221B1EB601F02D1FE
:1037C0003D48006A01E03C48406A20210A0592FA1F
:1037D000A2F2B2FA82F2114301F01F0201219140DC
:1037E00008400028CCD1206AB0F5803F07D132488C
:1037F000C06A20F00F00A16808432F49C862D4E9CD
:10380000080108432C49496821F4741108432A49E6
:1038100048600121080690FAA0F0B0FA80F0274A2B
:1038200042F82010FEF7AAFF054609E0FEF7A6FFC2
:10383000401B022804D903208DE479E076E02CE0D7
:103840002020010591FAA1F1B1FA81F1084301218B
:10385000B1EB601F02D1184800680FE0202001057D
:1038600091FAA1F1B1FA81F108430221B1EB601F95
:1038700002D11148006A01E00F48406A20210A0580
:1038800092FAA2F2B2FA82F2114301F01F02012170
:10389000914008400028C9D04AE000204FF08071D4
:1038A00091FAA1F1B1FA81F1044A42F82100FEF740
:1038B00065FF05460DE00000001002400000424296
:1038C00000700040FEF75AFF401B022801D9032078
:1038D00041E42020010591FAA1F1B1FA81F10843F8
:1038E0000121B1EB601F02D1124800680FE02020D7
:1038F000010591FAA1F1B1FA81F108430221B1EB7E
:10390000601F02D10B48006A01E00A48406A20218A
:103910000A0592FAA2F2B2FA82F2114301F01F02F2
:103920000121914008400028CCD101E0012012E49F
:10393000002010E400100240042808D14FF0E021DC
:10394000096941F004014FF0E022116107E04FF0F6
:10395000E021096921F004014FF0E0221161704774
:1039600070B504462546681EB0F1807F01D3012062
:103970000FE0681E4FF0E02148610F214FF0FF304B
:1039800001F084F800204FF0E021886107200861F1
:10399000002070BD70477047024600BF92F83800A3
:1039A000012801D102207047012082F8380000BFB1
:1039B000022082F839001068406820F07000136817
:1039C0005860106840680B681843136858601068A6
:1039D000806820F0800013689860106880684B68E9
:1039E000184313689860012082F8390000BF002056
:1039F00082F8380000BF00BFD5E710B504460CB907
:103A0000012010BD94F8390028B9002084F838004E
:103A1000204600F00DF8022084F83900211D2068AE
:103A200001F0DEF9012084F839000020E9E7000008
:103A300038B504462068B0F1804F16D100BF184851
:103A4000C06940F001001649C8610846C06900F02D
:103A50000100009000BF00BF002205211C20FFF7DD
:103A600072F81C20FFF762F819E00E4920688842BE
:103A700015D100BF0A48C06940F004000849C86178
:103A80000846C06900F00400009000BF00BF00229B
:103A900005211E20FFF757F81E20FFF747F838BD15
:103AA000001002400008004001460868C06840F06D
:103AB00001000A68D0600868006840F001000A68E8
:103AC0001060002070470146022081F8390000BFD5
:103AD0000868006A41F21112104050B90868006A83
:103AE0009210104028B90868006820F001000A68A8
:103AF000106000BF012081F83900002070470146A6
:103B00000868C06820F001000A68D06000BF08683B
:103B1000006A41F21112104050B90868006A921010
:103B2000104028B90868006820F001000A68106099
:103B300000BF002070472DE9F04104460D460026E5
:103B400000BF94F83800012802D10220BDE8F081BE
:103B5000012084F8380000BF022084F83900206872
:103B6000866826F0770626F47F46206886602868F7
:103B700050283BD00CDC202860D004DC002853D037
:103B8000102865D155E030285DD0402860D141E053
:103B9000602835D070280DD0B0F5805F03D0B0F527
:103BA000005F55D115E02068806820F0070021688B
:103BB00088604EE0D5E902136A68206801F05EF97A
:103BC0002068866826F0770646F0770620688660CB
:103BD0003FE0D5E902136A68206801F04FF92068D8
:103BE000806840F480402168886032E0EA68696853
:103BF000206801F059F95021206801F04BF928E0C4
:103C0000EA686968206801F064F96021206801F0C1
:103C100041F91EE0EA686968206801F045F9402131
:103C2000206801F037F914E00021206801F032F932
:103C30000FE01021206801F02DF90AE02021206812
:103C400001F028F905E03021206801F023F900E0B7
:103C500000BF00BF012084F8390000BF002084F8B5
:103C6000380000BF00BF71E7704710B504462068F8
:103C70000069C0F34000D8B12068C068C0F34000BC
:103C8000B0B16FF002002168086101202076206841
:103C9000806900F0030018B12046FFF7E5FF05E05A
:103CA000204600F0ADF8204600F0D2F80020207643
:103CB00020680069C0F38000D8B12068C068C0F3F4
:103CC0008000B0B16FF00400216808610220207606
:103CD0002068806900F4407018B12046FFF7C4FFE7
:103CE00005E0204600F08CF8204600F0B1F80020F6
:103CF000207620680069C0F3C000D8B12068C06891
:103D0000C0F3C000B0B16FF0080021680861042062
:103D100020762068C06900F0030018B12046FFF744
:103D2000A3FF05E0204600F06BF8204600F090F875
:103D30000020207620680069C0F30010D8B1206808
:103D4000C068C0F30010B0B16FF0100021680861C6
:103D5000082020762068C06900F4407018B1204621
:103D6000FFF782FF05E0204600F04AF8204600F009
:103D70006FF8002020762068006900F0010058B13B
:103D80002068C06800F0010030B16FF001002168C8
:103D90000861204600F05EF820680069C0F3C0109A
:103DA00058B12068C068C0F3C01030B16FF0800017
:103DB000216808612046FFF7EDFD20680069C0F327
:103DC000801058B12068C068C0F3801030B16FF027
:103DD000400021680861204600F050F82068006922
:103DE000C0F3401058B12068C068C0F3401030B133
:103DF0006FF02000216808612046FFF7CCFD10BD60
:103E0000704770B504460D460CB9012070BD94F89A
:103E1000390028B9002084F83800204600F017F84F
:103E2000022084F83900211D206800F0D9FF2068A5
:103E3000006820F0080021680860206800682843B6
:103E400021680860012084F839000020DEE770470F
:103E50007047000010B504462068B0F1804F05D0CF
:103E60000549084428B902F081FC02E000F01CFF7B
:103E700000BF00BF10BD000000F8FFBF704710B5C5
:103E800004462068406920F0C00021684861206B2A
:103E900010B1206BFDF73EFF606B10B1606BFDF75A
:103EA00039FF012084F83900002010BD10B5044608
:103EB000204602F0EDF910BDF8B5044600250026B5
:103EC0002068006800F001052068C06800F4807672
:103ED00025B11EB1E06B40F00100E063206800688E
:103EE000C0F340052068406900F0010625B11EB10D
:103EF000E06B40F00400E06320680068C0F38005D8
:103F000025B11EB1E06B40F00200E063206800685C
:103F1000C0F3C00525B11EB1E06B40F00800E063BE
:103F200020680068C0F340152068C06800F02006D3
:103F30001DB116B1204601F053F820680068C0F3A7
:103F4000C0152068C06800F080061DB116B120467B
:103F500001F088F920680068C0F380152068C06807
:103F600000F040061DB116B1204601F021F8E06BCB
:103F700070B100BF20680068009020684068009021
:103F800000BF00BF012084F839002046FFF78EFFF4
:103F9000F8BD10B504460CB9012010BDA06900B1F0
:103FA00000E000BF94F8390028B9002084F83800F8
:103FB000204600F025F8022084F839002068C06807
:103FC00020F400502168C860204601F067F820689E
:103FD000006920F49040216808612068406920F061
:103FE0002A00216848612068C06840F400502168B8
:103FF000C8600020E063012084F839000020CCE78D
:1040000010B586B0044633492068884260D100BFAD
:104010003148806940F480402F49886108468069B2
:1040200000F48040019000BF00BF481502900220BC
:1040300003900320059002A92848FEF703FA4FF4E5
:104040008060029000200390049002A92348FEF7AC
:10405000F9F92348234908600020486000212148DD
:1040600081608021C16000210161416181614FF463
:104070000051C161FEF708F808B1FDF7DDFA00BF95
:1040800018486063446200BF154814381649086038
:10409000102048600021144881608021C160002107
:1040A0000161416181614FF40051C161FDF7ECFF95
:1040B00008B1FDF7C1FA00BF0B482063446200BF9E
:1040C000002206212520FEF73EFD2520FEF72EFDCD
:1040D00006B010BD00380140001002400008014049
:1040E000580002409C020020D4020020F7B504468C
:1040F0001546002794F83970012F01D0122F3CD1BA
:10410000019800B10DB90120FEBD00BF94F8380040
:10411000012801D10220F7E7012084F8380000BF10
:104120000198A062A5850020E06394F83900122868
:1041300003D1322084F8390002E0222084F83900CB
:104140000F48616B88620F48616BC8620E48616BF3
:10415000086301AE32682368191D2B46606BFDF7BA
:10416000BDFF2068406940F040002168486100BF01
:10417000002084F8380000BFC6E70220C4E7000032
:10418000214F00085F4F0008FF4E0008034A0168F6
:10419000114401B900BF00BF7047000000C8FEBF56
:1041A00070470000F7B504461546002794F83970AB
:1041B000012F01D0222F41D1019800B10DB901206A
:1041C000FEBD00BF94F83800012801D10220F7E7B6
:1041D000012084F8380000BF01982062A584E5849E
:1041E0000020E06394F83900222803D1322084F8BB
:1041F000390002E0122084F839001148216B8862EE
:104200001048216BC8621048216B086301AE236817
:104210001A1D31682B46206BFDF760FF6FF04000E0
:10422000216808602068406940F08000216848618A
:1042300000BF002084F8380000BFC1E70220BFE7BC
:104240006D4F0008A34F0008FF4E000810B504464C
:1042500004492068084410B901F09AFF00BF00BF6C
:1042600010BD000000C8FEBF704700BFFEE70000A1
:104270001FB504462046FEF787FA4FF440600090D1
:10428000112001900320039069463548FEF7DAF8C3
:1042900001224FF440613248FEF76AFA00BF4FF442
:1042A00080612F48FEF75CFA0028F8D000BF4FF479
:1042B00000612B48FEF754FA0028F8D000224FF492
:1042C00000612748FEF754FA00BF4FF4006124480C
:1042D000FEF746FA0128F8D000224FF4806120480A
:1042E000FEF746FA00BF4FF480611D48FEF738FA2A
:1042F0000128F8D0012291021948FEF739FA00BFCF
:104300004FF480611648FEF72BFA0028F8D00122FE
:10431000D1021348FEF72CFA00BF4FF40061104899
:10432000FEF71EFA0028F8D04FF4406000901220EB
:1043300001900320039069460948FEF783F820683E
:10434000006840F40040216808602068006820F49C
:104350000040216808600348FEF734FA1FBD0000E2
:10436000000C0140A801002010B502460B460021B8
:10437000154C5068A0420BD850684000B3FBF0F1D8
:10438000C1F30B00042801D2042010BD0846FCE74D
:104390004FF40041906830B9506800EB4000B3FB27
:1043A000F0F0014309E0506800EBC00404EB00109A
:1043B000B3FBF0F040F480400143C1F30B0008B9B7
:1043C0000120E2E70846E0E7A08601000146086810
:1043D0004069C0F3802088B10868406920F480609B
:1043E0000A68506104208863202081F8350000BFEE
:1043F000002081F8340000BF012070470020FCE756
:1044000070B504460D4616462068006840F480707A
:1044100021680860334600224FF00111204600F069
:1044200060F808B1032070BD2069B0F5804F04D159
:1044300005F0FE002168086116E005F44070F021E7
:1044400041EAE0102168086132460F49204600F039
:10445000B7F830B1A06B042801D10120E3E70320B5
:10446000E1E7E8B22168086132460749891F204622
:1044700000F0A6F830B1A06B042801D10120D2E7EA
:104480000320D0E70020CEE70800010070B5044605
:104490000D46FEF773F906461BE02046FFF796FF30
:1044A00008B1012070BD681C98B125B1FEF766F90E
:1044B000801BA8420DD9A06B40F02000A0632020F3
:1044C00084F8350000BF002084F8340000BF0320CA
:1044D000E8E720684069C0F380000028DDD00020B4
:1044E000E0E72DE9F04105460C4617461E464FF021
:1044F0000008FEF743F9804687BB13E0701C88B1C3
:104500002EB1FEF73BF9A0EB0800B0420AD92020FB
:1045100085F8350000BF002085F8340000BF032077
:10452000BDE8F081C4F3074001280AD1286840693A
:10453000A1B20840A1B2884201D101200BE00020C5
:1045400009E028688069A1B20840A1B2884201D17F
:10455000012000E000200028D0D02FE0FFE712E08B
:10456000701C80B12EB1FEF709F9A0EB0800B04233
:1045700009D9202085F8350000BF002085F83400D7
:1045800000BF0320CCE7C4F3074001280AD1286804
:104590004069A1B20840A1B2884201D101200BE0DC
:1045A000002009E028688069A1B20840A1B28842D1
:1045B00001D1012000E000200028D1D10020AFE788
:1045C0002DE9F04104460D4616460027FEF7D6F8C1
:1045D00007462FE020684069C0F38020C0B1206802
:1045E000006840F40070216808602068406920F489
:1045F0008060216848610420A063202084F8350091
:1046000000BF002084F8340000BF0120BDE8F08125
:10461000701C78B126B1FEF7B1F8C01BB04209D9C1
:10462000202084F8350000BF002084F8340000BF4B
:104630000320EBE7C5F3074001280AD12068406951
:10464000A9B20840A9B2884201D101200BE00020A4
:1046500009E020688069A9B20840A9B2884201D166
:10466000012000E000200028B4D00020CEE770B583
:1046700004460D46FEF782F806461BE02046FFF78B
:10468000A5FE08B1012070BD681C98B125B1FEF7E8
:1046900075F8801BA8420DD9A06B40F02000A063E4
:1046A000202084F8350000BF002084F8340000BFCB
:1046B0000320E8E720684069C0F3C0100028DDD07F
:1046C0000020E0E70EB535483549086081153448CB
:1046D00081600121C160002141614FF46021C1610D
:1046E00000202F49486008212D480161FDF794F909
:1046F00008B1FCF7A1FF0120009001900520029075
:1047000069462748FDF7A2F808B1FCF795FF02209B
:104710000090019069462248FDF798F808B1FCF72F
:104720008BFF03200090019069461D48FDF78EF82D
:1047300008B1FCF781FF04200090019069461848F9
:10474000FDF784F808B1FCF777FF05200090019091
:1047500069461348FDF77AF808B1FCF76DFF0620AB
:104760000090019069460E48FDF770F808B1FCF71B
:1047700063FF07200090019069460948FDF766F83D
:1047800008B1FCF759FF08200090019069460448E1
:10479000FDF75CF808B1FCF74FFF0EBD00240140A7
:1047A0004001002008B500BF1248406940F00100F8
:1047B000104948610846406900F00100009000BFC0
:1047C00000BF002207210B20FEF7BDF90B20FEF7EA
:1047D000ADF9002205210E20FEF7B5F90E20FEF7F7
:1047E000A5F9002205210F20FEF7ADF90F20FEF7F5
:1047F0009DF908BD0010024000B585B000BF3848E3
:10480000806940F01000364988610846806900F0F0
:104810001000009000BF00BF00BF0846806940F054
:10482000040088610846806900F00400009000BF21
:1048300000BF00BF0846806940F008008861084654
:10484000806900F00800009000BF00BF00BF08466C
:10485000806940F0200088610846806900F02000EF
:10486000009000BF00BF002247F2F8011D48FDF78D
:104870007FFF00224FF4DE511B48FDF779FF002235
:1048800004211A48FDF774FF47F2F8000190012057
:1048900002900220049001A91248FDF7D3FD4FF4C5
:1048A0000040019000200290039001A90D48FDF7FF
:1048B000C9FD4FF4DE5001900120029002200490C7
:1048C00001A90948FDF7BEFD0420019001200290D6
:1048D0000220049001A90548FDF7B4FD05B000BD14
:1048E00000100240000C0140001001400014014083
:1048F00010B50B480B4908600B4848600021094877
:104900008160C1604FF4804101610021416181619A
:10491000C1610162FDF756FF08B1FCF78DFE10BDC5
:1049200000580040A8010020A086010000B587B013
:104930004FF080401649086045F6C050486000219D
:10494000134881600A21C16000210161FFF755F819
:1049500008B1FCF771FE4FF48050039003A90C4896
:10496000FFF7E9F808B1FCF767FE08210848FFF7F0
:1049700048FA08B1FCF760FE00200190029001A9FE
:104980000348FFF709F808B1FCF756FE07B000BD71
:10499000E401002000B587B01348144908600020E6
:1049A00048600021114881604FF49661C160002188
:1049B0000161FFF722F808B1FCF73EFE4FF480508A
:1049C000039003A90948FFF7B6F808B1FCF734FED5
:1049D00000200190029001A90448FEF7DDFF08B114
:1049E000FCF72AFE07B000BD0008004020020020AE
:1049F00010B50B480B4908604FF461204860002156
:104A000008488160C16001610C2141610021816120
:104A1000C161FFF7BEFA08B1FCF70EFE10BD000041
:104A2000003801405C02002000BFFEE71FB50020F7
:104A30004FF4612302460A21009000F00FFF044664
:104A400000200123CDE9003002900346802203A11B
:104A50000390054801F056FF1FBD00004D6F6462D2
:104A60007573207461736B006D4A000800F068FC78
:104A700000BF00F063FFFCE77047000002480068D9
:104A8000C0F30220704700000CED00E010B50028D4
:104A900007DA0A07140E054A00F00F031B1FD4544F
:104AA00003E00A07130E024A135410BD18ED00E08C
:104AB00000E400E02DE9F04105460C464FF0010806
:104AC0002046FCF78AFA06460022144BFCF7B0FA9F
:104AD0001FD82046FCF781FA06460022104BFCF74F
:104AE0008FFA16D8002600270E480068001D40F8EF
:104AF00025402046FCF72CFD064631462846FCF7AB
:104B00006BFD8046B8F1000F02D00120BDE8F081B6
:104B100001E00220FAE70020F8E700000000E03F93
:104B2000000014400800002010B504460022802137
:104B30004148FDF71DFE002240213F48FDF718FEC9
:104B4000002220213C48FDF713FE002210213A48A4
:104B5000FDF70EFE002208213748FDF709FE00226E
:104B600004213648FDF704FE00224FF480513448FA
:104B7000FDF7FEFD00224FF400613148FDF7F8FD1E
:104B8000012C57D12F480068007D00F0010020B1B2
:104B9000012280212848FDF7EBFD2A480068007DAE
:104BA00000F0020020B1012240212348FDF7E0FD82
:104BB00024480068007D00F0040020B1012220217B
:104BC0001D48FDF7D5FD1F480068007D00F0080076
:104BD00020B1012210211848FDF7CAFD19480068CC
:104BE000007D00F0100020B1012208211248FDF7DD
:104BF000BFFD14480068007D00F0200020B10122B4
:104C000004210E48FDF7B4FD0E480068007D00F059
:104C1000400020B1012211030948FDF7A9FD094810
:104C20000068007D00F0800020B10122D10204481C
:104C3000FDF79EFD10BD0000000C01400014014076
:104C4000001001400800002070B50024002500BFBE
:104C50000DE013480068001D50F824102046FFF7AF
:104C600029FF05460DB1284670BD601CC4B2032C57
:104C7000EFDB0120FFF758FF01200949096888751B
:104C8000002008490968486205480068008805490D
:104C90000968C8620348FEF707FF0020E4E7000048
:104CA00008000020E401002010B50020FFF73CFFC1
:104CB000002002490968887510BD00000800002026
:104CC0007B2400BF21460320FCF786FC4FF4FA70DA
:104CD00001F001F9F6E710B5FDF7AEFE01F00CF9B1
:104CE00010BD10B592B00220089001200C90102049
:104CF0000D9002200F9000211091C104119108A87D
:104D0000FEF7DEF908B1FCF797FC0F2003900220B4
:104D100004900020059006900790002103A8FEF75C
:104D200015F808B1FCF788FC0220009000200290E2
:104D30006846FDF75BFF08B1FCF77EFCFEF726F93D
:104D40004FF47A71B0FBF1F42046FEF709FE04201F
:104D5000FEF7F2FD00220F21501EFDF7F4FE12B007
:104D600010BD00001248006840F0010010490860C2
:104D7000084640680F4908400D49486008460068E9
:104D80000D4908400A4908600846006820F4802060
:104D900008600846406820F4FE0048604FF41F0099
:104DA00088600020C862C80304490860704700009A
:104DB000001002400000FFF8FFFFF6FE08ED00E0E3
:104DC00010B50248FEF751FF10BD0000E4010020BD
:104DD00010B50248FEF749FF10BD00002002002078
:104DE000002202681F4B984208D0B0F1804F05D0D6
:104DF0001D4B984202D01D4B984203D122F0700205
:104E00004B681A43174B984211D0B0F1804F0ED027
:104E1000154B98420BD0154B984208D0144B984232
:104E200005D0144B984202D0134B984203D122F480
:104E30004072CB681A4302608B68C3620B6883625E
:104E4000084B984208D00A4B984205D0094B98422B
:104E500002D0094B984201D10B69036301234361DE
:104E600070470000002C0140000400400008004092
:104E700000400140004401400048014030B50C466C
:104E80000021816821F47F4142EA0325254329431B
:104E9000816030BD0A460021816821F0700142F036
:104EA000070319438160704730B50B461446002153
:104EB0000022026A056A25F001050562816921F078
:104EC000F00141EA041122F00A021A4381610262F0
:104ED00030BD30B50B46144600210022056A25F08E
:104EE000100505628169026A21F4704141EA0431CA
:104EF00022F0A00242EA03128161026230BD70B565
:104F000005466C6A0020E085E084012084F83900C1
:104F1000E06B40F01000E0632046FEF7C7FF70BD75
:104F200070B505466C6A2868006800F0200090B9EA
:104F30000020E0852068406920F040002168486139
:104F400094F83900322803D1122084F8390002E0A5
:104F5000012084F839002046FFF718F970BD70B5BC
:104F60000446656A2846FFF71BF970BD70B5054613
:104F70006C6A2868006800F0200070B90020E084A6
:104F80002068406920F08000216848612068C0687E
:104F900040F040002168C86002E02046FFF756F963
:104FA00070BD70B50446656A2846FFF75DF970BDAF
:104FB00010B504462068C06820F040002168C86031
:104FC00094F83900322803D1222084F8390002E015
:104FD000012084F839002046FFF738F9002010BD81
:104FE00070B50446002694F83960222E01D0322E86
:104FF00052D1A068B0F5805F13D1A56A206940B98D
:1050000020684068C0F308002880A06A801CA06265
:1050100019E020684068C0B22880A06A401CA062E5
:1050200011E0206938B920684068C1B2A26A501CFA
:10503000A062117007E02068406800F07F01A26A5A
:10504000501CA0621170E08D401E80B2E08508BB4C
:105050002068C06820F020002168C86094F83900FA
:10506000322803D1122084F839000EE02068C0688D
:1050700020F480702168C8602068406920F0010039
:1050800021684861012084F839002046FFF77EF846
:10509000002070BD0020FCE70220FAE72DE9F04176
:1050A000044600252068006920F44050E168084368
:1050B000216808612169A0680843616940EA010527
:1050C0002068C06841F20C61884328432168C860A9
:1050D0002068406920F44070A16908432168486154
:1050E0005F49206888425CD1FDF76CFF00EBC0018E
:1050F00001EB001061688900B0FBF1F6FDF762FF7B
:1051000000EBC00101EB001061688900B0FBF1F019
:105110006421B0FBF1F000EBC00101EB0010A6EB45
:105120008000322101EB00106421B0FBF1F000F0AF
:10513000F006FDF747FF00EBC00101EB00106168CE
:105140008900B0FBF1F06421B0FBF1F006EB001632
:10515000FDF738FF00EBC00101EB0010616889002A
:10516000B0FBF1F7FDF72EFF00EBC00101EB0010E3
:1051700061688900B0FBF1F06421B0FBF1F000EB55
:10518000C00101EB0010A7EB8000322101EB001001
:105190006421B0FBF1F000F00F003044216888601A
:1051A0005BE0FDF7F9FE00EBC00101EB0010616868
:1051B0008900B0FBF1F6FDF7EFFE00EBC00101EB5B
:1051C000001061688900B0FBF1F06421B0FBF1F0E0
:1051D00000EBC00101EB0010A6EB8000322101EBD7
:1051E00000106421B0FBF1F000F0F006FDF7D4FEF2
:1051F00000EBC00101EB001061688900B0FBF1F029
:105200006421B0FBF1F006EB0016FDF7C5FE00EBE4
:10521000C00101EB001061688900B0FBF1F7FDF7F8
:10522000BBFE00EBC00101EB001061688900B0FB20
:10523000F1F06421B0FBF1F000EBC00101EB0010D4
:10524000A7EB8000322101EB00106421B0FBF1F0EC
:1052500000F00F00304421688860BDE8F081000054
:105260000038014010B50146002391F83930122B67
:1052700001D0322B2CD18868B0F5805F0FD10A6A3B
:105280001088C0F308000C686060086918B9086AE3
:10529000801C086209E0086A401C086205E00C6A8C
:1052A000601C086220780C686060C88C401E80B268
:1052B000C88458B90868C06820F080000C68E060B5
:1052C0000868C06840F040000C68E060002010BD35
:1052D0000220FCE710B5104800680068C0F3C01059
:1052E00028B10D480068C06800F0800070B90A4815
:1052F00000680068C0F3801028B107480068C068E3
:1053000000F0400010B901F035FA10BD0248FEF778
:10531000D3FD00BFF9E700005C02002000BFFEE7FC
:1053200002E008C8121F08C1002AFAD1704770476E
:10533000002001E001C1121F002AFBD170470000CC
:1053400010B5002406480078012806D105480068F9
:10535000804700200249087000E00624204610BD66
:105360001E000020240000202DE9F05F06460D46B7
:105370004FF0000B2888052844D170784FEA002AA6
:10538000B07840EA0A0AF078040230790443012C2C
:1053900035DBB4F5FA6F32DA374600202880012079
:1053A00007F8010B2888401C288004F0070040B152
:1053B0002046E11704EB5171C910491C01F0FF08A8
:1053C00005E02046E11704EB5171C1F3C70807F867
:1053D000018B2888401C28800023224651463846ED
:1053E00000F004FC8146B9F1000F04D0484600F0FB
:1053F000A9FE834608E028884044288004E04FF056
:10540000030B01E04FF0030B5846BDE8F09F2DE978
:10541000F05F06460D464FF0000B2888052843D163
:1054200070784FEA002AB07840EA0A0AF07804025D
:1054300030790443012C34DBB4F5FA6F31DA3746A6
:1054400000202880022007F8010B2888401C2880B3
:1054500004F0070040B12046E11704EB5171C91078
:10546000491C01F0FF0805E02046E11704EB5171EB
:10547000C1F3C70807F8018B2888401C2880224602
:105480005146384600F0B6FB8146B9F1000F04D012
:10549000484600F057FE834608E0288840442880AC
:1054A00004E04FF0030B01E04FF0030B5846BDE85A
:1054B000F09F2DE9F04705460C464FF0000A208882
:1054C000052833D168784FEA0029A87840EA09090D
:1054D000E87806022E79012E25DB7D2E23DC2F466F
:1054E00000202080032007F8010B2088401C20802A
:1054F0007006000E07F8010B2088401C2080002356
:1055000032464946384600F079FB8046B8F1000F34
:1055100004D0404600F016FE824609E0208800EBE9
:105520004600208004E04FF0030A01E04FF0030A38
:105530005046BDE8F0872DE9F04705460C464FF090
:10554000000A2088052833D168784FEA0029A87816
:1055500040EA0909E878060228790643012E24DB8F
:105560007D2E22DA2F4600202080042007F8010B30
:105570002088401C20807006000E07F8010B208850
:10558000401C208032464946384600F0F5FB8046F4
:10559000B8F1000F04D0404600F0D4FD824609E087
:1055A000208800EB4600208004E04FF0030A01E071
:1055B0004FF0030A5046BDE8F0872DE9FC5F044632
:1055C0000D460020009028880A285DDB60784FEAAD
:1055D000002AA07840EA0A0A0AF101001FFA80FABC
:1055E000E07806022079064360794FEA002BA07923
:1055F00040EA0B0B0BF101001FFA80FBE079070278
:10560000207A0743607A0190012E3BDB7D2E39DC46
:10561000012F37DB792F35DC79000198814231D1B8
:1056200001233A46594604F10A0000F0E7FA8146A0
:10563000B9F1000F1ED1A04600202880172008F8DD
:10564000010B2888401C28807006000E08F8010B0A
:105650002888401C2880002332465146404600F0EE
:10566000CDFA8146B9F1000F04D12888022101FB4F
:1056700006002880B9F1000F06D0484600F062FD10
:10568000009001E0032000900098BDE8FC9F00001E
:1056900070B505460C46064802880649681CFBF7AB
:1056A0002DFB03480088401C2080002070BD0000B6
:1056B00010000020640300202DE9F84304460E4644
:1056C0004FF000083088052827D160780702A078BD
:1056D00007432079F0B9E078FF2801D0E078C8B915
:1056E00000208DF80100E078FF2803D101208DF81B
:1056F000000002E000208DF8000001231A46394620
:10570000684600F073FA05464DB1284600F01AFDD0
:10571000804604E04FF0030801E04FF003084046E4
:10572000BDE8F8832DE9F04104460E464FF000082D
:105730003088052810D160780702A078074301233C
:105740001A463946E01C00F059FA054635B128469C
:1057500000F0F8FC804601E04FF003084046BDE849
:10576000F0812DE9F05F05460E464FF0000B3088C2
:10577000052838DD68784FEA0029A87840EA090949
:10578000E87804022879044395F805A004F007009E
:1057900038B12046E11704EB5171C910491CCFB252
:1057A00005E02046E11704EB5171C1F3C707012C56
:1057B00016DBB4F5F66F13DC574511D101232246F1
:1057C0004946A81D00F012FA8046B8F1000F04D037
:1057D000404600F0B7FC834607E00520308004E037
:1057E0004FF0030B01E04FF0030B5846BDE8F09F6C
:1057F0002DE9F04704460E464FF0000A308806288F
:1058000026DB60784FEA0028A07840EA0808E078B4
:1058100005022079054394F80590012D15DB782DBC
:1058200013DC6806000E48450FD101232A46414685
:10583000A01D00F0E3F9074627B1384600F082FCCE
:10584000824607E00520308004E04FF0030A01E0C3
:105850004FF0030A5046BDE8F08700002DE9F047FD
:1058600005460C4616461F46DDF820904FF000080E
:105870001CB1012C01DBF72C02DD4FF0020835E0F2
:105880001C48047005BB1C481C4908601C481D4985
:1058900008601D481D4908601D481E490860002019
:1058A0001D4908601D481E4908601E481E490860C1
:1058B0001E481F4908604B463A4631460D4800785D
:1058C00000F0D8F8804602E04FF0020800BF00BFA9
:1058D000B8F1000F0AD100F0DDFE10B94FF0030857
:1058E00004E0144805700120134908704046BDE8E3
:1058F000F08700001C000020B15B0008240000209D
:10590000D55B000828000020215B00082000002053
:10591000C95A00082C0000203000002075670008DC
:1059200034000020E567000838000020896700087F
:105930003C0000201D0000201E00002038B500257E
:105940004148007808B1062038BD684600F090FE56
:10595000012877D19DF8000030B1012805D0022838
:1059600018D003286DD16BE06BE0384A38493948CC
:10597000394B1B68984705465DB93648007837496A
:105980000978884202D03348007810B9022000F02C
:1059900089FE56E02E4800680078314908700120E1
:1059A00030490870002417E02F4810F8340000B97F
:1059B00014E02D4810F834002949097888420AD1AA
:1059C000294800EBC40021494268214800689047FB
:1059D0002449087002E0641C102CE5DB00BF1D4860
:1059E000007858B31F480078C8B1002017490880D4
:1059F0001B48007840F08001144802880088401C51
:105A0000124B1880124800688154164802781846D4
:105A100001880088401C18800D48006842541348D3
:105A20000078012800D100BF0848028808480168B2
:105A30000A4800780E4B1B689847054601E001E0D4
:105A400000BF00BF00207FE71E000020CE00002026
:105A5000C8000020CC0000202C0000201C000020EA
:105A6000CD000020D0000020480000201D000020B4
:105A7000200000202DE9F04781460E4614461F46BF
:105A80004FF00008FBF7D4FD3B4608222146304684
:105A900000F014FE012802D04FF003080CE0600073
:105AA0000849B1FBF0F505B90125A8B200F030FEB8
:105AB000012801D04FF00308FBF7BCFD4046BDE8CC
:105AC000F0870000A07F17002DE9F04104460D4645
:105AD00016464FF000080027FBF7AAFD0E48008885
:105AE000042812DB0C4801880C4800F007FC60B960
:105AF0000A480078207008480088C01E3080074897
:105B0000401C28604FF0010800E00527FBF792FDDC
:105B10003846BDE8F0810000DE000020CC03002004
:105B20002DE9F04105460E4617464FF00008FBF7F9
:105B30007FFD1A480078012829D1701E1849086095
:105B4000012018490880164800680570084600883A
:105B500038440880084601881148006800F0CEFBF0
:105B6000044610490888411C0E4B19800E490C54FC
:105B7000221219460888411C19800B490A54012039
:105B80000A4908700121002000F01EFC01E04FF0DE
:105B90000508FBF74FFD4046BDE8F081D500002029
:105BA000D8000020DC000020CC030020D40000201E
:105BB00010B5FBF73DFD00200549087000210120CC
:105BC00000F002FC00F024FCFBF734FD10BD0000E7
:105BD000D500002010B5FBF72BFD0021084600F092
:105BE000F3FB00F005FCFBF725FD10BD10B50446E6
:105BF000012010BD03460120704700002DE9F04749
:105C000005460F46164698464FF00009CA46B7F5B6
:105C1000FA6F71DBB819B0F5FC6F6DDC5248008883
:105C20003C1AB8F1000F03D0B8F1010F30D130E0C9
:105C30004E48006800884E4908804C48006840681B
:105C4000C1F80200494800688068C1F8060047486A
:105C50000068C068C1F80A00444800680069C1F8DB
:105C60000E0042480068007D4882002088820DE0D6
:105C70003F4830F81400001205F8010B3C4810F8BA
:105C8000140005F8010B641C701E86B2002EEFDCB8
:105C900064E05BE015F8011B0802354921F81400A7
:105CA00015F8010B31F814100843314921F814009C
:105CB0000B2C47D2DFE804F006460E461746214675
:105CC0002A333B002A4800882849096808804FF099
:105CD000010A37E02648D0F80200244909684860E4
:105CE0004FF0010A2EE02248D0F806101F48006845
:105CF00081604FF0010A25E031E01D48D0F80A101C
:105D00001A480068C1604FF0010A1BE01848D0F83B
:105D10000E101648006801614FF0010A12E01448A5
:105D2000807C1249096808754FF0010A0AE01048A2
:105D3000808A30B100200E498882FEF785FF0D4928
:105D4000087000BF00BF641C701E86B2002EA1DC6C
:105D5000BAF1000F01D0FBF7A9FB00BF01E04FF043
:105D600001094846BDE8F087160000200800002021
:105D7000AC030020120000202DE9F04104460D463E
:105D800016464FF00008B5F57A7F4FDBA819B0F53D
:105D90007F7F4BDC284800882F1A28490888FBF7AA
:105DA0001BFB2749086025494888FBF715FB244958
:105DB000486022498888FBF70FFB214988601F490A
:105DC000C888FBF709FB1E49C8601C490889FBF716
:105DD00003FB1B49086119494889FBF7FDFA18497B
:105DE000486116498889FBF7F7FA15498861134914
:105DF000C889FBF7F1FA1249C86112480068807D32
:105E000008841148007848840DE00D4830F81700E8
:105E1000001204F8010B0A4810F8170004F8010BEF
:105E20007F1C701E86B2002EEFDC01E04FF00108EF
:105E30004046BDE8F0810000140000202C03002043
:105E40008403002008000020120000200448808DF8
:105E50000349496B09684968401A80B270470000DD
:105E60005C02002086B0FCF7EFFDFEF7C5FCFEF7F4
:105E700099FCFEF727FCFEF7BBFDFEF78BFDFEF756
:105E800037FDFEF753FDFEF72CFFFBF7CFFA0B2093
:105E9000FCF73EFEFBF78AFBFBF792FAFEF7C6FD26
:105EA0001422074901A8FAF729FF002101A800F0F0
:105EB0002BF80449086000F01AF800BFFEE7000064
:105EC000806C00080000002001460020842901D0D9
:105ED000CA1C1044704770B5044625460DB12946CA
:105EE00000E00121084600F013FB002070BD10B552
:105EF00000F046FB002010BD10B500F09FFD01280A
:105F000001D000F0EFFC10BD70B586B004460D4620
:105F1000B4F90800FFF7D8FF0646002005AACDE92E
:105F2000012000960390238A9AB22B46D4E90010F0
:105F300000F0E8FC012802D0002006B070BD0598F2
:105F4000FBE7000010B504460E48006844600E48A8
:105F50000068844207D20B480168091D0B4800689D
:105F600000F00CFA0CE007480168091D08480068B9
:105F700000F004FA07480068844201D20548046032
:105F800010BD0000E8000020F8000020F000002014
:105F9000EC000020140100202DE9F04105460F46D9
:105FA0001FB9A80000F008F900E03846064656B1CF
:105FB0005C2000F001F904460CB1266304E0304691
:105FC00000F06AFA00E0002424B1A900A522206BA9
:105FD000FAF7A6FE2046BDE8F08170470A4A22F093
:105FE00007000A4A10600022084B5A6040F6F87217
:105FF000074B5A6000221A60014640F6F8724A6068
:106000001A460A6070470000D405002028010020CD
:106010003001002000BFFFF7E0FF034800680128BF
:10602000F9D900F069FAF6E7F00400202DE9F0470D
:1060300004460F4615469946DDF82080002607E005
:10604000B95D04F134008155B85D00B902E0761CF9
:10605000102EF5D300BF002143200155072D00D39A
:106060000625E562E56400202065201D00F083F927
:1060700004F1180000F07FF92461C5F10700A06168
:1060800064620020606584F85800BDE8F087000075
:1060900010B5002407E004EB84010D4A02EB8100F7
:1060A00000F05CF9641C072CF5D30A4800F056F99F
:1060B000094800F053F9094800F050F9084800F089
:1060C0004DF904480749086003480749086010BDB6
:1060D000F00400207C05002090050020A40500208D
:1060E000B8050020EC000020F00000200A490968F3
:1060F000096809B9012100E0002121B14FF0FF3109
:10610000064A116006E004490968C968C868034A7C
:106110004168116070470000EC000020140100206D
:1061200007480068401C08B9012000E0002018B9A9
:10613000FAF7B4FD00BFFEE7FAF7B0FD00BFFEE7D7
:106140001C010020014621B1012904D0072906D1F4
:1061500003E0002005E0022003E0062001E0042027
:1061600000BF00BF7047000010B50024064800685B
:10617000804704460CB1012000E0002018B14FF028
:1061800080500249086010BD3C00002004ED00E092
:1061900010B5002406480068804704460CB1012071
:1061A00000E0002018B14FF080500249086010BD97
:1061B0003800002004ED00E02DE9F04104464FF0E6
:1061C000000800F00DFA2648006820B9FFF706FF26
:1061D00001202349086044B1083404F0070020B1CD
:1061E00004F00700C0F108000444002C32D040F64F
:1061F000F87084422ED21B4F3846056801E02F46C6
:106200002D686868A04202D228680028F7D1164895
:1062100085421FD0386800F108082868386068682F
:10622000001B102810D92E196868001B70606C6064
:1062300071680C4800E00068026852688A42FAD32C
:1062400002683260066000BF084968680968081A79
:106250000649086000F0A0FC4046BDE8F08100005F
:106260003C010020280100203001002038010020DE
:10627000001F4FF080730360001F0160001F034B7D
:106280000360143802602038704700002161000864
:1062900010B504460A492068084470B94FF480726A
:1062A00008490948FDF722FF07480068C06840F028
:1062B000200005490968C86000BF00BF10BD00008C
:1062C00000C8FEBFCC0300205C02002010B50446CD
:1062D00008492068084458B90748FDF7D0FD06482A
:1062E0000068C06820F0200003490968C86000BF4A
:1062F00000BF10BD00C8FEBF5C02002070B50246A2
:106300000C46FF25FF2309E012F8010B80EA030188
:106310000648405C80EA05030548455C201EA4F160
:106320000106B4B2F0D143EA052070BDBC6C000890
:10633000BC6D000801460A69D1E901309860D1E9D5
:10634000010358605068884201D18868506000207D
:1063500008611068401E10601068704700F1080165
:1063600041604FF0FF31816000F10801C1600161BF
:1063700000210160704700210161704710B502469D
:106380000B685C1C0CB9106907E002F1080000E022
:106390004068446824689C42FAD944684C604C6860
:1063A000A160886041600A611468641C146010BDBB
:1063B00042684A6093688B60936859609160086195
:1063C00003685B1C0360704770B505460C461DB141
:1063D0000548FFF75DFF02E00348FFF777FF14B1C0
:1063E00002480068804770BD5C0200203800002031
:1063F00010B50648FDF783FB002004490968486290
:10640000801E02490968086110BD000020020020BA
:1064100010B500200349096848620248FDF744FBB3
:1064200010BD00002002002010B5FAF737FC0D481F
:106430000068401C0B490860BFF34F8FBFF36F8F9C
:106440000846006801280BD107480068C0B208B9A7
:10645000012000E0002018B9FAF720FC00BFFEE799
:1064600010BD00001C01002004ED00E010B509483B
:10647000006818B9FAF712FC00BFFEE7054800688B
:10648000401E044908600846006810B90020FAF769
:106490000CFC10BD1C01002070B506463546B6B197
:1064A000083D2C4600F09CF86168094800E000684F
:1064B000026852688A42FAD3026822600460054981
:1064C0006068096808440349086000F065FB70BD16
:1064D0002801002038010020064800684FF47A7136
:1064E000B0FBF1F0401E4FF0E02148610720086149
:1064F00070470000E40000204FF08050034908601E
:10650000BFF34F8FBFF36F8F7047000004ED00E0C3
:1065100070B50446002634B31548006808B9012058
:1065200000E0002018B9FAF7B9FB00BFFEE700F061
:1065300057F81048006805190F480068001DFFF75C
:10654000F9FE50B90C48006890F82C1001208840E2
